:100000000C9461010C9492010C9492010C94920155
:100010000C9492010C9492010C9492010C94920114
:100020000C9492010C9492010C9492010C94920104
:100030000C9492010C9492010C9492010C949201F4
:100040000C9492010C9492010C9492010C949201E4
:100050000C9492010C9492010C9492010C94BD06A4
:100060000C9492010C9431070C9407070C949201A4
:100070000C9492010C9492010C9492010C949201B4
:100080000C9492010C9492010C9492010C949201A4
:100090000C9492010C9492010C9492010C946707B9
:1000A0000C9492010C9492010C9492010C94920184
:1000B0000C9492010C9492010C9492010C94920174
:1000C0000C9492010C9492010C9492010C94920164
:1000D0000C9492010C9492010C9492010C94920154
:1000E0000C9492010C94BC010C94C4010C94E90191
:1000F0000C94D6030C942F030C94C7010C948B081A
:100100000C94150C0C94900C0C9443030C94CC0C94
:100110000C94DE0B0C94B2010C94BC0D0C943D0DB0
:100120000C94580C0C9420030C94C0010C94F20213
:100130000C947F060C9451030C94D1010C94CD01C6
:100140000C9489030C9427040C94E5010C94F7019A
:100150000C948E040C94840D0C94FB050C94DF011C
:100160000C94B8040C94F1020C94F3020C94D70193
:100170000C94060D0C949E040C948F040C94ED01C9
:100180000C94F90A0C94A80B0C94DB010C94B801A4
:100190000C94F3010C94E5040C94B1040C94F2015A
:1001A00000002100240027002A002D003000330029
:1001B00001010000040107010A01000022002500DE
:1001C00028002B002E003100340002010000050140
:1001D00008010B01000020002300260029002C004C
:1001E0002F0032000001000003010601090105058E
:1001F0000505070508080808020202020A0A08089D
:1002000004040404010101010101010103030303CA
:1002100003030303040707070C0C0C0C0C0C0C0C59
:100220000202020206060606060606060B0B0B0B6A
:100230000B0B0B0B0102102020080810204010208F
:10024000408002010201080402010102040810209A
:100250004080804020100804020180040201804098
:100260002010080402010804020101020408102001
:100270004080010204081020408000000A0B02099F
:100280000C0D0E0807030401000000000000000030
:10029000000000000000000000000000000000005E
:1002A000000000000000121110000000000000001B
:1002B000000000000000000000000000000000003E
:1002C0008B0811241FBECFEFD1E2DEBFCDBF00E00F
:1002D0000CBF12E0A0E0B2E0E8E6FCE100E00BBFFA
:1002E00002C007900D92A036B107D9F723E0A0E62F
:1002F000B2E001C01D92A43EB207E1F711E0C1E6F1
:10030000D1E000E006C021970109802FFE010E9484
:100310002A0EC036D10780E00807A9F70E94D3084B
:100320000C94320E0C9400008150823108F05AC0B7
:10033000E82FF0E08827E056FE4F8F4F0C942A0EEE
:10034000C001C401B201B801BC01F201C701CD0175
:10035000D101D701DB01DF01E501E901F201ED0186
:10036000F301F701809180008F77809380000895DA
:10037000809180008F7DF9CF80918000877FF5CFBD
:1003800084B58F7784BD089584B58F7DFBCF809130
:10039000B0008F778093B00008958091B0008F7D7A
:1003A000F9CF809190008F7780939000089580918D
:1003B00090008F7DF9CF80919000877FF5CF80915D
:1003C000A0008F778093A00008958091A0008F7D7A
:1003D000F9CF8091A000877FF5CF809120018F77A2
:1003E000809320010895809120018F7DF9CF809125
:1003F0002001877FF5CFCF93DF93282F30E0F901DD
:10040000E658FD4F8491F901EC5CFD4FD491F90160
:10041000E251FE4FC491CC23A1F081110E949401BE
:10042000EC2FF0E0EE0FFF1FEC52FE4FA591B491C0
:10043000EC91ED2381E090E009F480E0DF91CF9131
:10044000089580E090E0FACF1F93CF93DF93282F99
:1004500030E0F901E658FD4F8491F901EC5CFD4F65
:10046000D491F901E251FE4FC491CC23A9F0162F8B
:1004700081110E949401EC2FF0E0EE0FFF1FE65473
:10048000FE4FA591B4918FB7F894EC91111108C06B
:10049000D095DE23DC938FBFDF91CF911F9108951C
:1004A000DE2BF8CFCF93DF9390E0FC01EC5CFD4FA7
:1004B000249182519E4FFC0184918823D1F090E0D9
:1004C000880F991FFC01E056FE4FA591B491FC01E5
:1004D000E654FE4FC591D49161110EC09FB7F894B8
:1004E0008C91E22FE0958E238C932881E223E88380
:1004F0009FBFDF91CF9108958FB7F894EC91E22BD5
:10050000EC938FBFF6CF90917B00977F90937B0009
:100510008653806480937C0080917A00806480930D
:100520007A0080917A0086FDFCCF809178009091CE
:10053000790008953FB7F89480912B0390912C0394
:10054000A0912D03B0912E0326B5A89B05C02F3F87
:1005500019F00196A11DB11D3FBFBA2FA92F982FE9
:100560008827BC01CD01620F711D811D911D42E0E4
:10057000660F771F881F991F4A95D1F708958F92AC
:100580009F92AF92BF92CF92DF92EF92FF924B0178
:100590005C010E949A026B017C010E949A026C1914
:1005A0007D098E099F09683E734081059105A8F376
:1005B00021E0821A9108A108B10888EEC80E83E0F4
:1005C000D81EE11CF11C81149104A104B10429F787
:1005D000FF90EF90DF90CF90BF90AF909F908F9063
:1005E000089508950895AF92BF92CF92DF92EF924F
:1005F000FF920F931F93CF93DF936C017B018B01CD
:10060000040F151FEB015E01AE18BF08C017D1071C
:1006100059F06991D601ED91FC910190F081E02DA6
:10062000C6011995892B79F7C501DF91CF911F91EB
:100630000F91FF90EF90DF90CF90BF90AF90089513
:10064000FC01538D448D252F30E0842F90E0821BD8
:10065000930B541710F0CF96089501970895FC015D
:10066000918D828D981761F0A28DAE0FBF2FB11DB5
:100670005D968C91928D9F5F9F73928F90E008950D
:100680008FEF9FEF0895FC01918D828D981731F0C7
:10069000828DE80FF11D858D90E008958FEF9FEF1B
:1006A0000895FC01918D228D892F90E0805C9F4FF1
:1006B000821B91098F73992708958FE293E00E941E
:1006C000510321E0892B09F420E0822F0895FC01D9
:1006D000A48DA80FB92FB11DA35ABF4F2C91848DA3
:1006E00090E001968F739927848FA689B7892C9300
:1006F000A089B1898C91837080648C93938D848D53
:10070000981306C00288F389E02D80818F7D808355
:100710000895EF92FF920F931F93CF93DF93EC0115
:1007200081E0888F9B8D8C8D98131AC0E889F98998
:10073000808185FF15C09FB7F894EE89FF8960839B
:10074000E889F98980818370806480839FBF81E01C
:1007500090E0DF91CF911F910F91FF90EF9008955E
:10076000F62E0B8D10E00F5F1F4F0F731127E02E39
:100770008C8D8E110CC00FB607FCFACFE889F98971
:10078000808185FFF5CFCE010E946703F1CFEB8D0D
:10079000EC0FFD2FF11DE35AFF4FF0829FB7F89445
:1007A0000B8FEA89FB8980818062CFCFCF93DF9363
:1007B000EC01888D8823B9F0AA89BB89E889F98979
:1007C0008C9185FD03C0808186FD0DC00FB607FCAE
:1007D000F7CF8C9185FFF2CF808185FFEDCFCE01E1
:1007E0000E946703E9CFDF91CF91089580E090E008
:1007F000892B29F00E945D0381110E94000080E096
:1008000090E0892B49F080E090E0892B29F00E944C
:10081000000081110E94000080E090E0892B49F0E7
:1008200080E090E0892B29F00E94000081110E9455
:10083000000080E090E0892B49F080E090E0892B77
:1008400029F00E94000081110C9400000895089581
:100850002091A102260F3327331F21323105ECF4FA
:100860002091EA02FC0190E080E0243069F082E00F
:100870000895A091A1022191AC014F575D4FA40FA3
:10088000B52FB11D2C930196861798F38091A10284
:10089000680F6093A10280E0089581E008951092AE
:1008A000EA0281E08093E9021092C40261E084E1EF
:1008B0000E94240261E085E10E942402E9EBF0E05D
:1008C00080818E7F808380818D7F808388E4809388
:1008D000B80085E48093BC000895CF93DF9391E046
:1008E000909380028823B9F0C091B800D091BA00EB
:1008F0008091BC008A7B8093BC0060E084E10E9410
:10090000240260E085E10E9424020E944F04D093FB
:10091000BA00C093B800DF91CF9108950895E09197
:10092000190380911803E81730F4F0E0E05AFD4F06
:10093000808190E008958FEF9FEF089590911903C3
:10094000809118032FEF3FEF981748F4E92FF0E05C
:10095000E05AFD4F208130E09F5F90931903C90159
:1009600008958091180390911903891B990B08959C
:10097000CF92DF92EF92FF920F931F93CF93DF936B
:100980007C01CB018A012091F002222389F0EB0146
:100990006B01C40ED51ECC15DD0569F06991D70138
:1009A000ED91FC910190F081E02DC7011995F3CFF5
:1009B000642F0E942804C801DF91CF911F910F91ED
:1009C000FF90EF90DF90CF900895CF93DF931F9229
:1009D000CDB7DEB769832091F0022223F9F0209190
:1009E0001603203258F021E030E0FC0133832283EB
:1009F00090E080E00F90DF91CF91089580911703F0
:100A0000E82FF0E0EF50FD4F998190838F5F809346
:100A100017038093160381E090E0ECCF61E0CE01F4
:100A200001960E942804F7CFCF92DF92EF92FF92B7
:100A30000F931F93CF93DF93FC01C48121E0209398
:100A4000F002C093110310921703109216038385CE
:100A5000682B8CEC93E00E94E504D0911603D13210
:100A600008F092C00E949A026B017C018091EA0218
:100A7000811165C082E08093EA0281E08093E902FF
:100A80008FEF8093E8021092E702D093E602A1EF85
:100A9000B2E0E6ECF2E080E0D81385C01092C50227
:100AA0008091C502CC0FC82BC093C5028091C402AF
:100AB000813009F07CC01092C4020E949A026B013E
:100AC0007C018091C5028093BB008091EC029091E3
:100AD000ED02A091EE02B091EF02892B8A2B8B2BB5
:100AE00099F00E949A020091EC021091ED0220917F
:100AF000EE023091EF026C197D098E099F090617ED
:100B0000170728073907E0F18091BC0083FDD9CF92
:100B100085EC8093BC000E949A026B017C0180915D
:100B2000EA02823009F445C08091E8028F3F61F10A
:100B30008091E802803241F18091E80225C08091E5
:100B4000EC029091ED02A091EE02B091EF02892BA0
:100B50008A2B8B2B09F48ACF0E949A020091EC0217
:100B60001091ED022091EE023091EF026C197D0997
:100B70008E099F09061717072807390708F076CF4F
:100B80008091EB020E946D041092170310921603DD
:100B90001092F002DF91CF911F910F91FF90EF9093
:100BA000DF90CF9008959D9191938F5F75CF85EEE3
:100BB000B0CF8091EC029091ED02A091EE02B09145
:100BC000EF02892B8A2B8B2B09F4A9CF0E949A0262
:100BD0000091EC021091ED022091EE023091EF02B3
:100BE0006C197D098E099F09061717072807390711
:100BF00008F095CFC5CF90E080E00895EF920F9375
:100C0000CF93DF93D62FC42F622F0E942402602F30
:100C10008D2F0E9424026E2D8C2FDF91CF910F918A
:100C2000EF900C942402FC0101900020E9F7319729
:100C3000AF01481B590BBC0188ED93E00C94F30203
:100C40000F931F93CF938C01C62F0E9414056C2F16
:100C50006460C8010E9414056C2F6B7FC8010E945C
:100C6000140583EC90E00197F1F7CF911F910F915C
:100C700008950F931F93CF93DF938C01D62FC42F2A
:100C8000607F642B0E94200680E1D89FB001112470
:100C90006C2BC801DF91CF911F910F910C9420060E
:100CA000CF93DF9300D000D01F921F92CDB7DEB755
:100CB00098E0E0E0F2E0DE01119601900D929A9545
:100CC000E1F79091E003981708F48FEF90E0880F18
:100CD000991F21E030E02C0F3D1F820F931FFC0174
:100CE0006081606840E088ED93E028960FB6F89444
:100CF000DEBF0FBECDBFDF91CF910C94390641E02E
:100D00000E94390681E090E0089585ED8093BC0053
:100D10008091EC029091ED02A091EE02B091EF0271
:100D20000796A11DB11D23E0B695A79597958795C8
:100D30002A95D1F72091BC0024FD03C01092EA024D
:100D400008954091EC025091ED026091EE02709195
:100D5000EF02452B462B472B69F30097A105B10500
:100D600041F02AE22A95F1F700C00197A109B109E3
:100D7000E1CF8091EB020C946D041F920F920FB69D
:100D80000F9211242F933F938F939F93AF93BF9311
:100D90008091270390912803A0912903B0912A0301
:100DA0003091260323E0230F2D3758F50196A11D1E
:100DB000B11D209326038093270390932803A093CB
:100DC0002903B0932A0380912B0390912C03A091C7
:100DD0002D03B0912E030196A11DB11D80932B030D
:100DE00090932C03A0932D03B0932E03BF91AF914A
:100DF0009F918F913F912F910F900FBE0F901F9059
:100E0000189526E8230F0296A11DB11DD2CF1F927F
:100E10000F920FB60F9211240BB60F922F933F93A0
:100E20004F935F936F937F938F939F93AF93BF93F2
:100E3000EF93FF938FE293E00E946703FF91EF919E
:100E4000BF91AF919F918F917F916F915F914F91E2
:100E50003F912F910F900BBE0F900FBE0F901F90E0
:100E600018951F920F920FB60F9211240BB60F9286
:100E70002F938F939F93EF93FF93E0913F03F09114
:100E800040038081E0914503F091460382FD1DC03F
:100E90009081809148038F5F8F732091490382175F
:100EA00041F0E0914803F0E0E15DFC4F958F8093C5
:100EB0004803FF91EF919F918F912F910F900BBE5F
:100EC0000F900FBE0F901F9018958081F2CF1F9248
:100ED0000F920FB60F9211240BB60F922F933F93E0
:100EE0004F935F936F937F938F939F93AF93BF9332
:100EF000EF93FF938091B900887F803609F44DC04D
:100F000008F040C0883209F4A9C028F5803109F4FE
:100F10009DC0C8F4882309F4FBC0883009F496C04A
:100F2000FF91EF91BF91AF919F918F917F916F91C1
:100F30005F914F913F912F910F900BBE0F900FBE7D
:100F40000F901F901895883109F488C0803241F7BE
:100F50008093E80214C0803409F49DC040F48033CB
:100F6000B9F38833E9F68093E80285ECB0C08035A8
:100F700009F485C0883509F496C0883489F60E9442
:100F80008506CECF883909F48CC038F5883729F02A
:100F900050F4883611F0803719F683E08093EA0226
:100FA0001092C30257C0883809F47BC0803919F009
:100FB000803809F0B5CF8091C302803208F071C04B
:100FC000E091C30281E08E0F8093C3028091BB0049
:100FD000F0E0ED55FD4F80833DC0803B39F0E0F4FB
:100FE000803A09F479C0883A09F09ACF84E0809376
:100FF000EA021092A2021092A102E0911403F09171
:10100000150319958091A10281110FC081E0809391
:10101000A1021092810209C0803C09F4A6CF883C4D
:1010200009F4A3CF883B09F07BCFE091A20281E0D5
:101030008E0F8093A202F0E0EF57FD4F80818093E6
:10104000BB009091A2028091A10229C08091C502AB
:101050008093BB0085EC8093BC0062CF9091E70247
:101060008091E602981758F5E091E70281E08E0F33
:101070008093E702F0E0EA53FD4F8081E9CFE091F1
:10108000E70281E08E0F8093E7028091BB00F0E0E1
:10109000EA53FD4F80839091E7028091E602981712
:1010A000C8F285E8D8CFE091E70281E08E0F809307
:1010B000E7028091BB00F0E0EA53FD4F808380910E
:1010C000E90281115CCF81E08093C40284EA8093BD
:1010D000BC001092EA0224CF85EC8093BC001092F1
:1010E000EA028091C302803230F4E091C302F0E062
:1010F000ED55FD4F10826091C30270E0E091120344
:10110000F091130383EA92E019951092C30208CF7D
:101110001092E80234CFEFE2F3E01382128288EEFD
:1011200093E0A0E0B0E084839583A683B7832CE0AE
:1011300032E03183208325EC30E03587248724ECAE
:1011400030E03787268720EC30E0318B208B21EC94
:1011500030E0338B228B22EC30E0358B248B26EC75
:1011600030E0378B268B118E128E138E148EECECA2
:10117000F3E01382128284839583A683B7838EE182
:1011800092E091838083E8EDF3E01382128280E3A2
:1011900092E09183808387E2848384E1818784E085
:1011A000828713860895CF93DF93CDB7DEB7A597D7
:1011B0000FB6F894DEBF0FBECDBF789484B58260C1
:1011C00084BD84B5816084BD85B5826085BD85B5EB
:1011D000816085BD80916E00816080936E00109269
:1011E00081008091810082608093810080918100E4
:1011F0008160809381008091800081608093800075
:101200008091B10084608093B1008091B0008160D2
:101210008093B000809191008260809391008091D2
:101220009100816080939100809190008160809313
:1012300090008091A10082608093A1008091A10024
:1012400081608093A1008091A00081608093A000C4
:101250008091210182608093210180912101816030
:1012600080932101809120018160809320018091F1
:101270007A00846080937A0080917A008260809303
:101280007A0080917A00816080937A0080917A0060
:10129000806880937A001092C10060E085E20E942D
:1012A000520260E084E20E94520260E083E20E9407
:1012B000520260E082E20E94520260E081E20E94FB
:1012C000520260E080E20E94520260E08FE10E94E0
:1012D000520260E08EE10E94520261E086E10E94CB
:1012E000520261E087E10E94520261E088E10E94BF
:1012F000520261E089E10E94520261E08AE10E94AB
:10130000520261E08BE10E94520260E086E10E949D
:10131000240260E087E10E94240260E088E10E94EC
:10132000240260E089E10E94240260E08AE10E94D8
:10133000240260E08BE10E942402E0913F03F091DF
:10134000400382E08083E0913B03F0913C031082F4
:10135000E0913D03F0913E038FEC808310924703B0
:10136000E0914303F091440386E08083E0914103E0
:10137000F0914203808180618083E0914103F0918C
:101380004203808188608083E0914103F0914203B1
:10139000808180688083E0914103F09142038081E5
:1013A0008F7D8083109219031092180310921703F7
:1013B000109216030E944F0481EF92E09093150360
:1013C0008093140382EF92E09093130380931203AF
:1013D0001092DD038091E203823018F098E0909340
:1013E000DD038093E00362E370E080E090E00E9420
:1013F000BF026091E30388ED93E00E94140568EE5C
:1014000073E080E090E00E94BF0260E388ED93E02B
:101410000E9420060BE416E4C8010197F1F760E38F
:1014200088ED93E00E942006C8010197F1F760E380
:1014300088ED93E00E94200683E592E00197F1F7A2
:1014400060E288ED93E00E9420066091DD03606217
:1014500040E088ED93E00E94390684E08093DE034B
:1014600040E06CE088ED93E00E94390640E061E0E6
:1014700088ED93E00E9439060BE31FE1C801019754
:10148000F1F782E08093DF0340E066E088ED93E0CF
:101490000E94390640E062E088ED93E00E94390640
:1014A000C8010197F1F788E08093E30360E088EDDD
:1014B00093E00E941405109225031092240311E07A
:1014C0008CE2482E55245394612C712C95E0292EE2
:1014D000312C86E30E94830287E30E94830288E323
:1014E0000E94830288E30E94830285E20E94FB013E
:1014F0005C0188248394892B09F4812C80921E033B
:1015000084E20E94FB016C0181E0C114D10409F462
:1015100080E080931D0383E20E94FB0182E20E942F
:10152000FB0181E20E94FB0180E20E94FB0101E0DD
:10153000892B09F400E000931C038FE10E94FB015A
:1015400099249394892B09F4912C90921B038EE19A
:101550000E94FB019C01AB2849F080911A03811184
:1015600005C090911F03912790931F0380921A0347
:10157000CD2891F160E089E10E94240260E08AE1D7
:101580000E94240260E08BE10E9424028FB7F8944D
:101590008090270390902803A0902903B0902A03FD
:1015A0008FBFC0902403D09025032BE0C216D10436
:1015B00008F05AC0F6018827EF51F54F8F4F0C9471
:1015C0002A0EF90ACC0C060D3D0D840D900CA80BCB
:1015D000DE0B150C580CBC0D61E0232B09F460E008
:1015E00089E10E942402692D8AE10E942402602F71
:1015F000CACFE12C00E021E048E150E067E170E073
:1016000086E190E00E94FE0521E04BE150E06AE1B6
:1016100070E089E190E00E94FE05809120039091A6
:101620002103A0912203B0912303A5019401281B5B
:10163000390B4A0B5B0BDA01C901803A9F40A105C7
:10164000B10590F08092200390922103A092220392
:10165000B092230380911F0381119BC186E090E02B
:10166000909325038093240340E061E088ED93E0AC
:101670000E9439068BE39FE10197F1F780E00E9419
:10168000500688E392E00E94130680912403909113
:1016900025038230910509F4B3C20CF0A3C2892B53
:1016A00009F4A9C281E00E94500687E592E00E94F9
:1016B000130680912403909125038D7F892B09F4D3
:1016C000A2C280E699E0A0E0B0E020912003309132
:1016D000210340912203509123036FB7F894809027
:1016E000270390902803A0902903B0902A036FBF8E
:1016F000281939094A095B09280F391F4A1F5B1F3E
:1017000019A26E0181E2C80ED11CCA01B9012AE0FA
:1017100030E040E050E00E94080E605DD6016E931C
:101720006D01211531054105510579F7109769F0D3
:10173000FD0101900020E9F73197AF014A1B5B0BD7
:10174000BD0188ED93E00E94F3020E94F603C1CE32
:10175000E12C01E021E048E150E067E170E086E142
:1017600090E00E94FE0500E021E04BE150E06AE1DC
:1017700070E089E190E00E94FE0580912003909145
:101780002103A0912203B0912303A5019401281BFA
:10179000390B4A0B5B0BDA01C901803D9740A1056B
:1017A000B10508F461CF8092200390922103A092AA
:1017B0002203B092230387E090E052CFEE24E3941B
:1017C00000E020E048E150E067E170E086E190E071
:1017D0000E94FE05E12C21E04BE150E06AE170E05F
:1017E00089E190E00E94FE05809120039091210301
:1017F000A0912203B0912303A5019401281B390B6A
:101800004A0B5B0BDA01C901803A9F40A105B10583
:1018100008F42ACF8092200390922103A092220301
:10182000B092230388E090E01BCF80912003909139
:101830002103A0912203B0912303A5019401281B49
:10184000390B4A0B5B0B2AA33BA34CA35DA3CA0134
:10185000B901A30192010E94080E2170E22E00E05E
:1018600020E048E150E067E170E086E190E00E940E
:10187000FE05E12C21E04BE150E06AE170E089E1F6
:1018800090E00E94FE058AA19BA1ACA1BDA180367B
:101890009940A105B10508F4E7CE8092200390920B
:1018A0002103A0922203B092230389E090E0D8CED6
:1018B000E12C01E020E048E150E067E170E086E1E2
:1018C00090E00E94FE0500E021E04BE150E06AE17B
:1018D00070E089E190E00E94FE05809120039091E4
:1018E0002103A0912203B0912303A5019401281B99
:1018F000390B4A0B5B0BDA01C90180369940A1050F
:10190000B10508F4B1CE8092200390922103A092F9
:101910002203B09223033092250320922403A4CE05
:10192000E12C00E021E048E150E067E170E086E171
:1019300090E00E94FE0521E04BE150E06AE170E09A
:1019400089E190E00E94FE0580912003909121039F
:10195000A0912203B0912303A5019401281B390B08
:101960004A0B5B0BDA01C901803A9F40A105B10522
:1019700008F47ACE8092200390922103A092220351
:10198000B092230380911F03811103C081E090E096
:1019900067CE8AE090E064CEE12C00E021E048E1EF
:1019A00050E067E170E086E190E00E94FE0501E012
:1019B00021E04BE150E06AE170E089E190E00E94B3
:1019C000FE058091200390912103A0912203B09104
:1019D0002303A5019401281B390B4A0B5B0BDA0189
:1019E000C901803D9740A105B10508F43DCE809224
:1019F000200390922103A0922203B092230342E09D
:101A000050E050932503409324032ECEE12C00E0B8
:101A100021E048E150E067E170E086E190E00E945B
:101A2000FE05EE24E39420E04BE150E06AE170E033
:101A300089E190E00E94FE058091200390912103AE
:101A4000A0912203B0912303A5019401281B390B17
:101A50004A0B5B0BDA01C901803A9F40A105B10531
:101A600008F402CE8092200390922103A0922203D8
:101A7000B092230343E050E0C4CFE12C00E021E02A
:101A800048E150E067E170E086E190E00E94FE05E9
:101A90008091200390912103A0912203B091230310
:101AA000A5019401281B390B4A0B5B0B2AA33BA30E
:101AB0004CA35DA3CA01B901A30192010E94080EC3
:101AC0002170E22E20E04BE150E06AE170E089E114
:101AD00090E00E94FE058AA19BA1ACA1BDA1803629
:101AE0009940A105B10508F4BFCD809220039092E2
:101AF0002103A0922203B092230324E030E030932C
:101B0000250320932403B0CDE12C00E021E048E13F
:101B100050E067E170E086E190E00E94FE0501E0A0
:101B200020E04BE150E06AE170E089E190E00E9442
:101B3000FE058091200390912103A0912203B09192
:101B40002303A5019401281B390B4A0B5B0BDA0117
:101B5000C90180369940A105B10508F485CD809270
:101B6000200390922103A0922203B09223031092AB
:101B700025031092240378CD8091200390912103B6
:101B8000A0912203B0912303A5019401281B390BD6
:101B90004A0B5B0BCA01B901A30192010E94080E16
:101BA0002170B22EE12C022F20E048E150E067E1E5
:101BB00070E086E190E00E94FE0500E02B2D4BE1F5
:101BC00050E06AE170E089E190E00E94FE058091BA
:101BD0001F03811102C0D12CC12CD0922503C092C9
:101BE000240342CD8430910519F0099709F05ACDAC
:101BF00086E492E002C080E492E00E94130652CD97
:101C000080E592E0FACF80EA9FE0A0E0B0E05DCD11
:101C1000A1E21A2EAA1BBB1BFD010DC0AA1FBB1FF0
:101C2000EE1FFF1FA217B307E407F50720F0A21B62
:101C3000B30BE40BF50B661F771F881F991F1A94CF
:101C400069F760957095809590959B01AC01BD01F9
:101C5000CF010895EE0FFF1F881F8BBF0790F691ED
:081C6000E02D1994F894FFCF68
:101C68000000400014005400000000008903F30243
:101C78002003D60351032F03430300000000E504AB
:101C8800B804FB058E04B1049E048F040000000014
:101C98007F06F302FB05270445737461646F3A00FD
:101CA80020524F4A4F0020414D4152494C4C4F0061
:101CB800205645524445005469656D706F3A0000DE
:00000001FF
