:100000000C9461010C9492010C9492010C94920155
:100010000C9492010C9492010C9492010C94920114
:100020000C9492010C9492010C9492010C94920104
:100030000C9492010C9492010C9492010C949201F4
:100040000C9492010C9492010C9492010C949201E4
:100050000C9492010C9492010C9492010C94BD07A3
:100060000C9492010C9431080C9407080C949201A2
:100070000C9492010C9492010C9492010C949201B4
:100080000C9492010C9492010C9492010C949201A4
:100090000C9492010C9492010C9492010C946708B8
:1000A0000C9492010C9492010C9492010C94920184
:1000B0000C9492010C9492010C9492010C94920174
:1000C0000C9492010C9492010C9492010C94920164
:1000D0000C9492010C9492010C9492010C94920154
:1000E0000C9492010C9451030C94E5010C94D701EB
:1000F0000C9443030C94D6030C941A0E0C94A30C8A
:100100000C948F040C9427040C94B1040C948E046A
:100110000C94690C0C94FB050C94F2010C94980E51
:100120000C94CD010C94750F0C94E9010C948B097F
:100130000C94630D0C94ED010C94B8010C94F70130
:100140000C94DF010C94BC010C94F3010C94F302A9
:100150000C94280C0C94C0010C94F2020C94390FEE
:100160000C94DB010C9472060C94C7010C94E80EFD
:100170000C949E040C94C50D0C945A0E0C94B80467
:100180000C94F1020C94D1010C9489030C94E504B5
:100190000C942F030C9420030C94B2010C94C40112
:1001A00000002100240027002A002D003000330029
:1001B00001010000040107010A01000022002500DE
:1001C00028002B002E003100340002010000050140
:1001D00008010B01000020002300260029002C004C
:1001E0002F0032000001000003010601090105058E
:1001F0000505070508080808020202020A0A08089D
:1002000004040404010101010101010103030303CA
:1002100003030303040707070C0C0C0C0C0C0C0C59
:100220000202020206060606060606060B0B0B0B6A
:100230000B0B0B0B0102102020080810204010208F
:10024000408002010201080402010102040810209A
:100250004080804020100804020180040201804098
:100260002010080402010804020101020408102001
:100270004080010204081020408000000A0B02099F
:100280000C0D0E0807030401000000000000000030
:10029000000000000000000000000000000000005E
:1002A000000000000000121110000000000000001B
:1002B000000000000000000000000000000000003E
:1002C0008B0911241FBECFEFD1E2DEBFCDBF00E00E
:1002D0000CBF12E0A0E0B2E0E2EDFFE100E00BBFF6
:1002E00002C007900D92A63FB107D9F724E0A6EF10
:1002F000B2E001C01D92A737B207E1F711E0C1E6F5
:10030000D1E000E006C021970109802FFE010E9484
:10031000DF0FC036D10780E00807A9F70E94D30994
:100320000C94E70F0C9400008150823108F05AC001
:10033000E82FF0E08827E056FE4F8F4F0C94DF0F38
:10034000C001C401B201B801BC01F201C701CD0175
:10035000D101D701DB01DF01E501E901F201ED0186
:10036000F301F701809180008F77809380000895DA
:10037000809180008F7DF9CF80918000877FF5CFBD
:1003800084B58F7784BD089584B58F7DFBCF809130
:10039000B0008F778093B00008958091B0008F7D7A
:1003A000F9CF809190008F7780939000089580918D
:1003B00090008F7DF9CF80919000877FF5CF80915D
:1003C000A0008F778093A00008958091A0008F7D7A
:1003D000F9CF8091A000877FF5CF809120018F77A2
:1003E000809320010895809120018F7DF9CF809125
:1003F0002001877FF5CFCF93DF93282F30E0F901DD
:10040000E658FD4F8491F901EC5CFD4FD491F90160
:10041000E251FE4FC491CC23A1F081110E949401BE
:10042000EC2FF0E0EE0FFF1FEC52FE4FA591B491C0
:10043000EC91ED2381E090E009F480E0DF91CF9131
:10044000089580E090E0FACF1F93CF93DF93282F99
:1004500030E0F901E658FD4F8491F901EC5CFD4F65
:10046000D491F901E251FE4FC491CC23A9F0162F8B
:1004700081110E949401EC2FF0E0EE0FFF1FE65473
:10048000FE4FA591B4918FB7F894EC91111108C06B
:10049000D095DE23DC938FBFDF91CF911F9108951C
:1004A000DE2BF8CFCF93DF9390E0FC01EC5CFD4FA7
:1004B000249182519E4FFC0184918823D1F090E0D9
:1004C000880F991FFC01E056FE4FA591B491FC01E5
:1004D000E654FE4FC591D49161110EC09FB7F894B8
:1004E0008C91E22FE0958E238C932881E223E88380
:1004F0009FBFDF91CF9108958FB7F894EC91E22BD5
:10050000EC938FBFF6CF90917B00977F90937B0009
:100510008653806480937C0080917A00806480930D
:100520007A0080917A0086FDFCCF809178009091CE
:10053000790008953FB7F8948091BE039091BF036E
:10054000A091C003B091C10326B5A89B05C02F3F61
:1005500019F00196A11DB11D3FBFBA2FA92F982FE9
:100560008827BC01CD01620F711D811D911D42E0E4
:10057000660F771F881F991F4A95D1F708958F92AC
:100580009F92AF92BF92CF92DF92EF92FF924B0178
:100590005C010E949A026B017C010E949A026C1914
:1005A0007D098E099F09683E734081059105A8F376
:1005B00021E0821A9108A108B10888EEC80E83E0F4
:1005C000D81EE11CF11C81149104A104B10429F787
:1005D000FF90EF90DF90CF90BF90AF909F908F9063
:1005E000089508950895AF92BF92CF92DF92EF924F
:1005F000FF920F931F93CF93DF936C017B018B01CD
:10060000040F151FEB015E01AE18BF08C017D1071C
:1006100059F06991D601ED91FC910190F081E02DA6
:10062000C6011995892B79F7C501DF91CF911F91EB
:100630000F91FF90EF90DF90CF90BF90AF90089513
:10064000FC01538D448D252F30E0842F90E0821BD8
:10065000930B541710F0CF96089501970895FC015D
:10066000918D828D981761F0A28DAE0FBF2FB11DB5
:100670005D968C91928D9F5F9F73928F90E008950D
:100680008FEF9FEF0895FC01918D828D981731F0C7
:10069000828DE80FF11D858D90E008958FEF9FEF1B
:1006A0000895FC01918D228D892F90E0805C9F4FF1
:1006B000821B91098F739927089582EC93E00E9421
:1006C000510321E0892B09F420E0822F0895FC01D9
:1006D000A48DA80FB92FB11DA35ABF4F2C91848DA3
:1006E00090E001968F739927848FA689B7892C9300
:1006F000A089B1898C91837080648C93938D848D53
:10070000981306C00288F389E02D80818F7D808355
:100710000895EF92FF920F931F93CF93DF93EC0115
:1007200081E0888F9B8D8C8D98131AC0E889F98998
:10073000808185FF15C09FB7F894EE89FF8960839B
:10074000E889F98980818370806480839FBF81E01C
:1007500090E0DF91CF911F910F91FF90EF9008955E
:10076000F62E0B8D10E00F5F1F4F0F731127E02E39
:100770008C8D8E110CC00FB607FCFACFE889F98971
:10078000808185FFF5CFCE010E946703F1CFEB8D0D
:10079000EC0FFD2FF11DE35AFF4FF0829FB7F89445
:1007A0000B8FEA89FB8980818062CFCFCF93DF9363
:1007B000EC01888D8823B9F0AA89BB89E889F98979
:1007C0008C9185FD03C0808186FD0DC00FB607FCAE
:1007D000F7CF8C9185FFF2CF808185FFEDCFCE01E1
:1007E0000E946703E9CFDF91CF91089580E090E008
:1007F000892B29F00E945D0381110E94000080E096
:1008000090E0892B49F080E090E0892B29F00E944C
:10081000000081110E94000080E090E0892B49F0E7
:1008200080E090E0892B29F00E94000081110E9455
:10083000000080E090E0892B49F080E090E0892B77
:1008400029F00E94000081110C9400000895089581
:1008500020913703260F3327331F21323105ECF463
:1008600020918003FC0190E080E0243069F082E078
:100870000895A09137032191AC01495E5C4FA40F0C
:10088000B52FB11D2C930196861798F380913703ED
:10089000680F6093370380E0089581E00895109217
:1008A000800381E080937F0310925A0361E084E12A
:1008B0000E94240261E085E10E942402E9EBF0E05D
:1008C00080818E7F808380818D7F808388E4809388
:1008D000B80085E48093BC000895CF93DF9391E046
:1008E000909316038823B9F0C091B800D091BA0054
:1008F0008091BC008A7B8093BC0060E084E10E9410
:10090000240260E085E10E9424020E944F04D093FB
:10091000BA00C093B800DF91CF9108950895E09197
:10092000AF038091AE03E81730F4F0E0EA50FD4FDA
:10093000808190E008958FEF9FEF08959091AF032D
:100940008091AE032FEF3FEF981748F4E92FF0E0C6
:10095000EA50FD4F208130E09F5F9093AF03C901C3
:1009600008958091AE039091AF03891B990B089570
:10097000CF92DF92EF92FF920F931F93CF93DF936B
:100980007C01CB018A0120918603222389F0EB01AF
:100990006B01C40ED51ECC15DD0569F06991D70138
:1009A000ED91FC910190F081E02DC7011995F3CFF5
:1009B000642F0E942804C801DF91CF911F910F91ED
:1009C000FF90EF90DF90CF900895CF93DF931F9229
:1009D000CDB7DEB76983209186032223F9F02091F9
:1009E000AC03203258F021E030E0FC013383228355
:1009F00090E080E00F90DF91CF9108958091AD035A
:100A0000E82FF0E0E957FC4F998190838F5F809346
:100A1000AD038093AC0381E090E0ECCF61E0CE01C8
:100A200001960E942804F7CFCF92DF92EF92FF92B7
:100A30000F931F93CF93DF93FC01C48121E0209398
:100A40008603C093A7031092AD031092AC03838575
:100A5000682B8FE594E00E94E504D091AC03D1327D
:100A600008F092C00E949A026B017C018091800381
:100A7000811165C082E08093800381E080937F03D1
:100A80008FEF80937E0310927D03D0937C03A7E8C1
:100A9000B3E0ECE5F3E080E0D81385C010925B038F
:100AA00080915B03CC0FC82BC0935B0380915A03EA
:100AB000813009F07CC010925A030E949A026B01A7
:100AC0007C0180915B038093BB00809182039091B5
:100AD0008303A0918403B0918503892B8A2B8B2BF0
:100AE00099F00E949A020091820310918303209151
:100AF0008403309185036C197D098E099F090617BF
:100B0000170728073907E0F18091BC0083FDD9CF92
:100B100085EC8093BC000E949A026B017C0180915D
:100B20008003823009F445C080917E038F3F61F1DC
:100B300080917E03803241F180917E0325C08091B7
:100B4000820390918303A0918403B0918503892B44
:100B50008A2B8B2B09F48ACF0E949A020091820380
:100B60001091830320918403309185036C197D09D2
:100B70008E099F09061717072807390708F076CF4F
:100B8000809181030E946D041092AD031092AC031A
:100B900010928603DF91CF911F910F91FF90EF90FC
:100BA000DF90CF9008959D9191938F5F75CF85EEE3
:100BB000B0CF8091820390918303A0918403B09180
:100BC0008503892B8A2B8B2B09F4A9CF0E949A02CB
:100BD0000091820310918303209184033091850357
:100BE0006C197D098E099F09061717072807390711
:100BF00008F095CFC5CF90E080E00895EF920F9375
:100C0000CF93DF93D62FC42F622F0E942402602F30
:100C10008D2F0E9424026E2D8C2FDF91CF910F918A
:100C2000EF900C9424020F931F93CF938C01C62F47
:100C30000E9414056C2F6460C8010E9414056C2F7B
:100C40006B7FC8010E94140583EC90E00197F1F7D7
:100C5000CF911F910F9108950F931F93CF93DF931F
:100C60008C01D62FC42F607F642B0E94130680E175
:100C7000D89FB00111246C2BC801DF91CF911F9137
:100C80000F910C941306CF93DF9300D000D01F92E6
:100C90001F92CDB7DEB798E0E8E0F2E0DE011196F2
:100CA00001900D929A95E1F790917304981708F4CA
:100CB0008FEF90E0880F991F21E030E02C0F3D1F4F
:100CC000820F931FFC016081606840E08BE694E036
:100CD00028960FB6F894DEBF0FBECDBFDF91CF913F
:100CE0000C942C0641E00E942C0681E090E00895CF
:100CF000FB0101900020E9F73197AF01461B570B2C
:100D0000DC01ED91FC910280F381E02D19948F922A
:100D10009F92AF92BF92EF92FF920F931F93CF9348
:100D2000DF93CDB7DEB7A1970FB6F894DEBF0FBE45
:100D3000CDBF7C01FA01CB0119A2223008F42AE0D0
:100D40008E010F5D1F4F822E912CB12CA12CBF0163
:100D5000A50194010E94BD0FF901CA016A300CF58A
:100D6000605DD8016E938D01232B242B252B79F701
:100D700090E080E0109721F0BD01C7010E94780645
:100D8000A1960FB6F894DEBF0FBECDBFDF91CF9115
:100D90001F910F91FF90EF90BF90AF909F908F9019
:100DA0000895695CDECFCF92DF92EF92FF92CF93EE
:100DB000DF936C01990FEE08FF08F7FE23C06DE288
:100DC00082EC93E00E948903EC0144275527BA0185
:100DD0004C195D096E097F092AE082EC93E00E94BC
:100DE0008706C80FD91F6CEC72E082EC93E00E947A
:100DF00078068C0F9D1FDF91CF91FF90EF90DF90D1
:100E0000CF9008952AE0B701A60182EC93E00E94FA
:100E10008706EC01E8CFEF92FF920F931F93CF93D9
:100E2000DF93CDB7DEB7CC58D1090FB6F894DEBF4B
:100E30000FBECDBF7C018CE8E0E1F2E0DE0111964F
:100E400001900D928A95E1F78AE0E816F10408F026
:100E50003FC0C7010E94D3068EE08E9D80018F9D0A
:100E6000100D1124E1E0F0E0EC0FFD1F0E0F1F1F2D
:100E7000F80160818DE20E942402F80162818CE217
:100E80000E942402F80164818BE20E942402F8018E
:100E900066818AE20E942402F801608589E20E944C
:100EA0002402F801628588E20E942402F801648528
:100EB00087E2C457DF4F0FB6F894DEBF0FBECDBF39
:100EC000DF91CF911F910F91FF90EF900C9424022E
:100ED000C7010E94D30661E08DE20E94240261E016
:100EE0008CE20E94240261E08BE20E94240261E015
:100EF0008AE20E94240261E089E20E94240261E009
:100F000088E20E94240260E0D3CF85ED8093BC008C
:100F10008091820390918303A0918403B091850313
:100F20000796A11DB11D23E0B695A79597958795C6
:100F30002A95D1F72091BC0024FD03C010928003B4
:100F400008954091820350918303609184037091CE
:100F50008503452B462B472B69F30097A105B10567
:100F600041F02AE22A95F1F700C00197A109B109E1
:100F7000E1CF809181030C946D041F920F920FB604
:100F80000F9211242F933F938F939F93AF93BF930F
:100F90008091BA039091BB03A091BC03B091BD03B3
:100FA0003091B90323E0230F2D3758F50196A11D89
:100FB000B11D2093B9038093BA039093BB03A09310
:100FC000BC03B093BD038091BE039091BF03A09179
:100FD000C003B091C1030196A11DB11D8093BE0352
:100FE0009093BF03A093C003B093C103BF91AF918F
:100FF0009F918F913F912F910F900FBE0F901F9057
:10100000189526E8230F0296A11DB11DD2CF1F927D
:101010000F920FB60F9211240BB60F922F933F939E
:101020004F935F936F937F938F939F93AF93BF93F0
:10103000EF93FF9382EC93E00E946703FF91EF919F
:10104000BF91AF919F918F917F916F915F914F91E0
:101050003F912F910F900BBE0F900FBE0F901F90DE
:1010600018951F920F920FB60F9211240BB60F9284
:101070002F938F939F93EF93FF93E091D203F0917F
:10108000D3038081E091D803F091D90382FD1DC084
:1010900090818091DB038F5F8F732091DC03821737
:1010A00041F0E091DB03F0E0EE53FC4F958F80932D
:1010B000DB03FF91EF919F918F912F910F900BBECA
:1010C0000F900FBE0F901F9018958081F2CF1F9246
:1010D0000F920FB60F9211240BB60F922F933F93DE
:1010E0004F935F936F937F938F939F93AF93BF9330
:1010F000EF93FF938091B900887F803609F44DC04B
:1011000008F040C0883209F4A9C028F5803109F4FC
:101110009DC0C8F4882309F4FBC0883009F496C048
:10112000FF91EF91BF91AF919F918F917F916F91BF
:101130005F914F913F912F910F900BBE0F900FBE7B
:101140000F901F901895883109F488C0803241F7BC
:1011500080937E0314C0803409F49DC040F4803332
:10116000B9F38833E9F680937E0385ECB0C080350F
:1011700009F485C0883509F496C0883489F60E9440
:101180008507CECF883909F48CC038F5883729F027
:1011900050F4883611F0803719F683E0809380038D
:1011A0001092590357C0883809F47BC0803919F070
:1011B000803809F0B5CF80915903803208F071C0B2
:1011C000E091590381E08E0F809359038091BB0019
:1011D000F0E0E75CFC4F80833DC0803B39F0E0F4F9
:1011E000803A09F479C0883A09F09ACF84E0809374
:1011F00080031092380310923703E091AA03F09114
:10120000AB0319958091370381110FC081E0809362
:1012100037031092170309C0803C09F4A6CF883C1D
:1012200009F4A3CF883B09F07BCFE091380381E03C
:101230008E0F80933803F0E0E95EFC4F808180934D
:10124000BB00909138038091370329C080915B03E4
:101250008093BB0085EC8093BC0062CF90917D03AE
:1012600080917C03981758F5E0917D0381E08E0F03
:1012700080937D03F0E0E45AFC4F8081E9CFE09158
:101280007D0381E08E0F80937D038091BB00F0E0B1
:10129000E45AFC4F808390917D0380917C039817E2
:1012A000C8F285E8D8CFE0917D0381E08E0F80936E
:1012B0007D038091BB00F0E0E45AFC4F8083809175
:1012C0007F0381115CCF81E080935A0384EA80938D
:1012D000BC001092800324CF85EC8093BC00109258
:1012E000800380915903803230F4E0915903F0E09B
:1012F000E75CFC4F10826091590370E0E091A80315
:10130000F091A90389E393E019951092590308CF4E
:1013100010927E0334CFE2ECF3E01382128288EE67
:1013200093E0A0E0B0E084839583A683B78320EAAE
:1013300032E03183208325EC30E03587248724ECAC
:1013400030E03787268720EC30E0318B208B21EC92
:1013500030E0338B228B22EC30E0358B248B26EC73
:1013600030E0378B268B118E128E138E148EEFE5A4
:10137000F4E01382128284839583A683B78382EB81
:1013800092E091838083EBE6F4E01382128284EC96
:1013900092E09183808387E2848384E1818784E083
:1013A000828713860895789484B5826084BD84B55D
:1013B000816084BD85B5826085BD85B5816085BD50
:1013C00080916E00816080936E0010928100809108
:1013D0008100826080938100809181008160809390
:1013E0008100809180008160809380008091B100B5
:1013F00084608093B1008091B00081608093B000E0
:101400008091910082608093910080919100816031
:1014100080939100809190008160809390008091F2
:10142000A10082608093A1008091A10081608093DF
:10143000A1008091A00081608093A0008091210193
:10144000826080932101809121018160809321013C
:101450008091200181608093200180917A008460D6
:1014600080937A0080917A00826080937A008091E4
:101470007A00816080937A0080917A0080688093FE
:101480007A001092C10060E085E20E94520260E0A2
:1014900084E20E94520260E083E20E94520260E015
:1014A00082E20E94520260E081E20E94520260E009
:1014B00080E20E94520260E08FE10E94520260E0EE
:1014C0008EE10E94520261E086E10E94520261E0D8
:1014D00087E10E94520261E088E10E94520261E0CD
:1014E0008DE20E94520261E08CE20E94520261E0B1
:1014F0008BE20E94520261E08AE20E94520261E0A5
:1015000089E20E94520261E088E20E94520261E098
:1015100087E20E94520261E089E10E94520261E08A
:101520008AE10E94520261E08BE10E94520261E076
:101530008DE20E94520261E08CE20E94520261E060
:101540008BE20E94520261E08AE20E94520261E054
:1015500089E20E94520261E088E20E94520261E048
:1015600087E20E94520260E086E10E94240260E06D
:1015700087E10E94240260E088E10E94240261E089
:101580008DE20E94240261E08CE20E94240261E06C
:101590008BE20E94240261E08AE20E94240261E060
:1015A00089E20E94240261E088E20E94240261E054
:1015B00087E20E94240260E089E10E94240260E048
:1015C0008AE10E94240260E08BE10E94240261E033
:1015D0008DE20E94240261E08CE20E94240261E01C
:1015E0008BE20E94240261E08AE20E94240261E010
:1015F00089E20E94240261E088E20E94240261E004
:1016000087E20E942402E091D203F091D30382E0AA
:101610008083E091CE03F091CF031082E091D0035C
:10162000F091D1038FEC80831092DA03E091D6031E
:10163000F091D70386E08083E091D403F091D50345
:10164000808180618083E091D403F091D503808113
:1016500088608083E091D403F091D5038081806815
:101660008083E091D403F091D50380818F7D8083C6
:101670001092AF031092AE031092AD031092AC0320
:101680000E944F0481EF92E09093AB038093AA03F2
:1016900082EF92E09093A9038093A80310927004C4
:1016A00080917504823018F098E0909370048093D4
:1016B000730462E370E080E090E00E94BF026091FA
:1016C00076048BE694E00E94140568EE73E080E0F7
:1016D00090E00E94BF0260E38BE694E00E94130654
:1016E000CBE4D6E4CE010197F1F760E38BE694E01A
:1016F0000E9413062197F1F760E38BE694E00E94C5
:10170000130683E592E00197F1F760E28BE694E03F
:101710000E94130660917004606240E08BE694E0E2
:101720000E942C0684E08093710440E06CE08BE61C
:1017300094E00E942C0640E061E08BE694E00E9479
:101740002C06CBE3DFE1CE010197F1F782E0809335
:10175000720440E066E08BE694E00E942C0640E0D4
:1017600062E08BE694E00E942C062197F1F788E076
:101770008093760460E08BE694E00E94140510925A
:10178000B8031092B703C1E085E0282E312C99E010
:10179000C92ED12C86E30E94830287E30E94830234
:1017A00088E30E94830288E30E94830285E20E940C
:1017B000FB015C01D1E0892B09F4D0E0D093B103A7
:1017C00084E20E94FB0183E20E94FB0182E20E940C
:1017D000FB0181E20E94FB0180E20E94FB018FE19C
:1017E0000E94FB018EE10E94FB01AB2849F0809131
:1017F000B003811105C08091B2038C278093B2039E
:10180000D093B0038FB7F8948090BA039090BB0345
:10181000A090BC03B090BD038FBF6090B7037090E1
:10182000B8032BE06216710408F0FFC0F3018827AB
:10183000E35EF34F8F4F0C94DF0F280C5A0E980E77
:10184000E80E390F1A0E690CA30C630DC50D750F48
:10185000E12C00E021E048E150E067E170E086E142
:1018600090E00E94FE0521E04BE150E06AE170E06B
:1018700089E190E00E94FE058FEF9FEF0E940B0729
:101880008091B3039091B403A091B503B091B603D6
:10189000A5019401281B390B4A0B5B0BDA01C90126
:1018A000883E9340A105B10508F4BFC08092B30300
:1018B0009092B403A092B503B092B6038091B203A4
:1018C0008111F5C186E090E09093B8038093B7034F
:1018D000ACC0E12C01E021E048E150E067E170E0BC
:1018E00086E190E00E94FE0500E021E04BE150E03F
:1018F0006AE170E089E190E00E94FE058FEF9FEFC2
:101900000E940B078091B3039091B403A091B5039B
:10191000B091B603A5019401281B390B4A0B5B0B50
:10192000DA01C901803D9740A105B10508F47DC0E9
:101930008092B3039092B403A092B503B092B60321
:1019400087E090E0C1CFEE24E39400E020E048E19E
:1019500050E067E170E086E190E00E94FE05E12C36
:1019600021E04BE150E06AE170E089E190E00E9403
:10197000FE058091B3039091B403A091B503B0919B
:10198000B6034091040250910502609106027091E5
:101990000702840F951FA61FB71FBC01CD0160561B
:1019A000704F8F4F9F4F681979098A099B0928EE5C
:1019B00033E040E050E00E94BD0FC9010E940B07D8
:1019C0008091B3039091B403A091B503B091B60395
:1019D000B501A401481B590B6A0B7B0B80910402D3
:1019E00090910502A0910602B0910702481759078D
:1019F0006A077B0770F08092B3039092B403A092C1
:101A0000B503B092B60388E090E09093B80380935A
:101A1000B70380EA9FE0A0E0B0E0809304029093D7
:101A20000502A0930602B093070240E061E08BE656
:101A300094E00E942C068BE39FE10197F1F780E090
:101A40000E9443066FEC72E08BE694E00E947806F9
:101A50008091B7039091B8038230910509F48AC24E
:101A60000CF07BC267ED72E0892B09F47EC281E045
:101A70000E9443066EEE72E08BE694E00E947806C8
:101A80004091B3035091B4036091B5037091B603D4
:101A900048515C4F6F4F7F4F2FB7F8948091BA0336
:101AA0009091BB03A091BC03B091BD032FBF481B15
:101AB000590B6A0B7B0B2AE08BE694E00E948706A9
:101AC0000E94F60367CE4090B3035090B403609039
:101AD000B5037090B603C501B40164197509860990
:101AE00097092AEF30E040E050E00E94BD0F2170DE
:101AF000E22E00E020E048E150E067E170E086E19E
:101B000090E00E94FE05E12C21E04BE150E06AE10B
:101B100070E089E190E00E94FE0590EA490E9FE0A6
:101B2000591E611C711CC301B201681979098A0927
:101B30009B0928EE33E040E050E00E94BD0FC90150
:101B40000E940B078091B3039091B403A091B50359
:101B5000B091B603A5019401281B390B4A0B5B0B0E
:101B6000DA01C901803D9740A105B10508F45DCFB8
:101B70008092B3039092B403A092B503B092B603DF
:101B8000D092B803C092B70350CFE12C01E020E01F
:101B900048E150E067E170E086E190E00E94FE05D8
:101BA00000E021E04BE150E06AE170E089E190E083
:101BB0000E94FE056091B3037091B4038091B50358
:101BC0009091B6036053784F8F4F9F4F68197909F2
:101BD0008A099B0928EE33E040E050E00E94BD0FE7
:101BE000C9010E940B078091B3039091B403A091A7
:101BF000B503B091B603A5019401281B390B4A0B1C
:101C00005B0BDA01C901883E9340A105B10508F4D8
:101C10000CCF8FEF9FEF0E940B078092B30390923F
:101C2000B403A092B503B092B6033092B8032092E9
:101C3000B703FBCEE12C00E021E048E150E067E192
:101C400070E086E190E00E94FE0521E04BE150E06B
:101C50006AE170E089E190E00E94FE058FEF9FEF5E
:101C60000E940B078091B3039091B403A091B50338
:101C7000B091B603A5019401281B390B4A0B5B0BED
:101C8000DA01C901883E9340A105B10508F4CDCE23
:101C90008092B3039092B403A092B503B092B603BE
:101CA0008091B203811103C081E090E00DCE8AE003
:101CB00090E00ACEE12C00E021E048E150E067E14D
:101CC00070E086E190E00E94FE0501E021E04BE13A
:101CD00050E06AE170E089E190E00E94FE058FEF3C
:101CE0009FEF0E940B078091B3039091B403A091E2
:101CF000B503B091B603A5019401281B390B4A0B1B
:101D00005B0BDA01C901803D9740A105B10508F4DC
:101D10008CCE8092B3039092B403A092B503B0929C
:101D2000B60342E050E05093B8034093B7037DCE32
:101D3000E12C00E021E048E150E067E170E086E15D
:101D400090E00E94FE05EE24E39420E04BE150E099
:101D50006AE170E089E190E00E94FE058FEF9FEF5D
:101D60000E940B078091B3039091B403A091B50337
:101D7000B091B603B501A401481B590B6A0B7B0B4C
:101D80008091000290910102A0910202B0910302A1
:101D9000481759076A077B0770F08092B303909247
:101DA000B403A092B503B092B60383E090E09093A1
:101DB000B8038093B70320EA3FE040E050E020936F
:101DC00000023093010240930202509303022DCE91
:101DD000E12C00E021E048E150E067E170E086E1BD
:101DE00090E00E94FE058091B3039091B403A0910E
:101DF000B503B091B603A5019401281B390B4A0B1A
:101E00005B0BCA01B9012AEF30E040E050E00E94CC
:101E1000BD0F2170E22E20E04BE150E06AE170E05E
:101E200089E190E00E94FE058FEF9FEF0E940B0773
:101E30008091B3039091B403A091B503B091B60320
:101E4000A5019401281B390B4A0B5B0BDA01C90170
:101E5000803D9740A105B10508F4E7CD8092B3031A
:101E60009092B403A092B503B092B60344E050E060
:101E70005ACFE12C00E021E048E150E067E170E05A
:101E800086E190E00E94FE0501E020E04BE150E099
:101E90006AE170E089E190E00E94FE058FEF9FEF1C
:101EA0000E940B078091B3039091B403A091B503F6
:101EB000B091B603A5019401281B390B4A0B5B0BAB
:101EC000DA01C901883E9340A105B10508F4ADCD02
:101ED0008092B3039092B403A092B503B092B6037C
:101EE0001092B8031092B703A0CD8091B3039091E4
:101EF000B403A091B503B091B603A5019401281BCA
:101F0000390B4A0B5B0BCA01B9012AEF30E040E004
:101F100050E00E94BD0FD22FD170E12C0D2F20E098
:101F200048E150E067E170E086E190E00E94FE0544
:101F300000E02D2F4BE150E06AE170E089E190E094
:101F40000E94FE058091B203811102C0712C612CA8
:101F50007092B8036092B70368CD8430910519F090
:101F6000099709F084CD6DED72E08BE694E00E9454
:101F700078067DCD67EE72E0F8CFA1E21A2EAA1B9B
:101F8000BB1BFD010DC0AA1FBB1FEE1FFF1FA21729
:101F9000B307E407F50720F0A21BB30BE40BF50B26
:101FA000661F771F881F991F1A9469F760957095AF
:101FB000809590959B01AC01BD01CF010895EE0F76
:101FC000FF1F881F8BBF0790F691E02D1994F8949E
:021FD000FFCF41
:101FD200D0070000D00700000000400014005400A9
:101FE20000000000000000000000000001000100ED
:101FF20000000000010001000100010000000000DB
:1020020001000000000001000000000000000000CC
:1020120000000100010000000100000000000100BA
:1020220001000000000000000100000000000100AB
:10203200000000000000010000000000000000009D
:10204200000000000000000001000100010001008A
:10205200000000000000000000000000000000007E
:10206200000000000000010000000000000000006D
:102072008903F3022003D60351032F034303000015
:102082000000E504B804FB058E04B1049E048F042D
:10209200000000007206F302FB0527040D0A00454A
:1020A200737461646F3A0020524F4A4F0020414DD1
:1020B2004152494C4C4F0020564552444500546908
:0620C200656D706F3A002D
:00000001FF
