:100000000C9475010C94A6010C94A6010C94A60105
:100010000C94A6010C94A6010C94A6010C94A601C4
:100020000C94A6010C94A6010C94A6010C94A601B4
:100030000C94A6010C94A6010C94A6010C94A601A4
:100040000C94A6010C94A6010C94A6010C94A60194
:100050000C94A6010C94A6010C94A6010C947D08A6
:100060000C94A6010C94F1080C94C7080C94A601FA
:100070000C94A6010C94A6010C94A6010C94A60164
:100080000C94A6010C94A6010C94A6010C94A60154
:100090000C94A6010C94A6010C94A6010C942709BB
:1000A0000C94A6010C94A6010C94A6010C94A60134
:1000B0000C94A6010C94A6010C94A6010C94A60124
:1000C0000C94A6010C94A6010C94A6010C94A60114
:1000D0000C94A6010C94A6010C94A6010C94A60104
:1000E0000C94A6010C94D8010C9418040C94F802FA
:1000F0000C94E1010C94F3010C94C4050C94C11010
:100100000C94880E0C9407020C94D7050C948D1156
:100110000C9446040C9484100C94FD010C9455042A
:100120000C94D4010C94F9010C94D0010C94730339
:100130000C94B5050C94B4050C948E0A0C940B0227
:100140000C9469040C9415030C9419040C94EB01A1
:100150000C94FB100C94CC010C94DB0F0C944D050B
:100160000C94730F0C9446030C94DB010C94EF0178
:100170000C9404030C9406020C944F030C946C032F
:100180000C9448030C9449110C94C9110C94C601A9
:100190000C945B030C94FC040C9439100C9417041D
:1001A0000C9477040C94AF040C94E5010C940102B8
:1001B0000C940B060C942B030C94390F0C94210710
:1001C0000C943F080C94DE05000021002400270059
:1001D0002A002D0030003300010100000401070156
:1001E0000A0100002200250028002B002E0031000B
:1001F000340002010000050108010B01000020008D
:100200002300260029002C002F00320000010000EE
:100210000301060109010505050507050808080889
:10022000020202020A0A080804040404010101018E
:100230000101010103030303030303030407070789
:100240000C0C0C0C0C0C0C0C02020202060606062E
:10025000060606060B0B0B0B0B0B0B0B01021020FB
:1002600020080810204010204080020102010804EC
:100270000201010204081020408080402010080480
:1002800002018004020180402010080402010804D9
:10029000020101020408102040800102040810201D
:1002A000408000000A0B02090C0D0E080703040130
:1002B000000000000000000000000000000000003E
:1002C000000000000000000000000000000012110B
:1002D000100000000000000000000000000000000E
:1002E00000000000000000008E0A11241FBECFEFA6
:1002F000D1E2DEBFCDBF00E00CBF12E0A0E0B2E073
:10030000E6E0F5E200E00BBF02C007900D92A83FC7
:10031000B107D9F724E0A8EFB2E001C01D92A73CD5
:10032000B207E1F711E0C5E7D1E000E006C0219790
:100330000109802FFE010E946512C437D10780E0B9
:100340000807A9F70E94410B0C9481120C9400003D
:100350008150823108F05AC0E82FF0E08827EC5431
:10036000FE4F8F4F0C946512D401D801C601CC0109
:10037000D0010602DB01E101E501EB01EF01F30130
:10038000F901FD010602010207020B0280918000C3
:100390008F77809380000895809180008F7DF9CFC2
:1003A00080918000877FF5CF84B58F7784BD0895D5
:1003B00084B58F7DFBCF8091B0008F778093B000A4
:1003C00008958091B0008F7DF9CF809190008F7754
:1003D000809390000895809190008F7DF9CF809157
:1003E0009000877FF5CF8091A0008F778093A00049
:1003F00008958091A0008F7DF9CF8091A000877F24
:10040000F5CF809120018F7780932001089580910E
:1004100020018F7DF9CF80912001877FF5CFCF9389
:10042000DF93282F30E0F901EE55FD4F8491F9015B
:10043000E45AFD4FD491F901EA5EFD4FC491CC23FB
:10044000A1F081110E94A801EC2FF0E0EE0FFF1F38
:10045000E450FE4FA591B491EC91ED2381E090E042
:1004600009F480E0DF91CF91089580E090E0FACF29
:100470001F93CF93DF93282F30E0F901EE55FD4F06
:100480008491F901E45AFD4FD491F901EA5EFD4FE0
:10049000C491CC23A9F0162F81110E94A801EC2F42
:1004A000F0E0EE0FFF1FEE51FE4FA591B4918FB714
:1004B000F894EC91111108C0D095DE23DC938FBF26
:1004C000DF91CF911F910895DE2BF8CFCF93DF936B
:1004D000EC018091770490917804029749F4C1303F
:1004E000D10509F43DC07CF560E0209709F439C0DE
:1004F0008091770490917804049749F4C130D10534
:1005000009F45EC00CF039C0209709F444C0809112
:10051000770490917804059709F0E7C0CA30D105B7
:1005200008F0E3C0FE018827E756FD4F8F4F0C947B
:100530006512F802040315032B03460348034F0317
:100540005B036C037303C230D105A9F060E0C330D4
:10055000D10571F680917B040E94380260E006C0EC
:1005600061E080917B040E94380261E080917D040B
:100570000E943802BDCF61E0EDCFC230D10539F124
:10058000C330D10509F0C3CF61E080917B040E94A4
:10059000380260E022C061E080917B040E94380252
:1005A00060E080917D040E94380261E080917F04C8
:1005B0000E94380260E0809181040E943802A7CF37
:1005C00060E080917B040E94380261E0EACF60E045
:1005D00080917B040E94380261E080917D040E943A
:1005E000380260E080917F040E94380261E0E3CF2E
:1005F00060E080917B040E94380261E080917D047C
:100600000E94380261E00BC060E080917B040E9490
:10061000380261E080917D040E94380260E08091A0
:100620007F040E94380260E010C060E080917B048B
:100630000E94380261E080917D040E94380260E0EF
:1006400080917F040E94380261E0809181040E94C1
:10065000380261E015C060E080917B040E9438029E
:1006600061E080917D040E94380260E080917F0407
:100670000E94380261E0809181040E94380260E0AB
:1006800080918304DF91CF910C94380261E0E4CF34
:1006900061E080917B040E94380260E0E2CF61E07B
:1006A00080917B040E94380260E080917D040E946A
:1006B000380261E0DBCF61E080917B040E94380268
:1006C00060E080917D040E94380261E080917F04A7
:1006D0000E94380260E0CFCF61E080917B040E94ED
:1006E000380260E08BCF60E0F8CFDF91CF910895C2
:1006F000CF93DF9390E0FC01E45AFD4F24918A5E92
:100700009D4FFC0184918823D1F090E0880F991FC0
:10071000FC01E853FE4FA591B491FC01EE51FE4F50
:10072000C591D49161110EC09FB7F8948C91E22FBE
:10073000E0958E238C932881E223E8839FBFDF918D
:10074000CF9108958FB7F894EC91E22BEC938FBF83
:10075000F6CF90917B00977F90937B0086538064C7
:1007600080937C0080917A00806480937A008091ED
:100770007A0086FDFCCF80917800909179000895F1
:100780003FB7F8948091C2039091C303A091C40332
:10079000B091C50326B5A89B05C02F3F19F001965F
:1007A000A11DB11D3FBFBA2FA92F982F8827BC01CB
:1007B000CD01620F711D811D911D42E0660F771FF3
:1007C000881F991F4A95D1F708958F929F92AF92F3
:1007D000BF92CF92DF92EF92FF924B015C010E9499
:1007E000C0036B017C010E94C0036C197D098E0956
:1007F0009F09683E734081059105A8F321E0821AA4
:100800009108A108B10888EEC80E83E0D81EE11C4B
:10081000F11C81149104A104B10429F7FF90EF9019
:10082000DF90CF90BF90AF909F908F9008950895E4
:100830000895AF92BF92CF92DF92EF92FF920F9303
:100840001F93CF93DF936C017B018B01040F151F66
:10085000EB015E01AE18BF08C017D10759F06991CE
:10086000D601ED91FC910190F081E02DC601199522
:10087000892B79F7C501DF91CF911F910F91FF90DF
:10088000EF90DF90CF90BF90AF900895FC01538D13
:10089000448D252F30E0842F90E0821B930B54175A
:1008A00010F0CF96089501970895FC01918D828DE7
:1008B000981761F0A28DAE0FBF2FB11D5D968C9180
:1008C000928D9F5F9F73928F90E008958FEF9FEFBF
:1008D0000895FC01918D828D981731F0828DE80F7B
:1008E000F11D858D90E008958FEF9FEF0895FC0135
:1008F000918D228D892F90E0805C9F4F821B910902
:100900008F739927089586EC93E00E94770421E085
:10091000892B09F420E0822F0895FC01A48DA80FF3
:10092000B92FB11DA35ABF4F2C91848D90E0019631
:100930008F739927848FA689B7892C93A089B18951
:100940008C91837080648C93938D848D981306C0F2
:100950000288F389E02D80818F7D80830895EF9256
:10096000FF920F931F93CF93DF93EC0181E0888F69
:100970009B8D8C8D98131AC0E889F989808185FF39
:1009800015C09FB7F894EE89FF896083E889F989DB
:1009900080818370806480839FBF81E090E0DF91DD
:1009A000CF911F910F91FF90EF900895F62E0B8D30
:1009B00010E00F5F1F4F0F731127E02E8C8D8E11EB
:1009C0000CC00FB607FCFACFE889F989808185FF52
:1009D000F5CFCE010E948D04F1CFEB8DEC0FFD2FF2
:1009E000F11DE35AFF4FF0829FB7F8940B8FEA890D
:1009F000FB8980818062CFCFCF93DF93EC01888D1C
:100A00008823B9F0AA89BB89E889F9898C9185FD89
:100A100003C0808186FD0DC00FB607FCF7CF8C9117
:100A200085FFF2CF808185FFEDCFCE010E948D043E
:100A3000E9CFDF91CF91089580E090E0892B29F0F4
:100A40000E94830481110E94000080E090E0892BC5
:100A500049F080E090E0892B29F00E94000081118C
:100A60000E94000080E090E0892B49F080E090E057
:100A7000892B29F00E94000081110E94000080E073
:100A800090E0892B49F080E090E0892B29F00E94CA
:100A9000000081110C9400000895089520913903FD
:100AA000260F3327331F21323105ECF420918203C6
:100AB000FC0190E080E0243069F082E00895A0918C
:100AC00039032191AC01475E5C4FA40FB52FB11DD6
:100AD0002C930196861798F380913903680F6093E1
:100AE000390380E0089581E008951092820381E047
:100AF0008093810310925C0361E084E10E943802DC
:100B000061E085E10E943802E9EBF0E080818E7FB0
:100B1000808380818D7F808388E48093B80085E422
:100B20008093BC000895CF93DF9391E090931803D6
:100B30008823B9F0C091B800D091BA008091BC0070
:100B40008A7B8093BC0060E084E10E94380260E010
:100B500085E10E9438020E947505D093BA00C093C7
:100B6000B800DF91CF9108950895E091B10380918D
:100B7000B003E81730F4F0E0E850FD4F808190E0DA
:100B800008958FEF9FEF08959091B1038091B00386
:100B90002FEF3FEF981748F4E92FF0E0E850FD4FB2
:100BA000208130E09F5F9093B103C9010895809147
:100BB000B0039091B103891B990B0895CF92DF92F6
:100BC000EF92FF920F931F93CF93DF937C01CB01A2
:100BD0008A0120918803222389F0EB016B01C40E66
:100BE000D51ECC15DD0569F06991D701ED91FC9119
:100BF0000190F081E02DC7011995F3CF642F0E9479
:100C00004E05C801DF91CF911F910F91FF90EF909A
:100C1000DF90CF900895CF93DF931F92CDB7DEB7CB
:100C20006983209188032223F9F02091AE032032BA
:100C300058F021E030E0FC013383228390E080E033
:100C40000F90DF91CF9108958091AF03E82FF0E0EE
:100C5000E757FC4F998190838F5F8093AF03809318
:100C6000AE0381E090E0ECCF61E0CE0101960E94FE
:100C70004E05F7CFCF92DF92EF92FF920F931F9323
:100C8000CF93DF93FC01C48121E020938803C093BC
:100C9000A9031092AF031092AE038385682B83E6FD
:100CA00094E00E940B06D091AE03D13208F092C0BE
:100CB0000E94C0036B017C0180918203811165C099
:100CC00082E08093820381E0809381038FEF8093A1
:100CD000800310927F03D0937E03A9E8B3E0EEE592
:100CE000F3E080E0D81385C010925D0380915D032E
:100CF000CC0FC82BC0935D0380915C03813009F059
:100D00007CC010925C030E94C0036B017C01809147
:100D10005D038093BB008091840390918503A09133
:100D20008603B0918703892B8A2B8B2B99F00E9425
:100D3000C0030091840310918503209186033091B4
:100D400087036C197D098E099F0906171707280765
:100D50003907E0F18091BC0083FDD9CF85EC809309
:100D6000BC000E94C0036B017C0180918203823031
:100D700009F445C0809180038F3F61F18091800329
:100D8000803241F18091800325C08091840390914D
:100D90008503A0918603B0918703892B8A2B8B2B27
:100DA00009F48ACF0E94C003009184031091850347
:100DB00020918603309187036C197D098E099F0964
:100DC000061717072807390708F076CF80918303A5
:100DD0000E9493051092AF031092AE031092880305
:100DE000DF91CF911F910F91FF90EF90DF90CF9007
:100DF00008959D9191938F5F75CF85EEB0CF8091CF
:100E0000840390918503A0918603B0918703892B79
:100E10008A2B8B2B09F4A9CF0E94C0030091840375
:100E20001091850320918603309187036C197D0909
:100E30008E099F09061717072807390708F095CF6D
:100E4000C5CF90E080E008950F931F93CF93DF9379
:100E5000CDB7DEB7CC58D1090FB6F894DEBF0FBEC0
:100E6000CDBF2CE8E0E0F2E0DE01119601900D929A
:100E70002A95E1F78A309105D0F52EE0289F800170
:100E8000299F100D112481E090E08C0F9D1F080F09
:100E9000191FF80160818DE20E943802F801628119
:100EA0008CE20E943802F80164818BE20E943802D1
:100EB000F80166818AE20E943802F801608589E2C1
:100EC0000E943802F801628588E20E943802F80127
:100ED000648587E2C457DF4F0FB6F894DEBF0FBEBC
:100EE000CDBFDF91CF911F910F910C94380261E03B
:100EF0008DE20E94380261E08CE20E94380261E0DB
:100F00008BE20E94380261E08AE20E94380261E0CE
:100F100089E20E94380261E088E20E94380260E0C3
:100F2000D8CFEF920F93CF93DF93D62FC42F622F9A
:100F30000E943802602F8D2F0E9438026E2D8C2F58
:100F4000DF91CF910F91EF900C943802DC011A964B
:100F50008C911A97882369F019968C911997882398
:100F6000F9F018968C91189730E020E0882319F05A
:100F7000089522E030E0220F331FFD01E20FF31F3E
:100F80004385548528EE33E0429FC001439F900D76
:100F9000529F900D112417969C938E931697E8CF2D
:100FA00021E030E0E8CFFC0101900020E9F7319723
:100FB000AF01481B590BBC018BEB94E00C94190456
:100FC0000F931F93CF938C01C62F0E943A066C2F6C
:100FD0006460C8010E943A066C2F6B7FC8010E94B2
:100FE0003A0683EC90E00197F1F7CF911F910F91B2
:100FF00008950F931F93CF93DF938C01D62FC42FA7
:10100000607F642B0E94E00780E1D89FB00111242B
:101010006C2BC801DF91CF911F910F910C94E007C9
:10102000CF93DF9300D000D01F921F92CDB7DEB7D1
:1010300098E0ECE8F2E0DE01119601900D929A95AD
:10104000E1F79091C304981708F48FEF90E0880FB0
:10105000991F21E030E02C0F3D1F820F931FFC01F0
:101060006081606840E08BEB94E028960FB6F894BE
:10107000DEBF0FBECDBFDF91CF910C94F90741E0E9
:101080000E94F90781E090E0089585ED8093BC000F
:101090008091840390918503A0918603B09187038A
:1010A0000796A11DB11D23E0B695A7959795879545
:1010B0002A95D1F72091BC0024FD03C01092820331
:1010C0000895409184035091850360918603709147
:1010D0008703452B462B472B69F30097A105B105E4
:1010E00041F02AE22A95F1F700C00197A109B10960
:1010F000E1CF809183030C9493051F920F920FB65A
:101100000F9211242F933F938F939F93AF93BF938D
:101110008091BE039091BF03A091C003B091C10321
:101120003091BD0323E0230F2D3758F50196A11D03
:10113000B11D2093BD038093BE039093BF03A09382
:10114000C003B093C1038091C2039091C303A091E7
:10115000C403B091C5030196A11DB11D8093C203C4
:101160009093C303A093C403B093C503BF91AF9101
:101170009F918F913F912F910F900FBE0F901F90D5
:10118000189526E8230F0296A11DB11DD2CF1F92FC
:101190000F920FB60F9211240BB60F922F933F931D
:1011A0004F935F936F937F938F939F93AF93BF936F
:1011B000EF93FF9386EC93E00E948D04FF91EF91F3
:1011C000BF91AF919F918F917F916F915F914F915F
:1011D0003F912F910F900BBE0F900FBE0F901F905D
:1011E00018951F920F920FB60F9211240BB60F9203
:1011F0002F938F939F93EF93FF93E091D603F091FA
:10120000D7038081E091DC03F091DD0382FD1DC0F6
:1012100090818091DF038F5F8F732091E0038217AD
:1012200041F0E091DF03F0E0EA53FC4F958F8093AB
:10123000DF03FF91EF919F918F912F910F900BBE44
:101240000F900FBE0F901F9018958081F2CF1F92C4
:101250000F920FB60F9211240BB60F922F933F935C
:101260004F935F936F937F938F939F93AF93BF93AE
:10127000EF93FF938091B900887F803609F44DC0C9
:1012800008F040C0883209F4A9C028F5803109F47B
:101290009DC0C8F4882309F4FBC0883009F496C0C7
:1012A000FF91EF91BF91AF919F918F917F916F913E
:1012B0005F914F913F912F910F900BBE0F900FBEFA
:1012C0000F901F901895883109F488C0803241F73B
:1012D0008093800314C0803409F49DC040F48033AF
:1012E000B9F38833E9F68093800385ECB0C080358C
:1012F00009F485C0883509F496C0883489F60E94BF
:101300004508CECF883909F48CC038F5883729F0E4
:1013100050F4883611F0803719F683E08093820309
:1013200010925B0357C0883809F47BC0803919F0EC
:10133000803809F0B5CF80915B03803208F071C02E
:10134000E0915B0381E08E0F80935B038091BB0093
:10135000F0E0E55CFC4F80833DC0803B39F0E0F479
:10136000803A09F479C0883A09F09ACF84E08093F2
:10137000820310923A0310923903E091AC03F0918A
:10138000AD0319958091390381110FC081E08093DD
:1013900039031092190309C0803C09F4A6CF883C98
:1013A00009F4A3CF883B09F07BCFE0913A0381E0B9
:1013B0008E0F80933A03F0E0E75EFC4F80818093CC
:1013C000BB0090913A038091390329C080915D035D
:1013D0008093BB0085EC8093BC0062CF90917F032B
:1013E00080917E03981758F5E0917F0381E08E0F7E
:1013F00080937F03F0E0E25AFC4F8081E9CFE091D7
:101400007F0381E08E0F80937F038091BB00F0E02B
:10141000E25AFC4F808390917F0380917E0398175E
:10142000C8F285E8D8CFE0917F0381E08E0F8093EA
:101430007F038091BB00F0E0E25AFC4F80838091F3
:10144000810381115CCF81E080935C0384EA809307
:10145000BC001092820324CF85EC8093BC001092D4
:10146000820380915B03803230F4E0915B03F0E013
:10147000E55CFC4F108260915B0370E0E091AA0391
:10148000F091AB038BE393E0199510925B0308CFC7
:101490001092800334CFCF93DF93FC01DB018D9159
:1014A0009C91119791838083108612968D919C91C7
:1014B000139793838283118614968D919C919583C3
:1014C000848312861486138616861586108A1786DC
:1014D000128A118A148A138A168A158A108E178A1C
:1014E00017821682DF0190E080E0009751F41486A5
:1014F00013860196129687309105B9F7DF91CF9147
:101500000895EC01CE7FCE0FDF1F2B853C852F5F2A
:101510003F4F1C963C932E931B97EBCF0F931F933B
:10152000CF93DF9300D000D0CDB7DEB7E6ECF3E089
:101530001382128288EE93E0A0E0B0E0848395836A
:10154000A683B78324EA32E03183208325EC30E0A0
:101550003587248724EC30E03787268720EC30E07D
:10156000318B208B21EC30E0338B228B22EC30E06E
:10157000358B248B26EC30E0378B268B118E128E28
:10158000138E148EE3E6F4E0138212828483958333
:10159000A683B78386EB92E091838083EBEBF4E044
:1015A0001382128288EC92E09183808387E28483A5
:1015B00084E1818784E08287138686E0E4E9F2E0B3
:1015C000DE01119601900D928A95E1F7BE016F5FE1
:1015D0007F4F82EA94E00E944B0A86E0EAE9F2E05B
:1015E000DE01119601900D928A95E1F7BE016F5FC1
:1015F0007F4F89E894E00E944B0A0FE614E0F8015F
:101600001386128611821082168A178A108E118E06
:1016100088E691E09783868388E090E095878487C9
:1016200089E090E0978786878AE090E0918B808BB5
:101630008BE090E0938B828B61E088E00E947803DE
:1016400061E0F80186850E94780361E0F8018089F5
:101650000E94780361E0F80182890E947803F80112
:10166000158A148A84E090E09187808726960FB6C9
:10167000F894DEBF0FBECDBFDF91CF911F910F91C8
:101680000895CF93DF93CDB7DEB7A5970FB6F89443
:10169000DEBF0FBECDBF789484B5826084BD84B5B3
:1016A000816084BD85B5826085BD85B5816085BD5D
:1016B00080916E00816080936E0010928100809115
:1016C000810082608093810080918100816080939D
:1016D0008100809180008160809380008091B100C2
:1016E00084608093B1008091B00081608093B000ED
:1016F000809191008260809391008091910081603F
:1017000080939100809190008160809390008091FF
:10171000A10082608093A1008091A10081608093EC
:10172000A1008091A00081608093A00080912101A0
:101730008260809321018091210181608093210149
:101740008091200181608093200180917A008460E3
:1017500080937A0080917A00826080937A008091F1
:101760007A00816080937A0080917A00806880930B
:101770007A001092C10060E085E20E94780360E088
:1017800084E20E94780361E086E10E94780361E0D0
:1017900087E10E94780361E088E10E94780361E0BC
:1017A0008DE20E94780361E08CE20E94780361E0A0
:1017B0008BE20E94780361E08AE20E94780361E094
:1017C00089E20E94780361E088E20E94780361E088
:1017D00087E20E94780361E089E10E94780361E07A
:1017E0008AE10E94780361E08BE10E94780361E066
:1017F0008DE20E94780361E08CE20E94780361E050
:101800008BE20E94780361E08AE20E94780361E043
:1018100089E20E94780361E088E20E94780361E037
:1018200087E20E94780360E086E10E94380260E06F
:1018300087E10E94380260E088E10E94380261E09E
:101840008DE20E94380261E08CE20E94380261E081
:101850008BE20E94380261E08AE20E94380261E075
:1018600089E20E94380261E088E20E94380261E069
:1018700087E20E94380260E089E10E94380260E05D
:101880008AE10E94380260E08BE10E94380261E048
:101890008DE20E94380261E08CE20E94380261E031
:1018A0008BE20E94380261E08AE20E94380261E025
:1018B00089E20E94380261E088E20E94380261E019
:1018C00087E20E94380260E08091A2040E947803BF
:1018D00060E08091A4040E94780360E08091A604F7
:1018E0000E94780360E0809189040E94780360E0A0
:1018F00080918B040E94780360E080918D040E94A7
:1019000078032091750430917604032E000C440B6B
:10191000550B60E077E883E993E00E944612CA0124
:10192000B9012CE330E040E050E00E9446122093E1
:101930007104309372044093730450937404E091E3
:10194000D603F091D70382E08083E091D203F09137
:10195000D3031082E091D403F091D5038FEC808300
:101960001092DE03E091DA03F091DB0386E08083DE
:10197000E091D803F091D903808180618083E09168
:10198000D803F091D903808188608083E091D803E7
:10199000F091D903808180688083E091D803F09131
:1019A000D90380818F7D80831092B1031092B003A0
:1019B0001092AF031092AE030E94750587E194E088
:1019C0009093AD038093AC0388E194E09093AB03D4
:1019D0008093AA031092C0048091C504823018F04D
:1019E00098E09093C0048093C30462E370E080E0C9
:1019F00090E00E94E5036091C6048BEB94E00E94A6
:101A00003A0668EE73E080E090E00E94E50360E350
:101A10008BEB94E00E94E0070BE416E4C801019709
:101A2000F1F760E38BEB94E00E94E007C8010197B7
:101A3000F1F760E38BEB94E00E94E00783E592E02E
:101A40000197F1F760E28BEB94E00E94E007609170
:101A5000C004606240E08BEB94E00E94F90784E0F0
:101A60008093C10440E06CE08BEB94E00E94F907A6
:101A700040E061E08BEB94E00E94F9070BE31FE18B
:101A8000C8010197F1F782E08093C20440E066E06C
:101A90008BEB94E00E94F90740E062E08BEB94E06E
:101AA0000E94F907C8010197F1F788E08093C60406
:101AB00060E08BEB94E00E943A061092BC03109217
:101AC000BB03FF24F3945AE0252E312C64E0C62E8C
:101AD000D12C86E30E94A90387E30E94A90388E32F
:101AE0000E94A9035C019093B5038093B40388E33B
:101AF0000E94A90385E20E940F028C01992493940D
:101B0000892B09F4912C9092B30384E20E940F0276
:101B1000012B49F08091B203811105C08091B60379
:101B20008F258093B6039092B20342EA842E44E05C
:101B3000942E0AEA14E0D4018C91B2E08B0E911C31
:101B40000E940F0221E0892B09F420E0F801219383
:101B50008F0128EA34E02815390569F739E8832E22
:101B600034E0932E01E914E0D4018C91B2E08B0EA5
:101B7000911C0E940F0221E0892B09F420E0F8015A
:101B800021938F012FE834E02815390569F71A14DD
:101B90001B0404F52091750430917604032E000C8B
:101BA000440B550B60E077E883E993E00E9446120E
:101BB000CA01B901B594A7949501BB0C440B550B10
:101BC0000E94461220937104309372044093730470
:101BD0005093740441E050E05093700440936F04BC
:101BE00088E6682E772473946114710409F46AC03E
:101BF0000E94C003009185041091860420918704FF
:101C0000309188044B015C01801A910AA20AB30A40
:101C10000091710410917204209173043091740446
:101C200080169106A206B306F8F2609385047093BD
:101C3000860480938704909388048091790490911E
:101C40007A0420916F04309170042130310531F510
:101C5000019690937A0480937904209175043091D1
:101C600076048217930721F410927A041092790473
:101C700051E0651A71088091790490917A0420915D
:101C8000770430917804B1012530310511F064E01A
:101C900070E00E9410120E946602A6CF892B41F4C8
:101CA000809175049091760490937A0480937904DE
:101CB0008091790490917A04019790937A048093AB
:101CC0007904D6CF8FB7F8948090BE039090BF036D
:101CD000A090C003B090C1038FBF4090BB03509051
:101CE000BC038BE04816510408F05CC0F201882761
:101CF000E358F14F8F4F0C946512880EC110FB1002
:101D000049118D118410390F730FDB0F3910C91170
:101D1000E12C00E021E048E150E067E170E086E17D
:101D200090E00E94910721E04BE150E06AE170E011
:101D300089E190E00E9491078FEF9FEF0E942407B6
:101D40008091B7039091B803A091B903B091BA0301
:101D5000A5019401281B390B4A0B5B0BDA01C90161
:101D6000883E9340A105B105A8F08092B7039092F8
:101D7000B803A092B903B092BA038091B603882346
:101D800019F08AE090E002C086E090E09093BC03F6
:101D90008093BB0382EA94E00E94A60789E894E05E
:101DA0000E94A60740E061E08BEB94E00E94F907F7
:101DB0008BE39FE10197F1F780E00E94100880ED2E
:101DC00092E00E94D3078091BB039091BC038230C4
:101DD000910509F422C30CF012C3892B09F418C32E
:101DE00081E00E9410088FEE92E00E94D3072091BC
:101DF000B7033091B8034091B9035091BA03285109
:101E00003C4F4F4F5F4F6FB7F8948091BE03909156
:101E1000BF03A091C003B091C1036FBF281B390B52
:101E20004A0B5B0B19A28E010F5D1F4FCA01B9014E
:101E30002AE030E040E050E00E942412605DD801CA
:101E40006E938D01211531054105510579F71097E4
:101E500069F0FD0101900020E9F73197AF014A1BBD
:101E60005B0BBD018BEB94E00E9419040E941C05E2
:101E700030CEE12C01E021E048E150E067E170E084
:101E800086E190E00E94910700E021E04BE150E004
:101E90006AE170E089E190E00E9491078FEF9FEF87
:101EA0000E9424078091B7039091B803A091B903D1
:101EB000B091BA03A5019401281B390B4A0B5B0BA7
:101EC000DA01C901803D9740A105B10508F462CF50
:101ED0008092B7039092B803A092B903B092BA036C
:101EE00087E090E053CFEE24E39400E020E048E167
:101EF00050E067E170E086E190E00E949107E12CFC
:101F000021E04BE150E06AE170E089E190E00E945D
:101F100091074090B7035090B8036090B903709058
:101F2000BA03C301B2016059784E8F4F9F4F0091A1
:101F30008F0410919004012E000C220B330B600FC4
:101F4000711F821F931F681979098A099B0928EE5E
:101F500033E040E050E00E942412C9010E942407AF
:101F6000B501A40144195509660977098091A804AF
:101F70009091A904092E000CAA0BBB0B8053984F1B
:101F8000AF4FBF4F481759076A077B0708F406CFC2
:101F90008092B7039092B803A092B903B092BA03AB
:101FA00088E090E09093BC038093BB031092A90457
:101FB0001092A804F3CE4090B7035090B8036090FD
:101FC000B9037090BA03D501C40184199509A60913
:101FD000B7098AA39BA3ACA3BDA3BC01CD012AEF83
:101FE00030E040E050E00E9424122170E22E00E038
:101FF00020E048E150E067E170E086E190E00E9477
:102000009107E12C21E04BE150E06AE170E089E1C9
:1020100090E00E94910790EA490E9FE0591E611CD2
:10202000711CC301B201681979098A099B0928EE5C
:1020300033E040E050E00E942412C9010E942407CE
:102040002AA13BA14CA15DA1203D3740410551058E
:1020500008F4A4CE8092B7039092B803A092B9037B
:10206000B092BA0389E090E09093BC038093BB03E5
:1020700095CEE12C01E020E048E150E067E170E01E
:1020800086E190E00E94910700E021E04BE150E002
:102090006AE170E089E190E00E9491074090B70307
:1020A0005090B8036090B9037090BA03C301B201B5
:1020B0006053784F8F4F9F4F681979098A099B09A0
:1020C00028EE33E040E050E00E942412C9010E9453
:1020D0002407D501C40184199509A609B709883ECA
:1020E0009340A105B10508F455CE8FEF9FEF0E94F4
:1020F00024078092B7039092B803A092B903B092DC
:10210000BA0385E090E042CEE12C00E021E048E116
:1021100050E067E170E086E190E00E94910721E0E5
:102120004BE150E06AE170E089E190E00E949107A4
:102130008FEF9FEF0E9424078091B7039091B8031F
:10214000A091B903B091BA03A5019401281B390BE2
:102150004A0B5B0BDA01C901883E9340A105B1052A
:1021600008F418CE8092B7039092B803A092B903F6
:10217000B092BA038091B603811103CE81E090E062
:1021800005CEE12C00E021E048E150E067E170E09D
:1021900086E190E00E94910701E021E04BE150E0F0
:1021A0006AE170E089E190E00E9491078FEF9FEF74
:1021B0000E9424078091B7039091B803A091B903BE
:1021C000B091BA03A5019401281B390B4A0B5B0B94
:1021D000DA01C901803D9740A105B10508F4DACDC7
:1021E0008092B7039092B803A092B903B092BA0359
:1021F00082E090E0CBCDE12C00E021E048E150E02E
:1022000067E170E086E190E00E949107EE24E3949C
:1022100020E04BE150E06AE170E089E190E00E944B
:1022200091078FEF9FEF0E9424078091B703909151
:10223000B803A091B903B091BA03B501A401481B3A
:10224000590B6A0B7B0B80918F0490919004092E9F
:10225000000CAA0BBB0B8053984FAF4FBF4F4817D2
:1022600059076A077B0790F08092B7039092B803F2
:10227000A092B903B092BA0383E090E09093BC03BC
:102280008093BB031092900410928F0482EA94E032
:1022900087CDE12C00E021E048E150E067E170E00B
:1022A00086E190E00E9491078091B7039091B80376
:1022B000A091B903B091BA0324013501481A590A13
:1022C0006A0A7B0AC301B2012AEF30E040E050E025
:1022D0000E9424122170E22E20E04BE150E06AE1DE
:1022E00070E089E190E00E9491078FEF9FEF0E94DC
:1022F000240740ED441647E054066104710430F2AF
:102300008092B7039092B803A092B903B092BA0337
:10231000D092BC03C092BB03B9CFE12C00E021E016
:1023200048E150E067E170E086E190E00E949107AB
:1023300001E020E04BE150E06AE170E089E190E0EB
:102340000E9491078FEF9FEF0E9424078091B703AF
:102350009091B803A091B903B091BA03A50194017B
:10236000281B390B4A0B5B0BDA01C901883E9340ED
:10237000A105B10508F40ECD8092B7039092B80381
:10238000A092B903B092BA031092BC031092BB039F
:1023900001CD8091B7039091B803A091B903B0919A
:1023A000BA03A5019401281B390B4A0B5B0BCA0128
:1023B000B9012AEF30E040E050E00E942412122FD1
:1023C0001170E12C012F20E048E150E067E170E05E
:1023D00086E190E00E94910700E0212F4BE150E060
:1023E0006AE170E089E190E00E9491078091B60374
:1023F000811132017092BC036092BB03D3CC843054
:10240000910519F0099709F0EBCC8EED92E002C02E
:1024100088ED92E00E94D307E3CC88EE92E0FACFF9
:1024200097FB072E16F4009407D077FD09D00E9481
:102430006D1207FC05D03EF4909581959F4F08954D
:10244000709561957F4F0895A1E21A2EAA1BBB1BC0
:10245000FD010DC0AA1FBB1FEE1FFF1FA217B30770
:10246000E407F50720F0A21BB30BE40BF50B661F86
:10247000771F881F991F1A9469F76095709580954A
:1024800090959B01AC01BD01CF010895052E97FBEE
:102490001EF400940E945D1257FD07D00E94241282
:1024A00007FC03D04EF40C945D1250954095309586
:1024B00021953F4F4F4F5F4F0895909580957095B0
:1024C00061957F4F8F4F9F4F0895EE0FFF1F881F1D
:1024D0008BBF0790F691E02D1994AA1BBB1B51E10D
:1024E00007C0AA1FBB1FA617B70710F0A61BB70B84
:1024F000881F991F5A95A9F780959095BC01CD0129
:062500000895F894FFCFDE
:1025060000000000000000000000000001000100C3
:1025160000000000010001000100010000000000B1
:1025260001000000000001000000000000000000A3
:102536000000010001000000010000000000010091
:102546000100000000000000010000000000010082
:102556000000000000000100000000000000000074
:102566000000000000000000010001000100010061
:102576000000000000000000000000000000000055
:102586000000000000000100000000000000400004
:10259600140054002100220023001E001F0020000A
:1025A60000000000AF0419044604FC047704550437
:1025B6006904000000000B06DE052107B405D705F7
:1025C600C405B505000000003F08190421074D05A4
:1025D60045737461646F3A0020524F4A4F002041A0
:1025E6004D4152494C4C4F002056455244450054EB
:0825F60069656D706F3A000089
:00000001FF
