:100000000C9452010C9483010C9483010C94830191
:100010000C9483010C9483010C9483010C94830150
:100020000C9483010C9483010C9483010C94830140
:100030000C9483010C9483010C9483010C94830130
:100040000C9483010C9483010C9483010C94830120
:100050000C9483010C9483010C9483010C94650629
:100060000C9483010C94D9060C94AF060C94830174
:100070000C9483010C9483010C9483010C948301F0
:100080000C9483010C9483010C9483010C948301E0
:100090000C9483010C9483010C9483010C940F073E
:1000A0000C9483010C9483010C9483010C948301C0
:1000B0000C9483010C9483010C9483010C948301B0
:1000C0000C9483010C9483010C9483010C948301A0
:1000D0000C9483010C9483010C9483010C94830190
:1000E0000C9483010C94EF010C94B5010C949902CB
:1000F0000C94EB010C94BC0B0C94F10B0C94270C9E
:100100000C9436040C9433080C947E030C94CF03A7
:100110000C940B020C94860B0C94BA010C949A026A
:100120000C94F3010C9407020C9427060C94F9022A
:100130000C94D7020C945E0C0C94FD010C94E50118
:100140000C94960C0C94E1010C946E0A0C948D04A2
:100150000C949B020C94350A0C94D0010C94A305CA
:100160000C9401020C9446040C94F9010C94C802FE
:100170000C94D4010C94EB020C9460040C94A40A2B
:100180000C94D8010C9437040C94CC010C944C0BB7
:100190000C9431030C9459040C94DB0100002100F1
:1001A000240027002A002D00300033000101000048
:1001B000040107010A0100002200250028002B008D
:1001C0002E003100340002010000050108010B017E
:1001D00005050505070508080808020202020A0AC3
:1001E00008080404040401010101010101010303E1
:1001F000030303030303040707070C0C0C0C0C0C8C
:100200000C0C0202020206060606060606060B0B88
:100210000B0B0B0B0B0B01021020200808102040C9
:1002200010204080020102010804020101020408BA
:100230001020408080402010080402018004020148
:100240008040201008040201080402010102040891
:1002500010204080010204081020408000000A0B9A
:1002600002090C0D0E080703040100000000000045
:10027000000000000000000000000000000000007E
:10028000000000000000000012111000000000003B
:10029000000000000000000000000000000000005E
:1002A0000000330811241FBECFEFD1E2DEBFCDBF67
:1002B00000E00CBF12E0A0E0B2E0E4E2FAE100E00E
:1002C0000BBF02C007900D92A036B107D9F723E00B
:1002D000A0E6B2E001C01D92AE3DB207E1F711E029
:1002E000C2E5D1E000E006C021970109802FFE01A0
:1002F0000E94080DC135D10780E00807A9F70E94C8
:100300007B080C94100D0C940000282F30E0F901AC
:10031000E45AFD4F9491F901EA5EFD4F4491205358
:100320003E4FF9012491222309F435C0992311F19C
:1003300091509231F8F4E92FF0E08827ED55FE4F07
:100340008F4F0C94080DD401D801B501CC01D00118
:10035000BA01DB01E101E501EB01EF01F301F90174
:10036000FD01BA01010207020B02809180008F7724
:1003700080938000E22FF0E0EE0FFF1FEA54FE4F63
:10038000A591B4918FB7F894EC91611148C0409554
:100390004E234C938FBF0895809180008F7DE8CFCE
:1003A00080918000877FE4CF84B58F7784BDE2CFD2
:1003B00084B58F7DFBCF8091B0008F778093B000A4
:1003C000D9CF8091B0008F7DF9CF809190008F7749
:1003D00080939000CFCF809190008F7DF9CF809156
:1003E0009000877FF5CF8091A0008F778093A00049
:1003F000C1CF8091A0008F7DF9CF8091A000877F31
:10040000F5CF809120018F7780932001B3CF809129
:1004100020018F7DF9CF80912001877FF5CF4E2B72
:10042000B8CFCF93DF9390E0FC01EA5EFD4F2491BB
:1004300080539E4FFC0184918823D1F090E0880F77
:10044000991FFC01E456FE4FA591B491FC01EA54BA
:10045000FE4FC591D49161110EC09FB7F8948C9155
:10046000E22FE0958E238C932881E223E8839FBFBF
:10047000DF91CF9108958FB7F894EC91E22BEC9334
:100480008FBFF6CF3FB7F894809125039091260354
:10049000A0912703B091280326B5A89B05C02F3F44
:1004A00019F00196A11DB11D3FBFBA2FA92F982F9A
:1004B0008827BC01CD01620F711D811D911D42E095
:1004C000660F771F881F991F4A95D1F708958F925D
:1004D0009F92AF92BF92CF92DF92EF92FF924B0129
:1004E0005C010E9442026B017C010E9442026C1975
:1004F0007D098E099F09683E734081059105A8F327
:1005000021E0821A9108A108B10888EEC80E83E0A4
:10051000D81EE11CF11C81149104A104B10429F737
:10052000FF90EF90DF90CF90BF90AF909F908F9013
:10053000089508950895AF92BF92CF92DF92EF92FF
:10054000FF920F931F93CF93DF936C017B018B017D
:10055000040F151FEB015E01AE18BF08C017D107CD
:1005600059F06991D601ED91FC910190F081E02D57
:10057000C6011995892B79F7C501DF91CF911F919C
:100580000F91FF90EF90DF90CF90BF90AF900895C4
:10059000FC01538D448D252F30E0842F90E0821B89
:1005A000930B541710F0CF96089501970895FC010E
:1005B000918D828D981761F0A28DAE0FBF2FB11D66
:1005C0005D968C91928D9F5F9F73928F90E00895BE
:1005D0008FEF9FEF0895FC01918D828D981731F078
:1005E000828DE80FF11D858D90E008958FEF9FEFCC
:1005F0000895FC01918D228D892F90E0805C9F4FA2
:10060000821B91098F739927089589E293E00E94D4
:10061000F90221E0892B09F420E0822F0895FC01E2
:10062000A48DA80FB92FB11DA35ABF4F2C91848D53
:1006300090E001968F739927848FA689B7892C93B0
:10064000A089B1898C91837080648C93938D848D03
:10065000981306C00288F389E02D80818F7D808306
:100660000895EF92FF920F931F93CF93DF93EC01C6
:1006700081E0888F9B8D8C8D98131AC0E889F98949
:10068000808185FF15C09FB7F894EE89FF8960834C
:10069000E889F98980818370806480839FBF81E0CD
:1006A00090E0DF91CF911F910F91FF90EF9008950F
:1006B000F62E0B8D10E00F5F1F4F0F731127E02EEA
:1006C0008C8D8E110CC00FB607FCFACFE889F98922
:1006D000808185FFF5CFCE010E940F03F1CFEB8D16
:1006E000EC0FFD2FF11DE35AFF4FF0829FB7F894F6
:1006F0000B8FEA89FB8980818062CFCFCF93DF9314
:10070000EC01888D8823B9F0AA89BB89E889F98929
:100710008C9185FD03C0808186FD0DC00FB607FC5E
:10072000F7CF8C9185FFF2CF808185FFEDCFCE0191
:100730000E940F03E9CFDF91CF91089580E090E010
:10074000892B29F00E94050381110E94000080E09E
:1007500090E0892B49F080E090E0892B29F00E94FD
:10076000000081110E94000080E090E0892B49F098
:1007700080E090E0892B29F00E94000081110E9406
:10078000000080E090E0892B49F080E090E0892B28
:1007900029F00E94000081110C9400000895089532
:1007A0002091A102260F3327331F21323105ECF4AB
:1007B0002091EA02FC0190E080E0243069F082E0C0
:1007C0000895A091A1022191AC014F575D4FA40F54
:1007D000B52FB11D2C930196861798F38091A10235
:1007E000680F6093A10280E0089581E0089510925F
:1007F000EA0281E08093E9021092C40261E084E1A0
:100800000E94850161E085E10E948501E9EBF0E04D
:1008100080818E7F808380818D7F808388E4809338
:10082000B80085E48093BC000895CF93DF9391E0F6
:10083000909380028823B9F0C091B800D091BA009B
:100840008091BC008A7B8093BC0060E084E10E94C0
:10085000850160E085E10E9485010E94F703D09345
:10086000BA00C093B800DF91CF9108950895E09148
:10087000190380911803E81730F4F0E0E05AFD4FB7
:10088000808190E008958FEF9FEF08959091190374
:10089000809118032FEF3FEF981748F4E92FF0E00D
:1008A000E05AFD4F208130E09F5F90931903C9010A
:1008B00008958091180390911903891B990B08954D
:1008C000CF92DF92EF92FF920F931F93CF93DF931C
:1008D0007C01CB018A012091F002222389F0EB01F7
:1008E0006B01C40ED51ECC15DD0569F06991D701E9
:1008F000ED91FC910190F081E02DC7011995F3CFA6
:10090000642F0E94D003C801DF91CF911F910F91F6
:10091000FF90EF90DF90CF900895CF93DF931F92D9
:10092000CDB7DEB769832091F0022223F9F0209140
:100930001603203258F021E030E0FC01338322839B
:1009400090E080E00F90DF91CF91089580911703A0
:10095000E82FF0E0EF50FD4F998190838F5F8093F7
:1009600017038093160381E090E0ECCF61E0CE01A5
:1009700001960E94D003F7CFCF92DF92EF92FF92C1
:100980000F931F93CF93DF93FC01C48121E0209349
:10099000F002C0931103109217031092160383857F
:1009A000682B86EC93E00E948D04D0911603D1321F
:1009B00008F092C00E9442026B017C018091EA0221
:1009C000811165C082E08093EA0281E08093E902B0
:1009D0008FEF8093E8021092E702D093E602A1EF36
:1009E000B2E0E6ECF2E080E0D81385C01092C502D8
:1009F0008091C502CC0FC82BC093C5028091C40260
:100A0000813009F07CC01092C4020E9442026B0146
:100A10007C018091C5028093BB008091EC02909193
:100A2000ED02A091EE02B091EF02892B8A2B8B2B65
:100A300099F00E9442020091EC021091ED02209187
:100A4000EE023091EF026C197D098E099F0906179D
:100A5000170728073907E0F18091BC0083FDD9CF43
:100A600085EC8093BC000E9442026B017C01809166
:100A7000EA02823009F445C08091E8028F3F61F1BB
:100A80008091E802803241F18091E80225C0809196
:100A9000EC029091ED02A091EE02B091EF02892B51
:100AA0008A2B8B2B09F48ACF0E9442020091EC0220
:100AB0001091ED022091EE023091EF026C197D0948
:100AC0008E099F09061717072807390708F076CF00
:100AD0008091EB020E9415041092170310921603E6
:100AE0001092F002DF91CF911F910F91FF90EF9044
:100AF000DF90CF9008959D9191938F5F75CF85EE94
:100B0000B0CF8091EC029091ED02A091EE02B091F5
:100B1000EF02892B8A2B8B2B09F4A9CF0E9442026A
:100B20000091EC021091ED022091EE023091EF0263
:100B30006C197D098E099F090617170728073907C1
:100B400008F095CFC5CF90E080E00895EF920F9325
:100B5000CF93DF93D62FC42F622F0E948501602F81
:100B60008D2F0E9485016E2D8C2FDF91CF910F91DB
:100B7000EF900C948501FC0101900020E9F731977A
:100B8000AF01481B590BBC0182ED93E00C949B0212
:100B90000F931F93CF938C01C62F0E94BC046C2F20
:100BA0006460C8010E94BC046C2F6B7FC8010E9466
:100BB000BC0483EC90E00197F1F7CF911F910F9166
:100BC00008950F931F93CF93DF938C01D62FC42FDB
:100BD000607F642B0E94C80580E1D89FB00111247A
:100BE0006C2BC801DF91CF911F910F910C94C80518
:100BF000CF93DF9300D000D01F921F92CDB7DEB706
:100C000098E0E0E0F2E0DE01119601900D929A95F5
:100C1000E1F79091DA03981708F48FEF90E0880FCE
:100C2000991F21E030E02C0F3D1F820F931FFC0124
:100C30006081606840E082ED93E028960FB6F894FA
:100C4000DEBF0FBECDBFDF91CF910C94E10541E037
:100C50000E94E10581E090E0089585ED8093BC005D
:100C60008091EC029091ED02A091EE02B091EF0222
:100C70000796A11DB11D23E0B695A7959795879579
:100C80002A95D1F72091BC0024FD03C01092EA02FE
:100C900008954091EC025091ED026091EE02709146
:100CA000EF02452B462B472B69F30097A105B105B1
:100CB00041F02AE22A95F1F700C00197A109B10994
:100CC000E1CF8091EB020C9415041F920F920FB6A6
:100CD0000F9211242F933F938F939F93AF93BF93C2
:100CE0008091210390912203A0912303B0912403CA
:100CF0003091200323E0230F2D3758F50196A11DD5
:100D0000B11D209320038093210390932203A0938D
:100D10002303B09324038091250390912603A0918F
:100D20002703B09128030196A11DB11D80932503CF
:100D300090932603A0932703B0932803BF91AF910C
:100D40009F918F913F912F910F900FBE0F901F9009
:100D5000189526E8230F0296A11DB11DD2CF1F9230
:100D60000F920FB60F9211240BB60F922F933F9351
:100D70004F935F936F937F938F939F93AF93BF93A3
:100D8000EF93FF9389E293E00E940F03FF91EF91AD
:100D9000BF91AF919F918F917F916F915F914F9193
:100DA0003F912F910F900BBE0F900FBE0F901F9091
:100DB00018951F920F920FB60F9211240BB60F9237
:100DC0002F938F939F93EF93FF93E0913903F091CB
:100DD0003A038081E0913F03F091400382FD1DC002
:100DE0009081809142038F5F8F732091430382171C
:100DF00041F0E0914203F0E0E75DFC4F958F809376
:100E00004203FF91EF919F918F912F910F900BBE15
:100E10000F900FBE0F901F9018958081F2CF1F92F8
:100E20000F920FB60F9211240BB60F922F933F9390
:100E30004F935F936F937F938F939F93AF93BF93E2
:100E4000EF93FF938091B900887F803609F44DC0FD
:100E500008F040C0883209F4A9C028F5803109F4AF
:100E60009DC0C8F4882309F4FBC0883009F496C0FB
:100E7000FF91EF91BF91AF919F918F917F916F9172
:100E80005F914F913F912F910F900BBE0F900FBE2E
:100E90000F901F901895883109F488C0803241F76F
:100EA0008093E80214C0803409F49DC040F480337C
:100EB000B9F38833E9F68093E80285ECB0C0803559
:100EC00009F485C0883509F496C0883489F60E94F3
:100ED0002D06CECF883909F48CC038F5883729F033
:100EE00050F4883611F0803719F683E08093EA02D7
:100EF0001092C30257C0883809F47BC0803919F0BA
:100F0000803809F0B5CF8091C302803208F071C0FB
:100F1000E091C30281E08E0F8093C3028091BB00F9
:100F2000F0E0ED55FD4F80833DC0803B39F0E0F4AB
:100F3000803A09F479C0883A09F09ACF84E0809326
:100F4000EA021092A2021092A102E0911403F09121
:100F5000150319958091A10281110FC081E0809342
:100F6000A1021092810209C0803C09F4A6CF883CFE
:100F700009F4A3CF883B09F07BCFE091A20281E086
:100F80008E0F8093A202F0E0EF57FD4F8081809397
:100F9000BB009091A2028091A10229C08091C5025C
:100FA0008093BB0085EC8093BC0062CF9091E702F8
:100FB0008091E602981758F5E091E70281E08E0FE4
:100FC0008093E702F0E0EA53FD4F8081E9CFE091A2
:100FD000E70281E08E0F8093E7028091BB00F0E092
:100FE000EA53FD4F80839091E7028091E6029817C3
:100FF000C8F285E8D8CFE091E70281E08E0F8093B8
:10100000E7028091BB00F0E0EA53FD4F80838091BE
:10101000E90281115CCF81E08093C40284EA80936D
:10102000BC001092EA0224CF85EC8093BC001092A1
:10103000EA028091C302803230F4E091C302F0E012
:10104000ED55FD4F10826091C30270E0E0911203F4
:10105000F091130383EA92E019951092C30208CF2E
:101060001092E80234CFE9E2F3E01382128288EEB4
:1010700093E0A0E0B0E084839583A683B7832CE05F
:1010800032E03183208325EC30E03587248724EC5F
:1010900030E03787268720EC30E0318B208B21EC45
:1010A00030E0338B228B22EC30E0358B248B26EC26
:1010B00030E0378B268B118E128E138E148EE6EC59
:1010C000F3E01382128284839583A683B7838EE133
:1010D00092E091838083E2EDF3E01382128280E359
:1010E00092E09183808387E2848384E1818784E036
:1010F000828713860895CF93DF93CDB7DEB7A1978C
:101100000FB6F894DEBF0FBECDBF789484B5826071
:1011100084BD84B5816084BD85B5826085BD85B59B
:10112000816085BD80916E00816080936E00109219
:101130008100809181008260809381008091810094
:101140008160809381008091800081608093800025
:101150008091B10084608093B1008091B000816083
:101160008093B00080919100826080939100809183
:1011700091008160809391008091900081608093C4
:1011800090008091A10082608093A1008091A100D5
:1011900081608093A1008091A00081608093A00075
:1011A00080912101826080932101809121018160E1
:1011B00080932101809120018160809320018091A2
:1011C0007A00846080937A0080917A0082608093B4
:1011D0007A0080917A00816080937A0080917A0011
:1011E000806880937A001092C10060E085E20E94DE
:1011F000110260E084E20E94110260E083E20E943A
:10120000110260E082E20E94110260E081E20E942D
:10121000110260E080E20E94110260E08FE10E9412
:10122000110260E08EE10E94110261E086E10E94FD
:10123000110261E087E10E94110261E088E10E94F1
:10124000110261E089E10E94110261E08AE10E94DD
:10125000110261E08BE10E94110260E086E10E94D0
:10126000850160E087E10E94850160E088E10E94DD
:10127000850160E089E10E94850160E08AE10E94C9
:10128000850160E08BE10E948501E0913903F091D6
:101290003A0382E08083E0913503F09136031082B7
:1012A000E0913703F09138038FEC80831092410373
:1012B000E0913D03F0913E0386E08083E0913B03A3
:1012C000F0913C03808180618083E0913B03F09149
:1012D0003C03808188608083E0913B03F0913C0374
:1012E000808180688083E0913B03F0913C038081A2
:1012F0008F7D8083109219031092180310921703A8
:10130000109216030E94F70389E992E09093150367
:10131000809314038AE992E090931303809312035D
:101320001092D7038091DC03823018F098E09093FC
:10133000D7038093DA0362E370E080E090E00E94DC
:1013400067026091DD0382ED93E00E94BC0468EEC9
:1013500073E080E090E00E94670260E382ED93E03A
:101360000E94C8050BE416E4C8010197F1F760E399
:1013700082ED93E00E94C805C8010197F1F760E390
:1013800082ED93E00E94C80583E592E00197F1F7B2
:1013900060E282ED93E00E94C8056091D70360622D
:1013A00040E082ED93E00E94E10584E08093D80361
:1013B00040E06CE082ED93E00E94E10540E061E0F6
:1013C00082ED93E00E94E1050BE31FE1C801019764
:1013D000F1F782E08093D90340E066E082ED93E08C
:1013E0000E94E10540E062E082ED93E00E94E105A9
:1013F000C8010197F1F788E08093DD0360E082ED9A
:1014000093E00E94BC0410921F0310921E0389E017
:10141000282E312C98E0C92ED12C2AE0822E912C36
:10142000A12CB12C8FB7F894409021035090220347
:1014300060902303709024038FBFE0911E03F0910E
:101440001F03EA30F10508F0B6C08827E55DF54FC7
:101450008F4F0C94080D350AF10B270C5E0C960C7F
:10146000BC0B6E0AA40A4C0B860BE12C00E021E0B9
:1014700048E150E067E170E086E190E00E94A60557
:1014800021E04BE150E06AE170E089E190E00E94E8
:10149000A60580911A0390911B03A0911C03B091A3
:1014A0001D03A3019201281B390B4A0B5B0BDA01C8
:1014B000C901803A9F40A105B10508F47CC0409263
:1014C0001A0350921B0360921C0370921D0346E0A6
:1014D00050E050931F0340931E036DC0E12C01E0C8
:1014E00021E048E150E067E170E086E190E00E9491
:1014F000A60500E021E04BE150E06AE170E089E1FF
:1015000090E00E94A60580911A0390911B03A09180
:101510001C03B0911D03A3019201281B390B4A0B38
:101520005B0BDA01C901883B9B40A105B10508F4BA
:1015300042C040921A0350921B0360921C037092A7
:101540001D0347E050E0C5CFEE24E39400E020E027
:1015500048E150E067E170E086E190E00E94A60576
:10156000E12C21E04BE150E06AE170E089E190E09C
:101570000E94A60580911A0390911B03A0911C0361
:10158000B0911D03A3019201281B390B4A0B5B0B81
:10159000DA01C901803A9F40A105B10560F040928F
:1015A0001A0350921B0360921C0370921D03D09289
:1015B0001F03C0921E0340E061E082ED93E00E94B1
:1015C000E1058BE39FE10197F1F780E00E94F805C8
:1015D00088E392E00E94BB0580911E0390911F0357
:1015E0008230910509F4EAC10CF0DAC1892B09F4C3
:1015F000E0C181E00E94F80587E592E00E94BB050A
:1016000080911E0390911F038D7F892B09F4D9C10E
:1016100088EB9BE0A0E0B0E020911A0330911B031F
:1016200040911C0350911D036FB7F8944090210323
:101630005090220360902303709024036FBF2419FD
:10164000350946095709280F391F4A1F5B1F19A280
:101650003E0181E2680E711CCA01B901A501940125
:101660000E94E60C605DF30162933F012115310594
:101670004105510589F7309761F001900020E9F7A5
:101680003197AF0146195709B30182ED93E00E94EB
:101690009B020E949E03C6CEEE24E39401E020E06C
:1016A00048E150E067E170E086E190E00E94A60525
:1016B000E12C00E021E04BE150E06AE170E089E1DB
:1016C00090E00E94A60580911A0390911B03A091BF
:1016D0001C03B0911D03A3019201281B390B4A0B77
:1016E0005B0BDA01C901803D9740A105B10508F403
:1016F00062CF40921A0350921B0360921C037092B7
:101700001D0330921F0320921E0355CFE12C01E0F0
:1017100020E048E150E067E170E086E190E00E945F
:10172000A60500E021E04BE150E06AE170E089E1CC
:1017300090E00E94A60580911A0390911B03A0914E
:101740001C03B0911D03A3019201281B390B4A0B06
:101750005B0BDA01C901883B9B40A105B10508F488
:101760002ACF40921A0350921B0360921C0370927E
:101770001D0345E050E0ADCEE12C00E021E048E162
:1017800050E067E170E086E190E00E94A60521E06C
:101790004BE150E06AE170E089E190E00E94A6052B
:1017A00080911A0390911B03A0911C03B0911D031B
:1017B000A3019201281B390B4A0B5B0BDA01C9010B
:1017C000803A9F40A105B10508F4F5CE40921A0376
:1017D00050921B0360921C0370921D0341E050E085
:1017E00078CEE12C00E021E048E150E067E170E0D4
:1017F00086E190E00E94A60501E021E04BE150E087
:101800006AE170E089E190E00E94A60580911A03E8
:1018100090911B03A0911C03B0911D03A3019201A1
:10182000281B390B4A0B5B0BDA01C901883B9B4033
:10183000A105B10508F4BFCE40921A0350921B03D4
:1018400060921C0370921D0342E050E042CEE12CF6
:1018500000E021E048E150E067E170E086E190E0DF
:101860000E94A605EE24E39420E04BE150E06AE1FB
:1018700070E089E190E00E94A60580911A039091A2
:101880001B03A0911C03B0911D03A3019201281B0F
:10189000390B4A0B5B0BDA01C901803A9F40A10565
:1018A000B10508F488CE40921A0350921B0360924F
:1018B0001C0370921D0343E050E00BCEE12C00E0CE
:1018C00021E048E150E067E170E086E190E00E94AD
:1018D000A605EE24E39401E020E04BE150E06AE14C
:1018E00070E089E190E00E94A60580911A03909132
:1018F0001B03A0911C03B0911D03A3019201281B9F
:10190000390B4A0B5B0BDA01C901803D9740A105F9
:10191000B10508F450CE40921A0350921B03609216
:101920001C0370921D0344E050E0D3CDE12C00E095
:1019300021E048E150E067E170E086E190E00E943C
:10194000A605EE24E39401E020E04BE150E06AE1DB
:1019500070E089E190E00E94A60580911A039091C1
:101960001B03A0911C03B0911D03A3019201281B2E
:10197000390B4A0B5B0BDA01C901883B9B40A1057F
:10198000B10508F418CE40921A0350921B036092DE
:101990001C0370921D0310921F0310921E030BCEA6
:1019A0008430910519F0099709F023CE86E492E07E
:1019B00002C080E492E00E94BB051BCE80E592E06D
:1019C000FACF80EA9FE0A0E0B0E026CEA1E21A2E96
:1019D000AA1BBB1BFD010DC0AA1FBB1FEE1FFF1FD3
:1019E000A217B307E407F50720F0A21BB30BE40B23
:1019F000F50B661F771F881F991F1A9469F760956A
:101A00007095809590959B01AC01BD01CF01089523
:101A1000EE0FFF1F881F8BBF0790F691E02D1994E2
:041A2000F894FFCF68
:101A240000004000140054000000000031039B0239
:101A3400C8027E03F902D702EB02000000008D0405
:101A44006004A3053604590446043704000000006A
:101A540027069B02A305CF0345737461646F3A00A4
:101A640020524F4A4F0020414D4152494C4C4F00A7
:101A7400205645524445005469656D706F3A000024
:00000001FF
