:100000000C9461010C9492010C9492010C94920155
:100010000C9492010C9492010C9492010C94920114
:100020000C9492010C9492010C9492010C94920104
:100030000C9492010C9492010C9492010C949201F4
:100040000C9492010C9492010C9492010C949201E4
:100050000C9492010C9492010C9492010C94AC07B4
:100060000C9492010C9420080C94F6070C949201C5
:100070000C9492010C9492010C9492010C949201B4
:100080000C9492010C9492010C9492010C949201A4
:100090000C9492010C9492010C9492010C945608C9
:1000A0000C9492010C9492010C9492010C94920184
:1000B0000C9492010C9492010C9492010C94920174
:1000C0000C9492010C9492010C9492010C94920164
:1000D0000C9492010C9492010C9492010C94920154
:1000E0000C9492010C942F030C948F040C94200315
:1000F0000C942A0F0C94D7010C9451030C94E50432
:100100000C94E5010C94B2010C9443030C948E04FE
:100110000C9427040C94D6030C94CD010C94DF0EA0
:100120000C9473100C94B1040C94F3020C94300DE5
:100130000C9437100C94670F0C94DF010C94BC01E5
:100140000C94A30F0C94F2010C94F2020C94B801DD
:100150000C94F10F0C94C0010C94FB050C94E90174
:100160000C94ED010C94F7010C940C070C94190EEF
:100170000C94C7010C9489030C94DB010C949E042D
:100180000C94F3010C94DF0D0C94D1010C94C40178
:100190000C94BD090C94F1020C94810E0C94B804DB
:1001A00000002100240027002A002D003000330029
:1001B00001010000040107010A01000022002500DE
:1001C00028002B002E003100340002010000050140
:1001D00008010B01000020002300260029002C004C
:1001E0002F0032000001000003010601090105058E
:1001F0000505070508080808020202020A0A08089D
:1002000004040404010101010101010103030303CA
:1002100003030303040707070C0C0C0C0C0C0C0C59
:100220000202020206060606060606060B0B0B0B6A
:100230000B0B0B0B0102102020080810204010208F
:10024000408002010201080402010102040810209A
:100250004080804020100804020180040201804098
:100260002010080402010804020101020408102001
:100270004080010204081020408000000A0B02099F
:100280000C0D0E0807030401000000000000000030
:10029000000000000000000000000000000000005E
:1002A000000000000000121110000000000000001B
:1002B000000000000000000000000000000000003E
:1002C000BD0911241FBECFEFD1E2DEBFCDBF00E0DC
:1002D0000CBF24E0A8E1B3E001C01D92AF3CB2071F
:1002E000E1F713E0A0E0B2E0E4E6F6E200E00BBFE5
:1002F00002C007900D92A831B107D9F711E0C1E60D
:10030000D1E000E006C021970109802FFE010E9484
:100310001211C036D10780E00807A9F70E94330AFE
:100320000C9430130C9400008150823108F05AC0B4
:10033000E82FF0E08827E056FE4F8F4F0C94121103
:10034000C001C401B201B801BC01F201C701CD0175
:10035000D101D701DB01DF01E501E901F201ED0186
:10036000F301F701809180008F77809380000895DA
:10037000809180008F7DF9CF80918000877FF5CFBD
:1003800084B58F7784BD089584B58F7DFBCF809130
:10039000B0008F778093B00008958091B0008F7D7A
:1003A000F9CF809190008F7780939000089580918D
:1003B00090008F7DF9CF80919000877FF5CF80915D
:1003C000A0008F778093A00008958091A0008F7D7A
:1003D000F9CF8091A000877FF5CF809120018F77A2
:1003E000809320010895809120018F7DF9CF809125
:1003F0002001877FF5CFCF93DF93282F30E0F901DD
:10040000E658FD4F8491F901EC5CFD4FD491F90160
:10041000E251FE4FC491CC23A1F081110E949401BE
:10042000EC2FF0E0EE0FFF1FEC52FE4FA591B491C0
:10043000EC91ED2381E090E009F480E0DF91CF9131
:10044000089580E090E0FACF1F93CF93DF93282F99
:1004500030E0F901E658FD4F8491F901EC5CFD4F65
:10046000D491F901E251FE4FC491CC23A9F0162F8B
:1004700081110E949401EC2FF0E0EE0FFF1FE65473
:10048000FE4FA591B4918FB7F894EC91111108C06B
:10049000D095DE23DC938FBFDF91CF911F9108951C
:1004A000DE2BF8CFCF93DF9390E0FC01EC5CFD4FA7
:1004B000249182519E4FFC0184918823D1F090E0D9
:1004C000880F991FFC01E056FE4FA591B491FC01E5
:1004D000E654FE4FC591D49161110EC09FB7F894B8
:1004E0008C91E22FE0958E238C932881E223E88380
:1004F0009FBFDF91CF9108958FB7F894EC91E22BD5
:10050000EC938FBFF6CF90917B00977F90937B0009
:100510008653806480937C0080917A00806480930D
:100520007A0080917A0086FDFCCF809178009091CE
:10053000790008953FB7F8948091E0039091E1032A
:10054000A091E203B091E30326B5A89B05C02F3F1D
:1005500019F00196A11DB11D3FBFBA2FA92F982FE9
:100560008827BC01CD01620F711D811D911D42E0E4
:10057000660F771F881F991F4A95D1F708958F92AC
:100580009F92AF92BF92CF92DF92EF92FF924B0178
:100590005C010E949A026B017C010E949A026C1914
:1005A0007D098E099F09683E734081059105A8F376
:1005B00021E0821A9108A108B10888EEC80E83E0F4
:1005C000D81EE11CF11C81149104A104B10429F787
:1005D000FF90EF90DF90CF90BF90AF909F908F9063
:1005E000089508950895AF92BF92CF92DF92EF924F
:1005F000FF920F931F93CF93DF936C017B018B01CD
:10060000040F151FEB015E01AE18BF08C017D1071C
:1006100059F06991D601ED91FC910190F081E02DA6
:10062000C6011995892B79F7C501DF91CF911F91EB
:100630000F91FF90EF90DF90CF90BF90AF90089513
:10064000FC01538D448D252F30E0842F90E0821BD8
:10065000930B541710F0CF96089501970895FC015D
:10066000918D828D981761F0A28DAE0FBF2FB11DB5
:100670005D968C91928D9F5F9F73928F90E008950D
:100680008FEF9FEF0895FC01918D828D981731F0C7
:10069000828DE80FF11D858D90E008958FEF9FEF1B
:1006A0000895FC01918D228D892F90E0805C9F4FF1
:1006B000821B91098F739927089584EE93E00E941D
:1006C000510321E0892B09F420E0822F0895FC01D9
:1006D000A48DA80FB92FB11DA35ABF4F2C91848DA3
:1006E00090E001968F739927848FA689B7892C9300
:1006F000A089B1898C91837080648C93938D848D53
:10070000981306C00288F389E02D80818F7D808355
:100710000895EF92FF920F931F93CF93DF93EC0115
:1007200081E0888F9B8D8C8D98131AC0E889F98998
:10073000808185FF15C09FB7F894EE89FF8960839B
:10074000E889F98980818370806480839FBF81E01C
:1007500090E0DF91CF911F910F91FF90EF9008955E
:10076000F62E0B8D10E00F5F1F4F0F731127E02E39
:100770008C8D8E110CC00FB607FCFACFE889F98971
:10078000808185FFF5CFCE010E946703F1CFEB8D0D
:10079000EC0FFD2FF11DE35AFF4FF0829FB7F89445
:1007A0000B8FEA89FB8980818062CFCFCF93DF9363
:1007B000EC01888D8823B9F0AA89BB89E889F98979
:1007C0008C9185FD03C0808186FD0DC00FB607FCAE
:1007D000F7CF8C9185FFF2CF808185FFEDCFCE01E1
:1007E0000E946703E9CFDF91CF91089580E090E008
:1007F000892B29F00E945D0381110E94000080E096
:1008000090E0892B49F080E090E0892B29F00E944C
:10081000000081110E94000080E090E0892B49F0E7
:1008200080E090E0892B29F00E94000081110E9455
:10083000000080E090E0892B49F080E090E0892B77
:1008400029F00E94000081110C9400000895089581
:1008500020915903260F3327331F21323105ECF441
:100860002091A203FC0190E080E0243069F082E056
:100870000895A09159032191AC01475C5C4FA40FEE
:10088000B52FB11D2C930196861798F380915903CB
:10089000680F6093590380E0089581E008951092F5
:1008A000A20381E08093A10310927C0361E084E1C4
:1008B0000E94240261E085E10E942402E9EBF0E05D
:1008C00080818E7F808380818D7F808388E4809388
:1008D000B80085E48093BC000895CF93DF9391E046
:1008E000909338038823B9F0C091B800D091BA0032
:1008F0008091BC008A7B8093BC0060E084E10E9410
:10090000240260E085E10E9424020E944F04D093FB
:10091000BA00C093B800DF91CF9108950895E09197
:10092000D1038091D003E81730F4F0E0E85EFC4F8B
:10093000808190E008958FEF9FEF08959091D1030B
:100940008091D0032FEF3FEF981748F4E92FF0E0A4
:10095000E85EFC4F208130E09F5F9093D103C90196
:1009600008958091D0039091D103891B990B08952C
:10097000CF92DF92EF92FF920F931F93CF93DF936B
:100980007C01CB018A012091A803222389F0EB018D
:100990006B01C40ED51ECC15DD0569F06991D70138
:1009A000ED91FC910190F081E02DC7011995F3CFF5
:1009B000642F0E942804C801DF91CF911F910F91ED
:1009C000FF90EF90DF90CF900895CF93DF931F9229
:1009D000CDB7DEB769832091A8032223F9F02091D7
:1009E000CE03203258F021E030E0FC013383228333
:1009F00090E080E00F90DF91CF9108958091CF0338
:100A0000E82FF0E0E755FC4F998190838F5F80934A
:100A1000CF038093CE0381E090E0ECCF61E0CE0184
:100A200001960E942804F7CFCF92DF92EF92FF92B7
:100A30000F931F93CF93DF93FC01C48121E0209398
:100A4000A803C093C9031092CF031092CE038385ED
:100A5000682B81E894E00E94E504D091CE03D13266
:100A600008F092C00E949A026B017C018091A2035F
:100A7000811165C082E08093A20381E08093A1038D
:100A80008FEF8093A00310929F03D0939E03A9EA57
:100A9000B3E0EEE7F3E080E0D81385C010927D0369
:100AA00080917D03CC0FC82BC0937D0380917C0384
:100AB000813009F07CC010927C030E949A026B0185
:100AC0007C0180917D038093BB008091A403909171
:100AD000A503A091A603B091A703892B8A2B8B2B8A
:100AE00099F00E949A020091A4031091A50320910D
:100AF000A6033091A7036C197D098E099F0906177B
:100B0000170728073907E0F18091BC0083FDD9CF92
:100B100085EC8093BC000E949A026B017C0180915D
:100B2000A203823009F445C08091A0038F3F61F198
:100B30008091A003803241F18091A00325C0809173
:100B4000A4039091A503A091A603B091A703892BBC
:100B50008A2B8B2B09F48ACF0E949A020091A4035E
:100B60001091A5032091A6033091A7036C197D096C
:100B70008E099F09061717072807390708F076CF4F
:100B80008091A3030E946D041092CF031092CE03B4
:100B90001092A803DF91CF911F910F91FF90EF90DA
:100BA000DF90CF9008959D9191938F5F75CF85EEE3
:100BB000B0CF8091A4039091A503A091A603B0911A
:100BC000A703892B8A2B8B2B09F4A9CF0E949A02A9
:100BD0000091A4031091A5032091A6033091A703CF
:100BE0006C197D098E099F09061717072807390711
:100BF00008F095CFC5CF90E080E008950F931F9344
:100C0000CF93DF93CDB7DEB7CC58D1090FB6F894A8
:100C1000DEBF0FBECDBF2CE8E6E0F2E0DE011196AC
:100C200001900D922A95E1F78A309105D0F52EE0DA
:100C3000289F8001299F100D112481E090E08C0FE6
:100C40009D1F080F191FF80160818DE20E94240288
:100C5000F80162818CE20E942402F80164818BE237
:100C60000E942402F80166818AE20E942402F801AF
:100C7000608589E20E942402F801628588E20E9470
:100C80002402F801648587E2C457DF4F0FB6F89459
:100C9000DEBF0FBECDBFDF91CF911F910F910C949E
:100CA000240261E08DE20E94240261E08CE20E9455
:100CB000240261E08BE20E94240261E08AE20E9449
:100CC000240261E089E20E94240261E088E20E943D
:100CD000240260E0D8CFEF920F93CF93DF93D62F0B
:100CE000C42F622F0E942402602F8D2F0E942402A5
:100CF0006E2D8C2FDF91CF910F91EF900C942402E9
:100D0000DC011A968C911A97882369F019968C91B8
:100D100019978823F9F018968C91189730E020E005
:100D2000882319F0089522E030E0220F331FFD01DF
:100D3000E20FF31F4385548528EE33E0429FC00144
:100D4000439F900D529F900D112417969C938E9364
:100D50001697E8CF21E030E0E8CF0F931F93CF93B1
:100D60008C01C62F0E9414056C2F6460C8010E947C
:100D700014056C2F6B7FC8010E94140583EC90E072
:100D80000197F1F7CF911F910F9108950F931F9342
:100D9000CF93DF938C01D62FC42F607F642B0E94EA
:100DA000AD0680E1D89FB00111246C2BC801DF9102
:100DB000CF911F910F910C94AD06CF93DF9300D08C
:100DC00000D01F921F92CDB7DEB798E0E2E9F2E0C3
:100DD000DE01119601900D929A95E1F79091C7046A
:100DE000981708F48FEF90E0880F991F21E030E00A
:100DF0002C0F3D1F820F931FFC016081606840E053
:100E00008FEB94E028960FB6F894DEBF0FBECDBFEF
:100E1000DF91CF910C94C60641E00E94C60681E0A6
:100E200090E00895FB0101900020E9F73197AF01B0
:100E3000461B570BDC01ED91FC910280F381E02D04
:100E400019940F931F93CF93DF93EC0188819981BD
:100E5000009759F02A813B812617370730F081E04F
:100E6000DF91CF911F910F9108958B016F5F7F4F9D
:100E70000E943F12009759F0998388831B830A834D
:100E80002C813D81232B59F7FC011082E8CF80E0B3
:100E9000E7CFEF92FF920F931F93CF93DF93EC0175
:100EA0007B018A01BA010E942107288139818111C1
:100EB00014C02115310519F0C9010E94B61119821B
:100EC00018821D821C821B821A82CE01DF91CF9173
:100ED0001F910F91FF90EF9008951D830C83B70130
:100EE000C9010E942913F1CF85ED8093BC00809148
:100EF000A4039091A503A091A603B091A703079620
:100F0000A11DB11D23E0B695A795979587952A95C4
:100F1000D1F72091BC0024FD03C01092A2030895D4
:100F20004091A4035091A5036091A6037091A7037B
:100F3000452B462B472B69F30097A105B10541F0DE
:100F40002AE22A95F1F700C00197A109B109E1CF82
:100F50008091A3030C946D041F920F920FB60F9211
:100F600011242F933F938F939F93AF93BF938091BF
:100F7000DC039091DD03A091DE03B091DF0330919B
:100F8000DB0323E0230F2D3758F50196A11DB11D7A
:100F90002093DB038093DC039093DD03A093DE03B7
:100FA000B093DF038091E0039091E103A091E2030D
:100FB000B091E3030196A11DB11D8093E0039093CE
:100FC000E103A093E203B093E303BF91AF919F913C
:100FD0008F913F912F910F900FBE0F901F901895FA
:100FE00026E8230F0296A11DB11DD2CF1F920F92AA
:100FF0000FB60F9211240BB60F922F933F934F937E
:101000005F936F937F938F939F93AF93BF93EF9370
:10101000FF9384EE93E00E946703FF91EF91BF91ED
:10102000AF919F918F917F916F915F914F913F9180
:101030002F910F900BBE0F900FBE0F901F90189521
:101040001F920F920FB60F9211240BB60F922F938F
:101050008F939F93EF93FF93E091F403F091F50347
:101060008081E091FA03F091FB0382FD1DC0908125
:101070008091FD038F5F8F732091FE03821741F0F3
:10108000E091FD03F0E0EC51FC4F958F8093FD0360
:10109000FF91EF919F918F912F910F900BBE0F9029
:1010A0000FBE0F901F9018958081F2CF1F920F9264
:1010B0000FB60F9211240BB60F922F933F934F93BD
:1010C0005F936F937F938F939F93AF93BF93EF93B0
:1010D000FF938091B900887F803609F44DC008F0F5
:1010E00040C0883209F4A9C028F5803109F49DC0B8
:1010F000C8F4882309F4FBC0883009F496C0FF9136
:10110000EF91BF91AF919F918F917F916F915F917F
:101110004F913F912F910F900BBE0F900FBE0F90EC
:101120001F901895883109F488C0803241F7809368
:10113000A00314C0803409F49DC040F48033B9F397
:101140008833E9F68093A00385ECB0C0803509F4BC
:1011500085C0883509F496C0883489F60E947407E2
:10116000CECF883909F48CC038F5883729F050F48F
:10117000883611F0803719F683E08093A20310922D
:101180007B0357C0883809F47BC0803919F0803858
:1011900009F0B5CF80917B03803208F071C0E091F7
:1011A0007B0381E08E0F80937B038091BB00F0E096
:1011B000E55AFC4F80833DC0803B39F0E0F4803A33
:1011C00009F479C0883A09F09ACF84E08093A203A9
:1011D00010925A0310925903E091CC03F091CD0381
:1011E00019958091590381110FC081E080935903B3
:1011F0001092390309C0803C09F4A6CF883C09F459
:10120000A3CF883B09F07BCFE0915A0381E08E0F9A
:1012100080935A03F0E0E75CFC4F80818093BB0031
:1012200090915A038091590329C080917D03809346
:10123000BB0085EC8093BC0062CF90919F038091AE
:101240009E03981758F5E0919F0381E08E0F8093DD
:101250009F03F0E0E258FC4F8081E9CFE0919F03CB
:1012600081E08E0F80939F038091BB00F0E0E258F5
:10127000FC4F808390919F0380919E039817C8F242
:1012800085E8D8CFE0919F0381E08E0F80939F0384
:101290008091BB00F0E0E258FC4F80838091A10375
:1012A00081115CCF81E080937C0384EA8093BC0051
:1012B0001092A20324CF85EC8093BC001092A2036D
:1012C00080917B03803230F4E0917B03F0E0E55ABB
:1012D000FC4F108260917B0370E0E091CA03F091B3
:1012E000CB038BE593E0199510927B0308CF109206
:1012F000A00334CFCF93DF93FC01DB018D919C9150
:10130000119791838083108612968D919C911397EB
:1013100093838283118614968D919C919583848307
:1013200012861486138616861586108A1786128AE8
:10133000118A148A138A168A158A108E178A1782C0
:101340001682DF0190E080E0009751F41486138646
:101350000196129687309105B9F7DF91CF910895E4
:10136000EC01CE7FCE0FDF1F2B853C852F5F3F4FDB
:101370001C963C932E931B97EBCFCF93DF9300D01B
:1013800000D0CDB7DEB7E4EEF3E01382128288EE30
:1013900093E0A0E0B0E084839583A683B7832AEA34
:1013A00032E03183208325EC30E03587248724EC3C
:1013B00030E03787268720EC30E0318B208B21EC22
:1013C00030E0338B228B22EC30E0358B248B26EC03
:1013D00030E0378B268B118E128E138E148EE1E83F
:1013E000F4E01382128284839583A683B7838CEB07
:1013F00092E091838083EFEBF4E0138212828EEC13
:1014000092E09183808387E2848384E1818784E012
:101410008287138686E0EAE9F2E0DE011196019008
:101420000D928A95E1F7BE016F5F7F4F86EA94E0E7
:101430000E947A0986E0E0EAF2E0DE01119601906E
:101440000D928A95E1F7BE016F5F7F4F8DE894E0C2
:101450000E947A0926960FB6F894DEBF0FBECDBF64
:10146000DF91CF910895CF93DF93CDB7DEB7AB97E0
:101470000FB6F894DEBF0FBECDBF789484B58260FE
:1014800084BD84B5816084BD85B5826085BD85B528
:10149000816085BD80916E00816080936E001092A6
:1014A0008100809181008260809381008091810021
:1014B00081608093810080918000816080938000B2
:1014C0008091B10084608093B1008091B000816010
:1014D0008093B00080919100826080939100809110
:1014E0009100816080939100809190008160809351
:1014F00090008091A10082608093A1008091A10062
:1015000081608093A1008091A00081608093A00001
:10151000809121018260809321018091210181606D
:10152000809321018091200181608093200180912E
:101530007A00846080937A0080917A008260809340
:101540007A0080917A00816080937A0080917A009D
:10155000806880937A001092C10060E085E20E946A
:10156000520260E084E20E94520261E086E10E9441
:10157000520261E087E10E94520261E088E10E942C
:10158000520261E08DE20E94520261E08CE20E9410
:10159000520261E08BE20E94520261E08AE20E9404
:1015A000520261E089E20E94520261E088E20E94F8
:1015B000520261E087E20E94520261E089E10E94EA
:1015C000520261E08AE10E94520261E08BE10E94D6
:1015D000520261E08DE20E94520261E08CE20E94C0
:1015E000520261E08BE20E94520261E08AE20E94B4
:1015F000520261E089E20E94520261E088E20E94A8
:10160000520261E087E20E94520260E086E10E949D
:10161000240260E087E10E94240260E088E10E94E9
:10162000240261E08DE20E94240261E08CE20E94CB
:10163000240261E08BE20E94240261E08AE20E94BF
:10164000240261E089E20E94240261E088E20E94B3
:10165000240261E087E20E94240260E089E10E94A6
:10166000240260E08AE10E94240260E08BE10E9493
:10167000240261E08DE20E94240261E08CE20E947B
:10168000240261E08BE20E94240261E08AE20E946F
:10169000240261E089E20E94240261E088E20E9463
:1016A000240261E087E20E94240260E08091A604A7
:1016B0000E94520260E08091A8040E94520260E001
:1016C0008091AA040E94520260E080918D040E94E1
:1016D000520260E080918F040E94520260E080918B
:1016E00091040E945202E091F403F091F50382E02C
:1016F0008083E091F003F091F1031082E091F20316
:10170000F091F3038FEC80831092FC03E091F803D7
:10171000F091F90386E08083E091F603F091F703FE
:10172000808180618083E091F603F091F7038081EE
:1017300088608083E091F603F091F70380818068F0
:101740008083E091F603F091F70380818F7D8083A1
:101750001092D1031092D0031092CF031092CE03B7
:101760000E944F0481EF92E09093CD038093CC03CD
:1017700082EF92E09093CB038093CA031092C4044B
:101780008091C904823018F098E09093C40480934B
:10179000C70462E370E080E090E00E94BF026091C5
:1017A000CA048FEB94E00E94140568EE73E080E0B9
:1017B00090E00E94BF0260E38FEB94E00E94AD06D0
:1017C0000BE416E4C8010197F1F760E38FEB94E0B6
:1017D0000E94AD06C8010197F1F760E38FEB94E03A
:1017E0000E94AD0683E592E00197F1F760E28FEB8E
:1017F00094E00E94AD066091C404606240E08FEB0B
:1018000094E00E94C60684E08093C50440E06CE04A
:101810008FEB94E00E94C60640E061E08FEB94E01D
:101820000E94C6060BE31FE1C8010197F1F782E0B1
:101830008093C60440E066E08FEB94E00E94C60609
:1018400040E062E08FEB94E00E94C606C801019779
:10185000F1F788E08093CA0460E08FEB94E00E9487
:1018600014051092DA031092D903FF24F3949E0119
:101870002F5F3F4F690122E0222E312C86E30E9428
:10188000830287E30E94830288E30E94830288E345
:101890000E94830285E20E94FB018C01BB24B39469
:1018A000892B09F4B12CB092D30384E20E94FB018E
:1018B000012B49F08091D203811105C08091D4039E
:1018C0008F258093D403B092D20306EA14E09EEAF7
:1018D000A92E94E0B92ED8018C910E5F1F4F0E9463
:1018E000FB0121E0892B09F420E0F50121935F0140
:1018F000F4E00C3A1F0779F70DE814E085E9A82E0B
:1019000084E0B82ED8018C910E5F1F4F0E94FB011E
:1019100021E0892B09F420E0F50121935F0123E9FF
:1019200034E02017310771F703E010E08091AC0438
:101930009091AD041BA21AA21DA21CA21FA21EA25E
:101940004AE0B6010E94BB10F60101900020E9F7C1
:101950003197AF014C195D09B601CE0182960E9404
:1019600049071A8219821C821B821E821D8247E14E
:1019700050E066ED72E0C6010E9449078AA09BA074
:101980008114910409F45FC0AEA0BFA0A114B104FA
:10199000B1F08D819E81A80EB91EB501C6010E94CD
:1019A0002107882309F44FC029813A818D819E81C6
:1019B000B401820F931F0E942913BE82AD824D8114
:1019C0005E8169817A8184EE93E00E94F3026EEE7B
:1019D00072E084EE93E00E94120789819A81009759
:1019E00011F00E94B6118AA19BA1009711F00E94EC
:1019F000B6110150110909F099CF8FB7F894809072
:101A0000DC039090DD03A090DE03B090DF038FBF76
:101A10006090D9037090DA033BE06316710408F01C
:101A200066C0F3018827E85EF24F8F4F0C941211C5
:101A3000300D670FA30FF10F37102A0FDF0D190EAE
:101A4000810EDF0E731089819A81009711F00E9438
:101A5000B6111A8219821E821D821C821B82AFCF90
:101A6000E12C00E021E048E150E067E170E086E130
:101A700090E00E946B0621E04BE150E06AE170E0EB
:101A800089E190E00E946B068FEF9FEF0E94FE05B8
:101A90008091D5039091D603A091D703B091D8033C
:101AA000A5019401281B390B4A0B5B0BDA01C90114
:101AB000883E9340A105B10590F08092D5039092A5
:101AC000D603A092D703B092D8038091D40381119A
:101AD00073C086E090E09093DA038093D90386EA9E
:101AE00094E00E9480068DE894E00E94800640E029
:101AF00061E08FEB94E00E94C6068BE39FE10197C3
:101B0000F1F780E00E94DD0661EF72E08FEB94E078
:101B10000E9412078091D9039091DA0382309105D7
:101B200009F426C30CF017C369EF72E0892B09F49E
:101B30001AC381E00E94DD0660E173E08FEB94E060
:101B40000E9412072091D5033091D6034091D7030C
:101B50005091D80328513C4F4F4F5F4F6FB7F894C7
:101B60008091DC039091DD03A091DE03B091DF034F
:101B70006FBF281B390B4A0B5B0B19A28E010F5D3F
:101B80001F4FCA01B9012AE030E040E050E00E9456
:101B9000F010605DD8016E938D012115310541056E
:101BA000510579F7109729F0BD018FEB94E00E9461
:101BB00012070E94F60362CE8AE090E08CCFE12CFF
:101BC00001E021E048E150E067E170E086E190E06B
:101BD0000E946B0600E021E04BE150E06AE170E01A
:101BE00089E190E00E946B068FEF9FEF0E94FE0557
:101BF0008091D5039091D603A091D703B091D803DB
:101C0000A5019401281B390B4A0B5B0BDA01C901B2
:101C1000803D9740A105B10508F461CF8092D503BE
:101C20009092D603A092D703B092D80387E090E0B9
:101C300052CFEE24E39400E020E048E150E067E179
:101C400070E086E190E00E946B06E12C21E04BE120
:101C500050E06AE170E089E190E00E946B064090FC
:101C6000D5035090D6036090D7037090D80360914D
:101C7000930470919404072E000C880B990B930128
:101C800082010059184E2F4F3F4F600F711F821F66
:101C9000931F681979098A099B0928EE33E040E00F
:101CA00050E00E94F010C9010E94FE05B501A40198
:101CB00044195509660977098091AC049091AD04E7
:101CC000092E000CAA0BBB0B8053984FAF4FBF4F90
:101CD000481759076A077B0708F405CF8092D50398
:101CE0009092D603A092D703B092D80388E090E0F8
:101CF0009093DA038093D9031092AD041092AC0450
:101D0000F2CE4090D5035090D6036090D7037090E8
:101D1000D803D501C40184199509A609B70988A774
:101D200099A7AAA7BBA7BC01CD012AEF30E040E0EC
:101D300050E00E94F0102170E22E00E020E048E127
:101D400050E067E170E086E190E00E946B06E12CD4
:101D500021E04BE150E06AE170E089E190E00E940F
:101D60006B0690EA490E9FE0591E611C711CC3016D
:101D7000B201681979098A099B0928EE33E040E02D
:101D800050E00E94F010C9010E94FE0528A539A567
:101D90004AA55BA5203D37404105510508F4A3CE77
:101DA0008092D5039092D603A092D703B092D80325
:101DB00089E090E09093DA038093D90394CEE12CEC
:101DC00001E020E048E150E067E170E086E190E06A
:101DD0000E946B0600E021E04BE150E06AE170E018
:101DE00089E190E00E946B064090D5035090D603A5
:101DF0006090D7037090D803C301B2016053784F4D
:101E00008F4F9F4F681979098A099B0928EE33E0A3
:101E100040E050E00E94F010C9010E94FE05D5018B
:101E2000C40184199509A609B709883E9340A10504
:101E3000B10508F454CE8FEF9FEF0E94FE0580920B
:101E4000D5039092D603A092D703B092D80385E031
:101E500090E041CEE12C00E021E048E150E067E174
:101E600070E086E190E00E946B0621E04BE150E0DB
:101E70006AE170E089E190E00E946B068FEF9FEFCE
:101E80000E94FE058091D5039091D603A091D703BF
:101E9000B091D803A5019401281B390B4A0B5B0BA9
:101EA000DA01C901883E9340A105B10508F417CEB7
:101EB0008092D5039092D603A092D703B092D80314
:101EC0008091D403811178CE81E090E004CEE12CA2
:101ED00000E021E048E150E067E170E086E190E059
:101EE0000E946B0601E021E04BE150E06AE170E006
:101EF00089E190E00E946B068FEF9FEF0E94FE0544
:101F00008091D5039091D603A091D703B091D803C7
:101F1000A5019401281B390B4A0B5B0BDA01C9019F
:101F2000803D9740A105B10508F4D9CD8092D50335
:101F30009092D603A092D703B092D8033092DA03DE
:101F40002092D903CCCDE12C00E021E048E150E023
:101F500067E170E086E190E00E946B06EE24E39476
:101F600020E04BE150E06AE170E089E190E00E94FE
:101F70006B068FEF9FEF0E94FE058091D503909135
:101F8000D603A091D703B091D803B501A401481B93
:101F9000590B6A0B7B0B8091930490919404092E4A
:101FA000000CAA0BBB0B8053984FAF4FBF4F481785
:101FB00059076A077B0790F08092D5039092D60369
:101FC000A092D703B092D80343E050E05093DA03D5
:101FD0004093D903109294041092930486EA94E0FB
:101FE00084CDE12C00E021E048E150E067E170E0C1
:101FF00086E190E00E946B068091D5039091D60314
:10200000A091D703B091D80324013501481A590A89
:102010006A0A7B0AC301B2012AEF30E040E050E0D7
:102020000E94F0102170E22E20E04BE150E06AE1C6
:1020300070E089E190E00E946B068FEF9FEF0E94B5
:10204000FE0550ED451657E055066104710430F267
:102050008092D5039092D603A092D703B092D80372
:1020600084E090E09093DA038093D903B7CFE12C1A
:1020700000E021E048E150E067E170E086E190E0B7
:102080000E946B0601E020E04BE150E06AE170E065
:1020900089E190E00E946B068FEF9FEF0E94FE05A2
:1020A0008091D5039091D603A091D703B091D80326
:1020B000A5019401281B390B4A0B5B0BDA01C901FE
:1020C000883E9340A105B10508F409CD8092D5035F
:1020D0009092D603A092D703B092D8031092DA035D
:1020E0001092D903FCCC8091D5039091D603A09196
:1020F000D703B091D803A5019401281B390B4A0BD3
:102100005B0BCA01B9012AEF30E040E050E00E94C9
:10211000F010122F1170E12C012F20E048E150E067
:1021200067E170E086E190E00E946B0600E0212FFD
:102130004BE150E06AE170E089E190E00E946B06BB
:102140008091D403811102C0712C612C7092DA034A
:102150006092D903CCCC8430910519F0099709F02D
:10216000E8CC6FEF72E08FEB94E00E941207E1CCB5
:1021700069E073E0F8CFBB274A3031F4992322F4A9
:10218000BDE2909581959F4F0C94C710BB27FB0132
:102190005527AA27880F991FAA1FA41710F0A41B60
:1021A00083955051B9F7A05DAA3308F0A95DA193BA
:1021B000009779F7B111B1931192CB010C94E01013
:1021C000DC01FC01672F71917723E1F7329704C09E
:1021D0007C916D9370836291AE17BF07C8F3089529
:1021E000A1E21A2EAA1BBB1BFD010DC0AA1FBB1F1B
:1021F000EE1FFF1FA217B307E407F50720F0A21B8D
:10220000B30BE40BF50B661F771F881F991F1A94F9
:1022100069F760957095809590959B01AC01BD0123
:10222000CF010895EE0FFF1F881F8BBF0790F69117
:10223000E02D19940F931F93CF93DF938230910574
:1022400010F482E090E0E091CD04F091CE0430E013
:1022500020E0B0E0A0E0309799F42115310509F4B1
:102260004AC0281B390B24303105D8F58A819B815F
:102270006115710589F1FB0193838283FE0111C011
:10228000408151810281138148175907E0F04817B6
:10229000590799F4109761F012960C9312971396C0
:1022A0001C933296CF01DF91CF911F910F9108952A
:1022B0000093CD041093CE04F4CF2115310551F0D5
:1022C0004217530738F0A901DB019A01BD01DF0174
:1022D000F801C1CFEF01F9CF9093CE048093CD04E4
:1022E000CDCFFE01E20FF31F81939193225031096C
:1022F00039832883D7CF2091CB043091CC04232B72
:1023000041F420910202309103023093CC042093D7
:10231000CB0420910002309101022115310541F4D6
:102320002DB73EB74091040250910502241B350B96
:10233000E091CB04F091CC04E217F307A0F42E1B3C
:102340003F0B2817390778F0AC014E5F5F4F241719
:10235000350748F04E0F5F1F5093CC044093CB04D9
:10236000819391939FCFF0E0E0E09CCFCF93DF93F8
:102370000097E9F0FC01329713821282A091CD04FC
:10238000B091CE04ED0130E020E01097A1F420815F
:102390003181820F931F2091CB043091CC042817F8
:1023A000390709F061C0F093CC04E093CB04DF91CE
:1023B000CF910895EA01CE17DF07E8F54A815B81E6
:1023C0009E0141155105B1F7E901FB83EA8349916B
:1023D0005991C40FD51FEC17FD0761F480819181DD
:1023E0000296840F951FE9019983888382819381E6
:1023F0009B838A83F0E0E0E012968D919C91139785
:102400000097B9F52D913C911197CD010296820F5D
:10241000931F2091CB043091CC042817390739F64B
:10242000309751F51092CE041092CD04B093CC04A5
:10243000A093CB04BCCFD383C28340815181840F4E
:10244000951FC817D90761F44E5F5F4F8881998146
:10245000480F591F518340838A819B8193838283D4
:102460002115310509F0B0CFF093CE04E093CD04EF
:102470009ECFFD01DC01C0CF13821282D7CF4F92D5
:102480005F926F927F928F929F92AF92BF92CF9204
:10249000DF92EF92FF920F931F93CF93DF938C0104
:1024A000009799F4CB01DF91CF911F910F91FF908D
:1024B000EF90DF90CF90BF90AF909F908F907F90E4
:1024C0006F905F904F900C941A11FC01E60FF71F6C
:1024D0009C0122503109E217F30708F4AEC0D9017C
:1024E000CD91DC911197C617D70720F1C530D105E2
:1024F00078F0CE0104978617970750F0C61BD70BCC
:102500002297C193D1936D937C93CF010E94B61112
:10251000C801DF91CF911F910F91FF90EF90DF9055
:10252000CF90BF90AF909F908F907F906F905F9073
:102530004F9008955B01AC1ABD0A4C018C0E9D1E94
:10254000A091CD04B091CE04512C412CF12CE12C62
:10255000109731F58091CB049091CC0488159905A2
:1025600009F05CC04616570608F058C0809100027A
:1025700090910102009741F48DB79EB740910402FB
:1025800050910502841B950BE817F90708F055C018
:10259000F093CC04E093CB04F90171836083B8CF4E
:1025A0008D919C91119712966C90129713967C9036
:1025B0001397A815B90559F56C0142E0C40ED11C5A
:1025C000CA14DB0420F1AC014A195B09DA01129646
:1025D000159780F06282738251834083D9016D9395
:1025E0007C93E114F10471F0D7011396FC93EE9300
:1025F00012978ECF22968C0F9D1FF90191838083B5
:10260000F301EFCFF093CE04E093CD0481CF4816D1
:10261000590608F42C017D01D3019ACFCB010E9409
:102620001A117C01009749F0AE01B8010E942013F5
:10263000C8010E94B61187016BCF10E000E068CF9F
:10264000FB01DC0102C001900D9241505040D8F7CF
:102650000895FB01DC0101900D920020E1F708953F
:04266000F894FFCF1C
:102664000000CF0480000000000000000000000013
:102674000000010001000000000001000100010051
:102684000100000000000100000000000100000043
:102694000000000000000000010001000000010033
:1026A4000000000001000100000000000000010023
:1026B4000000000001000000000000000100000014
:1026C4000000000000000000000000000000010005
:1026D40001000100010000000000000000000000F3
:1026E40000000000000000000000000001000000E5
:1026F40000000000400014005400210022002300C8
:102704001E001F002000000000008903F3022003C4
:10271400D60351032F03430300000000E504B8046B
:10272400FB058E04B1049E048F04000000000C0716
:10273400F302FB0527046573746F7320736F6E20B7
:102744006C6F732074696D65706F733A20000D0AA5
:102754000045737461646F3A0020524F4A4F002061
:10276400414D4152494C4C4F00205645524445007E
:082774005469656D706F3A00B5
:00000001FF
