:100000000C9470010C94A1010C94A1010C94A10119
:100010000C94A1010C94A1010C94A1010C94A101D8
:100020000C94A1010C94A1010C94A1010C94A101C8
:100030000C94A1010C94A1010C94A1010C94A101B8
:100040000C94A1010C94A1010C94A1010C94A101A8
:100050000C94A1010C94A1010C94A1010C94B20880
:100060000C94A1010C9426090C94FC080C94A10199
:100070000C94A1010C94A1010C94A1010C94A10178
:100080000C94A1010C94A1010C94A1010C94A10168
:100090000C94A1010C94A1010C94A1010C945C0995
:1000A0000C94A1010C94A1010C94A1010C94A10148
:1000B0000C94A1010C94A1010C94A1010C94A10138
:1000C0000C94A1010C94A1010C94A1010C94A10128
:1000D0000C94A1010C94A1010C94A1010C94A10118
:1000E0000C94A1010C9496050C94F5020C9429042F
:1000F0000C94D2020C94FC010C9473050C94D7025E
:100100000C94D90A0C94E1020C94D3010C94F801DC
:100110000C9446030C94D9030C94FD020C945003E8
:100120000C9406040C9406020C9419030C94D6014A
:100130000C94EB020C9423030C94E0010C946403E4
:100140000C943C030C9437040C94CA050C94EE01F7
:100150000C94C1010C94BC040C94CF010C94D803F2
:100160000C9479130C94CA020C9416080C94C701D1
:100170000C94E0060C9401020C945A030C94DC01DC
:100180000C9415040C9474050C949D050C940F03A9
:100190000C94D7030C94F4010C94E6010C943203F4
:1001A0000C9405030C94EA010C9483050C946F04E1
:1001B0000C94E1060C94CB010C9402020000210087
:1001C000240027002A002D00300033000101000028
:1001D000040107010A0100002200250028002B006D
:1001E0002E003100340002010000050108010B015E
:1001F000000020002300260029002C002F003200E0
:1002000000010000030106010901050505050705B8
:1002100008080808020202020A0A08080404040482
:1002200001010101010101010303030303030303AE
:10023000040707070C0C0C0C0C0C0C0C020202023D
:1002400006060606060606060B0B0B0B0B0B0B0B26
:1002500001021020200808102040102040800201D8
:1002600002010804020101020408102040808040BD
:1002700020100804020180040201804020100804BC
:10028000020108040201010204081020408001025A
:1002900004081020408000000A0B02090C0D0E0813
:1002A000070304010000000000000000000000003F
:1002B000000000000000000000000000000000003E
:1002C00000001211100000000000000000000000FB
:1002D000000000000000000000000000D90A7913AF
:1002E00011241FBECFEFD1E2DEBFCDBF00E00CBFB7
:1002F00013E0A0E0B2E0ECECFCE200E00BBF02C0D7
:1003000007900D92AC37B107D9F726E0ACE7B3E020
:1003100001C01D92A339B207E1F711E0CFE6D1E0A9
:1003200000E006C021970109802FFE010E941B14E6
:10033000CE36D10780E00807A9F70E94CB0B0C94BA
:1003400054160C9400008150823108F05AC0E82FF6
:10035000F0E08827E155FE4F8F4F0C941B14CF011E
:10036000D301C101C701CB010102D601DC01E001CB
:10037000E601EA01EE01F401F8010102FC010202CA
:100380000602809180008F7780938000089580918D
:1003900080008F7DF9CF80918000877FF5CF84B575
:1003A0008F7784BD089584B58F7DFBCF8091B00099
:1003B0008F778093B00008958091B0008F7DF9CF42
:1003C000809190008F7780939000089580919000A5
:1003D0008F7DF9CF80919000877FF5CF8091A0002D
:1003E0008F778093A00008958091A0008F7DF9CF32
:1003F0008091A000877FF5CF809120018F77809337
:1004000020010895809120018F7DF9CF80912001F6
:10041000877FF5CFCF93DF93282F30E0F901EA569D
:10042000FD4F8491F901E05BFD4FD491F901E65F46
:10043000FD4FC491CC23A1F081110E94A301EC2FA8
:10044000F0E0EE0FFF1FE051FE4FA591B491EC914B
:10045000ED2381E090E009F480E0DF91CF910895F1
:1004600080E090E0FACF1F93CF93DF93282F30E006
:10047000F901EA56FD4F8491F901E05BFD4FD491FB
:10048000F901E65FFD4FC491CC23A9F0162F81112D
:100490000E94A301EC2FF0E0EE0FFF1FEA52FE4F87
:1004A000A591B4918FB7F894EC91111108C0D09533
:1004B000DE23DC938FBFDF91CF911F910895DE2B58
:1004C000F8CFCF93DF9390E0FC01E05BFD4F2491E8
:1004D000865F9D4FFC0184918823D1F090E0880FC6
:1004E000991FFC01E454FE4FA591B491FC01EA521E
:1004F000FE4FC591D49161110EC09FB7F8948C91B5
:10050000E22FE0958E238C932881E223E8839FBF1E
:10051000DF91CF9108958FB7F894EC91E22BEC9393
:100520008FBFF6CF1F93CF93DF93182FEB0161E0BE
:100530000E946102209739F460E0812FDF91CF9112
:100540001F910C943302CF3FD10511F461E0F5CF38
:10055000E12FF0E0EA56FD4FE491E150E23108F07E
:10056000B3C0F0E08827E854FD4F8F4F0C941B1464
:10057000CA02D202D702E102EB026403F502FD02D5
:1005800005030F031903230332033C0364034603EB
:1005900050035A0384B5806884BDC7BDDF91CF91F5
:1005A0001F91089584B5806284BDC8BDF7CF809146
:1005B0008000806880938000D0938900C093880079
:1005C000EDCF80918000806280938000D0938B007B
:1005D000C0938A00E3CF8091800088608093800080
:1005E000D0938D00C0938C00D9CF8091B0008068EB
:1005F0008093B000C093B300D1CF8091B0008062EF
:100600008093B000C093B400C9CF809190008068FF
:1006100080939000D0939900C0939800BFCF8091B1
:100620009000806280939000D0939B00C0939A00CA
:10063000B5CF80919000886080939000D0939D000A
:10064000C0939C00ABCF8091A00080688093A000F5
:100650008091A0008F7B8093A000D093A900C093CD
:10066000A8009CCF8091A00080628093A000D093CE
:10067000AB00C093AA0092CF8091A00088608093C5
:10068000A000D093AD00C093AC0088CF8091200132
:10069000806880932001D0932901C09328017ECFE8
:1006A00080912001806280932001D0932B01C09320
:1006B0002A0174CF80912001886080932001D0931B
:1006C0002D01C0932C016ACFC038D1050CF03ECF6C
:1006D00033CF90917B00977F90937B00865380640B
:1006E00080937C0080917A00806480937A0080916E
:1006F0007A0086FDFCCF8091780090917900089572
:100700003FB7F89480914E0490914F04A09150040B
:10071000B091510426B5A89B05C02F3F19F0019652
:10072000A11DB11D3FBFBA2FA92F982F8827BC014B
:10073000CD01620F711D811D911D42E0660F771F73
:10074000881F991F4A95D1F708958F929F92AF9273
:10075000BF92CF92DF92EF92FF924B015C010E9419
:1007600080036B017C010E9480036C197D098E0956
:100770009F09683E734081059105A8F321E0821A24
:100780009108A108B10888EEC80E83E0D81EE11CCC
:10079000F11C81149104A104B10429F7FF90EF909A
:1007A000DF90CF90BF90AF909F908F900895089565
:1007B0000895AF92BF92CF92DF92EF92FF920F9384
:1007C0001F93CF93DF936C017B018B01040F151FE7
:1007D000EB015E01AE18BF08C017D10759F069914F
:1007E000D601ED91FC910190F081E02DC6011995A3
:1007F000892B79F7C501DF91CF911F910F91FF9060
:10080000EF90DF90CF90BF90AF900895FC01538D93
:10081000448D252F30E0842F90E0821B930B5417DA
:1008200010F0CF96089501970895FC01918D828D67
:10083000981761F0A28DAE0FBF2FB11D5D968C9100
:10084000928D9F5F9F73928F90E008958FEF9FEF3F
:100850000895FC01918D828D981731F0828DE80FFB
:10086000F11D858D90E008958FEF9FEF0895FC01B5
:10087000918D228D892F90E0805C9F4F821B910982
:100880008F739927089582E594E00E94370421E050
:10089000892B09F420E0822F0895FC01A48DA80F74
:1008A000B92FB11DA35ABF4F2C91848D90E00196B2
:1008B0008F739927848FA689B7892C93A089B189D2
:1008C0008C91837080648C93938D848D981306C073
:1008D0000288F389E02D80818F7D80830895EF92D7
:1008E000FF920F931F93CF93DF93EC0181E0888FEA
:1008F0009B8D8C8D98131AC0E889F989808185FFBA
:1009000015C09FB7F894EE89FF896083E889F9895B
:1009100080818370806480839FBF81E090E0DF915D
:10092000CF911F910F91FF90EF900895F62E0B8DB0
:1009300010E00F5F1F4F0F731127E02E8C8D8E116B
:100940000CC00FB607FCFACFE889F989808185FFD2
:10095000F5CFCE010E944D04F1CFEB8DEC0FFD2FB2
:10096000F11DE35AFF4FF0829FB7F8940B8FEA898D
:10097000FB8980818062CFCFCF93DF93EC01888D9C
:100980008823B9F0AA89BB89E889F9898C9185FD0A
:1009900003C0808186FD0DC00FB607FCF7CF8C9198
:1009A00085FFF2CF808185FFEDCFCE010E944D04FF
:1009B000E9CFDF91CF91089580E090E0892B29F075
:1009C0000E94430481110E94000080E090E0892B86
:1009D00049F080E090E0892B29F00E94000081110D
:1009E0000E94000080E090E0892B49F080E090E0D8
:1009F000892B29F00E94000081110E94000080E0F4
:100A000090E0892B49F080E090E0892B29F00E944A
:100A1000000081110C94000008952091E403260F3A
:100A20003327331F21323105ECF420910804FC01F7
:100A300090E080E0243069F082E00895A091E40322
:100A40002191AC014C535C4FA40FB52FB11D2C93D9
:100A50000196861798F38091E403680F6093E4038E
:100A600080E0089581E008951092080481E0809369
:100A70000A041092090461E084E10E94330261E0FB
:100A800085E10E943302E9EBF0E080818E7F808374
:100A900080818D7F808388E48093B80085E4809393
:100AA000BC000895CF93DF9391E09093C303882314
:100AB000B9F0C091B800D091BA008091BC008A7B97
:100AC0008093BC0060E084E10E94330260E085E135
:100AD0000E9433020E943405D093BA00C093B8003C
:100AE000DF91CF9108950895E09135048091340409
:100AF000E81730F4F0E0E256FC4F808190E0089572
:100B00008FEF9FEF089590913504809134042FEF7B
:100B10003FEF981748F4E92FF0E0E256FC4F2081B0
:100B200030E09F5F90933504C901089580913404AB
:100B300090913504891B990B0895CF92DF92EF9223
:100B4000FF920F931F93CF93DF937C01CB018A0118
:100B500020919D03222389F0EB016B01C40ED51E69
:100B6000CC15DD0569F06991D701ED91FC910190FB
:100B7000F081E02DC7011995F3CF642F0E940D0578
:100B8000C801DF91CF911F910F91FF90EF90DF90FF
:100B9000CF900895CF93DF931F92CDB7DEB76983CF
:100BA00020919D032223F9F020913204203258F045
:100BB00021E030E0FC013383228390E080E00F905D
:100BC000DF91CF91089580913304E82FF0E0E3584E
:100BD000FC4F998190838F5F80933304809332041C
:100BE00081E090E0ECCF61E0CE0101960E940D051E
:100BF000F7CFCF92DF92EF92FF920F931F93CF9395
:100C0000DF93FC01C48121E020939D03C0937C030A
:100C100010923304109232048385682B8FEE94E097
:100C20000E94CA05D0913204D13208F092C00E94CD
:100C300080036B017C0180910804811165C082E012
:100C40008093080481E080930A048FEF8093070467
:100C500010922C04D0932B04ADE7B3E0EBE0F4E06A
:100C600080E0D81385C010922D0480912D04CC0F04
:100C7000C82BC0932D0480910904813009F07CC0F9
:100C8000109209040E9480036B017C0180912D0465
:100C90008093BB008091BF039091C003A091C103DA
:100CA000B091C203892B8A2B8B2B99F00E94800371
:100CB0000091BF031091C0032091C1033091C20382
:100CC0006C197D098E099F09061717072807390730
:100CD000E0F18091BC0083FDD9CF85EC8093BC000E
:100CE0000E9480036B017C0180910804823009F42A
:100CF00045C0809107048F3F61F1809107048032E5
:100D000041F18091070425C08091BF039091C003F9
:100D1000A091C103B091C203892B8A2B8B2B09F4BC
:100D20008ACF0E9480030091BF031091C0032091DD
:100D3000C1033091C2036C197D098E099F09061702
:100D400017072807390708F076CF8091BE030E9465
:100D50005205109233041092320410929D03DF91D9
:100D6000CF911F910F91FF90EF90DF90CF9008955A
:100D70009D9191938F5F75CF85EEB0CF8091BF032A
:100D80009091C003A091C103B091C203892B8A2B1B
:100D90008B2B09F4A9CF0E9480030091BF0310910F
:100DA000C0032091C1033091C2036C197D098E09E3
:100DB0009F09061717072807390708F095CFC5CFF1
:100DC000089590E080E0089580912005909121059C
:100DD00088519C4F68EE73E00E9407147695762F39
:100DE0006627779567952091390430913A048FEF03
:100DF00091E0861B970B2817390734F061507E4F1E
:100E000081E0621773070CF480E00895CF92DF92BF
:100E1000EF92FF920F931F93CF93DF93C62ED42EA2
:100E2000C0910202D0910302C29FB001C39F700D16
:100E3000D29F700D11240E949202C09FB001C19FE9
:100E4000700DD09F700D11248C2D0E949202CE9DAA
:100E5000B001CF9D700DDE9D700D11248D2DDF91A1
:100E6000CF911F910F91FF90EF90DF90CF900C9456
:100E70009202DC011A968C911A97882369F01996D0
:100E80008C911997882301F118968C91189730E06E
:100E900020E0882319F0089522E030E0220F331F6C
:100EA000FD01E20FF31F83859485019648EE53E020
:100EB000849F9001859F300D949F300D11241796CB
:100EC0003C932E931697E7CF21E030E0E7CF0F93C6
:100ED0001F93CF93DF93EC01C656DF4F8C0108556B
:100EE0001F4F8881229661E00E946102FE013297C5
:100EF00061E080810E943302C017D10791F7DF9132
:100F0000CF911F910F910895CF92DF92EF92FF92B0
:100F10000F931F93CF93DF936C016A30710510F02C
:100F20006AE070E0860106561F4F8EE0869F7001D2
:100F3000879FF00C1124D0E0C0E0F80180810E5FA3
:100F40001F4FFE01EE0DFF1DEC0DFD1D60810E9487
:100F500033022296CE30D10581F7DF91CF911F91D8
:100F60000F91FF90EF90DF90CF9008950F931F9314
:100F7000CF938C01C62F0E94F9056C2F6460C801C5
:100F80000E94F9056C2F6B7FC8010E94F90583EC64
:100F900090E00197F1F7CF911F910F9108950F9372
:100FA0001F93CF93DF938C01D62FC42F607F642BC8
:100FB0000E94B60780E1D89FB00111246C2BC801B4
:100FC000DF91CF911F910F910C94B607CF93DF93D0
:100FD00000D000D01F921F92CDB7DEB798E0E8EAAC
:100FE000F2E0DE01119601900D929A95E1F7909151
:100FF0008B06981710F48FEF890F90E0880F991FD8
:1010000021E030E02C0F3D1F820F931FFC01608117
:10101000606840E083E896E028960FB6F894DEBF5B
:101020000FBECDBFDF91CF910C94CF0741E00E945E
:10103000CF0781E090E008950F931F93CF93DF9344
:10104000EC0188819981009759F02A813B8126170C
:10105000370730F081E0DF91CF911F910F91089514
:101060008B016F5F7F4F0E946315009759F0998342
:1010700088831B830A832C813D81232B59F7FC0134
:101080001082E8CF80E0E7CFEF92FF920F931F939B
:10109000CF93DF93EC017B01FB0101900020E9F786
:1010A00031978F01061B170BB8010E941C0828817D
:1010B0003981811113C02115310519F0C9010E9430
:1010C000DA14198218821D821C821B821A82DF9117
:1010D000CF911F910F91FF90EF9008951D830C8386
:1010E000B701C901DF91CF911F910F91FF90EF9050
:1010F0000C944D1685ED8093BC008091BF039091B8
:10110000C003A091C103B091C2030796A11DB11DF8
:1011100023E0B695A795979587952A95D1F72091C5
:10112000BC0024FD03C01092080408954091BF0341
:101130005091C0036091C1037091C203452B462BAF
:10114000472B69F30097A105B10541F02AE22A95E2
:10115000F1F700C00197A109B109E1CF8091BE0369
:101160000C9452051F920F920FB60F9211242F93D9
:101170003F938F939F93AF93BF9380914A04909135
:101180004B04A0914C04B0914D043091490423E0EC
:10119000230F2D3758F50196A11DB11D2093490449
:1011A00080934A0490934B04A0934C04B0934D0455
:1011B00080914E0490914F04A0915004B09151043D
:1011C0000196A11DB11D80934E0490934F04A093EE
:1011D0005004B0935104BF91AF919F918F913F9173
:1011E0002F910F900FBE0F901F90189526E8230F98
:1011F0000296A11DB11DD2CF1F920F920FB60F9272
:1012000011240BB60F922F933F934F935F936F93DD
:101210007F938F939F93AF93BF93EF93FF9382E559
:1012200094E00E944D04FF91EF91BF91AF919F9187
:101230008F917F916F915F914F913F912F910F907F
:101240000BBE0F900FBE0F901F9018951F920F921C
:101250000FB60F9211240BB60F922F938F939F937B
:10126000EF93FF93E0916204F09163048081E09139
:101270006804F091690482FD1DC0908180916B0427
:101280008F5F8F7320916C04821741F0E0916B04A3
:10129000F0E0EE5AFB4F958F80936B04FF91EF9136
:1012A0009F918F912F910F900BBE0F900FBE0F90BB
:1012B0001F9018958081F2CF1F920F920FB60F9258
:1012C00011240BB60F922F933F934F935F936F931D
:1012D0007F938F939F93AF93BF93EF93FF938091EF
:1012E000B900887F803609F44DC008F040C08832CC
:1012F00009F4A9C028F5803109F49DC0C8F48823F9
:1013000009F4FBC0883009F496C0FF91EF91BF91BA
:10131000AF919F918F917F916F915F914F913F918D
:101320002F910F900BBE0F900FBE0F901F9018952E
:10133000883109F488C0803241F78093070414C0D3
:10134000803409F49DC040F48033B9F38833E9F662
:101350008093070485ECB0C0803509F485C08835DA
:1013600009F496C0883489F60E947A08CECF88396D
:1013700009F48CC038F5883729F050F4883611F01C
:10138000803719F683E0809308041092060457C052
:10139000883809F47BC0803919F0803809F0B5CF5E
:1013A00080910604803208F071C0E091060481E06B
:1013B0008E0F809306048091BB00F0E0EA51FC4F51
:1013C00080833DC0803B39F0E0F4803A09F479C075
:1013D000883A09F09ACF84E0809308041092E503DC
:1013E0001092E403E0913004F0913104199580915A
:1013F000E40381110FC081E08093E4031092C403E1
:1014000009C0803C09F4A6CF883C09F4A3CF883BEF
:1014100009F07BCFE091E50381E08E0F8093E50337
:10142000F0E0EC53FC4F80818093BB009091E5038A
:101430008091E40329C080912D048093BB0085EC4A
:101440008093BC0062CF90912C0480912B0498175C
:1014500058F5E0912C0481E08E0F80932C04F0E08D
:10146000E55FFB4F8081E9CFE0912C0481E08E0F96
:1014700080932C048091BB00F0E0E55FFB4F8083FC
:1014800090912C0480912B049817C8F285E8D8CF4E
:10149000E0912C0481E08E0F80932C048091BB009E
:1014A000F0E0E55FFB4F808380910A0481115CCFFF
:1014B00081E08093090484EA8093BC0010920804C0
:1014C00024CF85EC8093BC00109208048091060420
:1014D000803230F4E0910604F0E0EA51FC4F1082D3
:1014E0006091060470E0E0912E04F0912F0486EEE6
:1014F00093E019951092060408CF1092070434CF98
:10150000CF93DF93FC01DB018D919C911197918327
:101510008083108612968D919C911397938382837A
:10152000118614968D919C919583848312861486DE
:10153000138616861586108A1786128A118A148ACF
:10154000138A168A158A108E178A17821682DF016F
:1015500090E080E0009751F414861386019612966D
:1015600087309105B9F7DF91CF910895EC01CE7FD7
:10157000CE0FDF1F2B853C852F5F3F4F1C963C9382
:101580002E931B97EBCF2AE9EEE0F2E0DC0101900D
:101590000D922A95E1F7FB01DC01A656BF4FCB0166
:1015A0000E96219131912D933D93E817F907C9F7D4
:1015B0000895CF93DF93CDB7DEB72E970FB6F8948B
:1015C000DEBF0FBECDBF109255041092540488EEBA
:1015D00093E0A0E0B0E08093560490935704A0936A
:1015E0005804B09359042CED32E030935304209307
:1015F000520425EC30E030935F0420935E0424EC29
:1016000030E0309361042093600420EC30E03093AC
:1016100063042093620421EC30E03093650420934E
:10162000640422EC30E0309367042093660426ECD7
:1016300030E0309369042093680410926B04109298
:101640006C0410926D0410926E041092F2041092C9
:10165000F1048093F3049093F404A093F504B09301
:10166000F6048EEE92E09093F0048093EF041092D3
:1016700086061092850680E093E09093840680931E
:10168000830687E28093870684E180938C0684E05A
:1016900080938D0610928E068EE0E0EBF2E0DE0184
:1016A000119601900D928A95E1F7BE016F5F7F4F11
:1016B0008BED95E00E94C30A8EE0EEEBF2E0DE01D6
:1016C000119601900D928A95E1F7BE016F5F7F4FF1
:1016D00083E395E00E94C30A86E0ECECF2E0DE01D1
:1016E000119601900D928A95E1F7BE016F5F7F4FD1
:1016F0008AE195E00E94800A86E0E2EDF2E0DE01F8
:10170000119601900D928A95E1F7BE016F5F7F4FB0
:1017100081E095E00E94800A1092FC041092FB0484
:101720001092FE041092FD04109200051092FF0426
:101730006FE070E08BEF94E00E941C082091FB04A6
:101740003091FC0481111BC02115310519F0C9012C
:101750000E94DA141092FC041092FB04109200050F
:101760001092FF041092FE041092FD042E960FB604
:10177000F894DEBF0FBECDBFDF91CF9108958FE00B
:1017800090E0909300058093FF0468E073E0C90146
:101790000E944D16EBCFCF93DF93CDB7DEB76C979A
:1017A0000FB6F894DEBF0FBECDBF789484B58260CB
:1017B00084BD84B5816084BD85B5826085BD85B5F5
:1017C000816085BD80916E00816080936E00109273
:1017D00081008091810082608093810080918100EE
:1017E000816080938100809180008160809380007F
:1017F0008091B10084608093B1008091B0008160DD
:101800008093B000809191008260809391008091DC
:10181000910081608093910080919000816080931D
:1018200090008091A10082608093A1008091A1002E
:1018300081608093A1008091A00081608093A000CE
:10184000809121018260809321018091210181603A
:1018500080932101809120018160809320018091FB
:101860007A00846080937A0080917A00826080930D
:101870007A0080917A00816080937A0080917A006A
:10188000806880937A001092C10060E085E20E9437
:10189000610260E084E20E94610261E082E00E94F5
:1018A000610261E083E00E94610261E084E00E94E5
:1018B000610261E085E00E94610261E086E00E94D1
:1018C000610261E087E00E94610260E082E00E94C4
:1018D000330260E083E00E94330260E084E00E9413
:1018E000330260E085E00E94330260E086E00E94FF
:1018F000330260E087E00E9433028BED95E00E94A6
:10190000670783E395E00E946707E0916204F09126
:10191000630482E08083E0915E04F0915F041082B2
:10192000E0916004F09161048FEC808310926A046E
:10193000E0916604F091670486E08083E09164049E
:10194000F0916504808180618083E0916404F0916E
:101950006504808188608083E0916404F09165046F
:10196000808180688083E0916404F09165048081C7
:101970008F7D8083109235041092340410923304CA
:10198000109232040E94340587ED93E09093310465
:101990008093300488ED93E090932F0480932E047D
:1019A0001092880680918D06823018F098E090930E
:1019B000880680938B0662E370E080E090E00E94EE
:1019C000A50360918E0683E896E00E94F90568EE13
:1019D00073E080E090E00E94A50360E383E896E076
:1019E0000E94B6070BE416E4C8010197F1F760E323
:1019F00083E896E00E94B607C8010197F1F760E31B
:101A000083E896E00E94B60783E592E00197F1F73C
:101A100060E283E896E00E94B60760918806606203
:101A200040E083E896E00E94CF0784E08093890637
:101A300040E06CE083E896E00E94CF0740E061E080
:101A400083E896E00E94CF070BE31FE1C8010197EE
:101A5000F1F782E080938A0640E066E083E896E052
:101A60000E94CF0740E062E083E896E00E94CF0743
:101A7000C8010197F1F788E080938E0660E083E863
:101A800096E00E94F90584E690E0909340048093EC
:101A90003F0470E2272E75E0372E86E30E9469032B
:101AA000909301028093000287E30E946903909360
:101AB0003A048093390488E30E94690390934404B4
:101AC0008093430488E30E94690385E20E940A022E
:101AD0007C0111E0892B09F410E01093380484E2B2
:101AE0000E940A02AC0121E0892B09F420E0EF28D2
:101AF00051F080913704811106C09091410431E08A
:101B00009327909341041093370410924204452B7D
:101B100011F18091360481111EC080913F04909193
:101B200040048C329140B9F48091040290910502F6
:101B3000A0910602B0910702805D9740A109B1090A
:101B40008093040290930502A0930602B0930702CB
:101B500051E050934204209336042FB7F8948091BB
:101B60004A0490914B04A0914C04B0914D042FBFB6
:101B70004091450450914604609147047091480497
:101B8000841B950BA60BB70B893E9340A105B105AD
:101B900008F491C080914304909144041C8A1B8AEC
:101BA0001E8A1D8A188E1F8A4AE0BE016F5F7F4F12
:101BB0000E948213BE016F5F7F4FCE0143960E9449
:101BC00044084F89588D6B897C8982E594E00E9496
:101BD000D90342E050E068E173E082E594E00E94BE
:101BE000D9038B899C89009711F00E94DA14009127
:101BF0004204002331F06BE173E08BEF94E00E942C
:101C0000440810914104112331F064E373E08BEF39
:101C100094E00E9444080E94E406882331F064E4C2
:101C200073E08BEF94E00E94440801110CC0111185
:101C30000AC00E94E406811106C068E073E08BEFE1
:101C400094E00E9444082FB7F89480914A04909140
:101C50004B04A0914C04B0914D042FBF80934504D8
:101C600090934604A0934704B093480480E00E94F8
:101C7000E60744E150E064E573E083E896E00E9403
:101C8000D90381E00E94E60741E150E069E673E094
:101C900083E896E00E94D90382E00E94E607409123
:101CA000FF04509100056091FB047091FC0483E8EF
:101CB00096E00E94D903A0910002B09101022FED9D
:101CC00030E00E9423142FEF33E040E050E00E9408
:101CD000B713BA01A901405E5F4F6F4F7F4FCA0132
:101CE000809797FD4F96807E80968F3F910519F0E3
:101CF00014F08FEF90E08032910514F480E290E0D0
:101D000090930302809302020AE115E062E2E62E5C
:101D100065E0F62ED8018C910E5F1F4F0E940A02DB
:101D200021E0892B09F420E0F70121937F0120169F
:101D3000310681F701E015E059E0E52E55E0F52E7A
:101D4000D8018C910E5F1F4F0E940A0221E0892B5F
:101D500009F420E0F70121937F0127E035E0201707
:101D6000310771F78FB7F89480904A0490904B0434
:101D7000A0904C04B0904D048FBFC0903F04D09011
:101D8000400438E5C31632E0D30609F49EC20CF0D5
:101D900077C05CE2C51651E0D50609F426C36CF4A1
:101DA00094E6C916D10409F475C1A8ECCA16D10489
:101DB00009F4D4C20E94DC0470CEB0E9CB16B1E0C5
:101DC000DB0609F4A2C3E4EFCE16E1E0DE0691F7EC
:101DD000F12CE12C10E000E021E030E044E050E0A4
:101DE00063E070E082E090E00E94060701E010E00E
:101DF00030E020E047E050E066E070E085E090E011
:101E00000E9406076FEF7FEF8BED95E00E9484073D
:101E1000C0903B04D0903C04E0903D04F0903E0420
:101E2000C701B6016053784F8F4F9F4F68197909EA
:101E30008A099B0928EE33E040E050E00E94D61367
:101E4000B90183E395E00E948407D501C4018C1990
:101E50009D09AE09BF09883E9340A105B10508F46C
:101E600064C180923B0490923C04A0923D04B092E5
:101E70003E040E94E4068111ACC184E690E051C1A9
:101E8000F4E8CF16F3E0DF0609F4ACC10CF092C021
:101E90003CEBC31632E0D30609F453C140E2C4164A
:101EA00043E0D40609F086CFEE24E394F12C10E051
:101EB00000E030E020E044E050E063E070E082E0E9
:101EC00090E00E940607F12CE12C21E030E047E091
:101ED00050E066E070E085E090E00E940607C09068
:101EE0000402D0900502E0900602F09007024090B4
:101EF0003B0450903C0460903D0470903E04C70148
:101F0000B601640D751D861D971D6056704F8F4F6D
:101F10009F4F0091200510912105012E000C220BEE
:101F2000330B600F711F821F931F681979098A098B
:101F30009B0928EE33E040E050E00E94D613B9013F
:101F40008BED95E00E9484076FEF7FEF83E395E0D0
:101F50000E948407D501C40184199509A609B7090F
:101F60004091200550912105052E000C660B770B42
:101F7000C40ED51EE61EF71E8C159D05AE05BF05C9
:101F800008F4D7C080923B0490923C04A0923D0498
:101F9000B0923E040E94E406882309F420C180EB3D
:101FA00094E09093400480933F0410922105109296
:101FB0002005BFC05CE4C51654E0D50609F411C382
:101FC00080EBC81684E0D80609F44FC398EEC91612
:101FD00093E0D90609F0EECEF12CE12C01E010E0FF
:101FE00030E020E044E050E063E070E082E090E028
:101FF0000E94060710E000E021E030E047E050E0FA
:1020000066E070E085E090E00E940607C0903B0427
:10201000D0903C04E0903D04F0903E04C701B6012E
:102020006053784F8F4F9F4F681979098A099B0930
:1020300028EE33E040E050E00E94D613B9018BED6A
:1020400095E00E9484076FEF7FEF83E395E00E94A5
:102050008407D501C4018C199D09AE09BF09883ECA
:102060009340A105B10508F460C06FEF7FEF8BEDE1
:1020700095E00E94840780923B0490923C04A092D9
:102080003D04B0923E040E94E4068111A2C088E59E
:1020900092E047C0F12CE12C10E000E021E030E0BC
:1020A00044E050E063E070E082E090E00E940607C8
:1020B00021E030E047E050E066E070E085E090E04D
:1020C0000E9406076FEF7FEF8BED95E00E9484077B
:1020D0006FEF7FEF83E395E00E94840780913B04DC
:1020E00090913C04A0913D04B0913E04A50194015F
:1020F000281B390B4A0B5B0BDA01C901883E934060
:10210000A105B10590F080923B0490923C04A0920E
:102110003D04B0923E048091410481110FC08CEBCC
:1021200092E09093400480933F048AE195E00E94FE
:10213000390781E095E00E9439073CCE8CE494E0B9
:10214000F0CFF12CE12C01E010E021E030E044E0A0
:1021500050E063E070E082E090E00E94060710E04B
:1021600000E021E030E047E050E066E070E085E02C
:1021700090E00E9406076FEF7FEF8BED95E00E94E5
:1021800084076FEF7FEF83E395E00E9484078091DF
:102190003B0490913C04A0913D04B0913E04A50104
:1021A0009401281B390B4A0B5B0BDA01C901803DF6
:1021B0009740A105B10508F4B8CF80923B049092F6
:1021C0003C04A0923D04B0923E040E94E4068823A1
:1021D00019F080EB94E0A5CF80E293E0A2CF84E8F1
:1021E00093E0DFCE40903B0450903C0460903D046F
:1021F00070903E04D501C40184199509A609B70958
:10220000898F9A8FAB8FBC8FBC01CD012AEF30E054
:1022100040E050E00E94D613790191E0E922FF24CA
:1022200010E000E030E020E044E050E063E070E0E7
:1022300082E090E00E940607F12CE12C21E030E0E2
:1022400047E050E066E070E085E090E00E9406071D
:10225000A0EA4A0EAFE05A1E611C711CC301B20114
:10226000681979098A099B0928EE33E040E050E0BB
:102270000E94D613B9018BED95E00E9484076FEFA1
:102280007FEF83E395E00E948407298D3A8D4B8D83
:102290005C8D203D37404105510508F44ACF8092BE
:1022A0003B0490923C04A0923D04B0923E040E94F4
:1022B000E406882339F080EB94E090934004809307
:1022C0003F0437CF88EE93E0F8CFF12CE12C10E0FB
:1022D00000E021E030E044E050E063E070E082E0C4
:1022E00090E00E94060721E030E047E050E066E021
:1022F00070E085E090E00E9406076FEF7FEF8BEDC6
:1023000095E00E9484076FEF7FEF83E395E00E94E2
:10231000840780913B0490913C04A0913D04B091CE
:102320003E04A5019401281B390B4A0B5B0BDA0113
:10233000C901883E9340A105B10508F4F6CE80920C
:102340003B0490923C04A0923D04B0923E048091E4
:1023500041048111F3CE88EC90E0E3CEF12CE12C26
:1023600010E000E021E030E044E050E063E070E0A5
:1023700082E090E00E94060701E010E021E030E0FA
:1023800047E050E066E070E085E090E00E940607DC
:102390006FEF7FEF8BED95E00E9484076FEF7FEF8B
:1023A00083E395E00E94840780913B0490913C0474
:1023B000A0913D04B0913E04A5019401281B390B66
:1023C0004A0B5B0BDA01C901803D9740A105B105BD
:1023D00008F4ABCE80923B0490923C04A0923D0462
:1023E000B0923E048CE291E09CCEF12CE12C10E006
:1023F00000E021E030E044E050E063E070E082E0A3
:1024000090E00E940607EE24E394F12C30E020E0F7
:1024100047E050E066E070E085E090E00E9406074B
:102420006FEF7FEF8BED95E00E94840740900402F0
:10243000509005026090060270900702C0903B0425
:10244000D0903C04E0903D04F0903E04C301B20102
:102450006C0D7D1D8E1D9F1D6056704F8F4F9F4FC1
:102460000091070510910805012E000C220B330B7B
:10247000600F711F821F931F681979098A099B09D0
:1024800028EE33E040E050E00E94D613B90183E328
:1024900095E00E948407D501C4018C199D09AE09FD
:1024A000BF094091070550910805052E000C660BE9
:1024B000770B440E551E661E771E84159505A605DE
:1024C000B70500F180923B0490923C04A0923D0439
:1024D000B0923E0480E991E09093400480933F04E1
:1024E000109208051092070588EB9BE0A0E0B0E091
:1024F0008093040290930502A0930602B093070212
:10250000109242048AE195E016CEF12CE12C10E005
:1025100000E021E030E044E050E063E070E082E081
:1025200090E00E94060740903B0450903C0460906D
:102530003D0470903E04A501940124193509460913
:102540005709298F3A8F4B8F5C8FCA01B9012AEF47
:1025500030E040E050E00E94D613790181E0E822AB
:10256000FF2430E020E047E050E066E070E085E0E6
:1025700090E00E9406076FEF7FEF8BED95E00E94E1
:10258000840790EA490E9FE0591E611C711CC3012B
:10259000B201681979098A099B0928EE33E040E005
:1025A00050E00E94D613B90183E395E00E948407AE
:1025B000298D3A8D4B8D5C8D203D3740410551056D
:1025C00008F4A0CF80923B0490923C04A0923D047A
:1025D000B0923E0484EF91E09093400480933F04D6
:1025E00091CF2FEF30E030930302209302028091CD
:1025F0003B0490913C04A0913D04B0913E04A501A0
:102600009401281B390B4A0B5B0BCA01B90124EF5B
:1026100031E040E050E00E94D613590181E0A82249
:10262000BB24F12CE12C850130E020E044E050E0B7
:1026300063E070E082E090E00E94060710E000E0B6
:10264000950147E050E066E070E085E090E00E9490
:10265000060780914104811103C024E6C22ED12CCB
:10266000D0924004C0923F04A5CB80913B0490914E
:102670003C04A0913D04B0913E04881A990AAA0A2C
:10268000BB0AC501B40124EF31E040E050E00E94F4
:10269000D613890101701127EE24E394F12C30E068
:1026A00020E044E050E063E070E082E090E00E94CF
:1026B0000607C501B4012AEF30E040E050E00E9477
:1026C000D613890101701127F12CE12C21E030E0B3
:1026D00047E050E066E070E085E090E00E94060789
:1026E0000E94E4068111BCCF88E5C82E82E0D82E76
:1026F000B7CF8091FB049091FC04009711F00C94EB
:10270000DA140895BB274A3031F4992322F4BDE24C
:10271000909581959F4F0C948E13BB27FB015527F5
:10272000AA27880F991FAA1FA41710F0A41B83952E
:102730005051B9F7A05DAA3308F0A95DA1930097A5
:1027400079F7B111B1931192CB010C94A713DC016D
:10275000FC01672F71917723E1F7329704C07C91D8
:102760006D9370836291AE17BF07C8F30895052E6D
:1027700097FB1EF400940E94CE1357FD07D00E94D1
:10278000D61307FC03D04EF40C94CE13509540950D
:10279000309521953F4F4F4F5F4F0895909580950D
:1027A000709561957F4F8F4F9F4F0895A1E21A2E2C
:1027B000AA1BBB1BFD010DC0AA1FBB1FEE1FFF1FE5
:1027C000A217B307E407F50720F0A21BB30BE40B35
:1027D000F50B661F771F881F991F1A9469F760957C
:1027E0007095809590959B01AC01BD01CF01089536
:1027F000A29FB001B39FC001A39F700D811D112442
:10280000911DB29F700D811D1124911D089597FB9C
:10281000072E16F4009407D077FD09D00E942A14E1
:1028200007FC05D03EF4909581959F4F08957095D3
:1028300061957F4F0895EE0FFF1F881F8BBF079094
:10284000F691E02D19940E94F813B7FF0895821BAA
:10285000930B0895AA1BBB1B51E107C0AA1FBB1F06
:10286000A617B70710F0A61BB70B881F991F5A951C
:10287000A9F780959095BC01CD0108950F931F9302
:10288000CF93DF938230910510F482E090E0E091E5
:102890009106F091920630E020E0B0E0A0E03097A1
:1028A00099F42115310509F44AC0281B390B24304D
:1028B0003105D8F58A819B816115710589F1FB018C
:1028C00093838283FE0111C0408151810281138173
:1028D00048175907E0F04817590799F4109761F025
:1028E00012960C93129713961C933296CF01DF9198
:1028F000CF911F910F910895009391061093920626
:10290000F4CF2115310551F04217530738F0A901D2
:10291000DB019A01BD01DF01F801C1CFEF01F9CF61
:102920009093920680939106CDCFFE01E20FF31FA4
:10293000819391932250310939832883D7CF2091F5
:102940008F0630919006232B41F420910A0230919A
:102950000B023093900620938F062091080230914D
:1029600009022115310541F42DB73EB740910C0203
:1029700050910D02241B350BE0918F06F0919006CB
:10298000E217F307A0F42E1B3F0B2817390778F046
:10299000AC014E5F5F4F2417350748F04E0F5F1FA5
:1029A0005093900640938F06819391939FCFF0E0D0
:1029B000E0E09CCFCF93DF930097E9F0FC013297E2
:1029C00013821282A0919106B0919206ED0130E03F
:1029D00020E01097A1F420813181820F931F209174
:1029E0008F06309190062817390709F061C0F093DF
:1029F0009006E0938F06DF91CF910895EA01CE17FC
:102A0000DF07E8F54A815B819E0141155105B1F769
:102A1000E901FB83EA8349915991C40FD51FEC1753
:102A2000FD0761F4808191810296840F951FE90171
:102A300099838883828193819B838A83F0E0E0E09D
:102A400012968D919C9113970097B9F52D913C9119
:102A50001197CD010296820F931F20918F0630911E
:102A600090062817390739F6309751F510929206DB
:102A700010929106B0939006A0938F06BCCFD3839B
:102A8000C28340815181840F951FC817D90761F413
:102A90004E5F5F4F88819981480F591F5183408352
:102AA0008A819B81938382832115310509F0B0CF00
:102AB000F0939206E09391069ECFFD01DC01C0CF1A
:102AC00013821282D7CF4F925F926F927F928F9232
:102AD0009F92AF92BF92CF92DF92EF92FF920F93AD
:102AE0001F93CF93DF938C01009799F4CB01DF9173
:102AF000CF911F910F91FF90EF90DF90CF90BF90FB
:102B0000AF909F908F907F906F905F904F900C94BC
:102B10003E14FC01E60FF71F9C0122503109E21719
:102B2000F30708F4AEC0D901CD91DC911197C61717
:102B3000D70720F1C530D10578F0CE01049786176C
:102B4000970750F0C61BD70B2297C193D1936D9373
:102B50007C93CF010E94DA14C801DF91CF911F91BD
:102B60000F91FF90EF90DF90CF90BF90AF909F902C
:102B70008F907F906F905F904F9008955B01AC1A9B
:102B8000BD0A4C018C0E9D1EA0919106B09192063B
:102B9000512C412CF12CE12C109731F580918F06AE
:102BA000909190068815990509F05CC04616570665
:102BB00008F058C08091080290910902009741F4F2
:102BC0008DB79EB740910C0250910D02841B950B5E
:102BD000E817F90708F055C0F0939006E0938F06C8
:102BE000F90171836083B8CF8D919C9111971296F2
:102BF0006C90129713967C901397A815B90559F508
:102C00006C0142E0C40ED11CCA14DB0420F1AC01FB
:102C10004A195B09DA011296159780F06282738275
:102C200051834083D9016D937C93E114F10471F0D9
:102C3000D7011396FC93EE9312978ECF22968C0FAA
:102C40009D1FF90191838083F301EFCFF0939206EA
:102C5000E093910681CF4816590608F42C017D01B6
:102C6000D3019ACFCB010E943E147C01009749F01A
:102C7000AE01B8010E944416C8010E94DA1487010F
:102C80006BCF10E000E068CFFB01DC0102C00190D7
:102C90000D9241505040D8F70895FB01DC0101909E
:102CA0000D920020E1F7089511E0CFE6D1E000E0B9
:102CB00006C0802FFE010E941B142196011DC03703
:0C2CC000D10780E00807A9F7F894FFCFC7
:102CCC00FF000100B80B000000009306800000001C
:102CDC0000000000000000000000010001000000E6
:102CEC0000000100010001000100000000000100D3
:102CFC0000000000010000000000000000000000C7
:102D0C0001000100000001000000000001000100B2
:102D1C0000000000000001000000000001000000A5
:102D2C000000000001000000000000000000000096
:102D3C000000000000000100010001000100000083
:102D4C000000000000000000000000000000000077
:102D5C000000000001000000000001000100010063
:102D6C0001000100010000000000400014005400AC
:102D7C002D002C002B002A002900280027003500EC
:102D8C0034003300320031002F00300021002200CB
:102D9C0023001E001F002000000000006F04D90358
:102DAC000604BC0437041504290400000000CA05FD
:102DBC009D05E1067305960583057405000000006A
:102DCC001608D903E106E0064369636C6F204E6F69
:102DDC00726D616C202020000D0A005061736F2011
:102DEC00506561746F6E616C20736F6C696369748C
:102DFC0061646F004D6164727567616461202020AD
:102E0C00202020005061736F20416D62756C616EE3
:102E1C00636961002D2D2D2D20534D4152542043BB
:102E2C00495459202D2D2D2D004D6F646F20646554
:0C2E3C002053656D61666F726F3A0000F4
:00000001FF
