:100000000C9483010C94B4010C94B4010C94B401CD
:100010000C94B4010C94B4010C94B4010C94B4018C
:100020000C94B4010C94B4010C94B4010C94B4017C
:100030000C94B4010C94B4010C94B4010C94B4016C
:100040000C94B4010C94B4010C94B4010C94B4015C
:100050000C94B4010C94B4010C94B4010C945108A8
:100060000C94B4010C94C5080C949B080C94B40136
:100070000C94B4010C94B4010C94B4010C94B4012C
:100080000C94B4010C94B4010C94B4010C94B4011C
:100090000C94B4010C94B4010C94B4010C94FB08BE
:1000A0000C94B4010C94B4010C94B4010C94B401FC
:1000B0000C94B4010C94B4010C94B4010C94B401EC
:1000C0000C94B4010C94B4010C94B4010C94B401DC
:1000D0000C94B4010C94B4010C94B4010C94B401CC
:1000E0000C94B4010C94EF010C9428040C946D034F
:1000F0000C9459030C94EC030C9482040C94360E6B
:100100000C9486050C9477030C9422030C944A04F7
:100110000C94320D0C94BA0F0C9418030C94F30148
:100120000C94E6010C9414020C9496050C94E502D0
:100130000C94EF0D0C944F030C94EB030C94010200
:100140000C94780A0C94D4010C94F3060C94A90531
:100150000C9419020C94FD010C9401100C94F901FB
:100160000C9487050C94EA020C94B0050C94F406E8
:100170000C9439110C9436030C94FE020C94080371
:100180000C94AB0E0C9410030C94170F0C942C03CE
:100190000C9415020C94F4020C9477100C9419042E
:1001A0000C940F020C94DE010C94CF040C94070203
:1001B0000C94DA010C94710F0C94E2010C943C0441
:1001C0000C94EA030C940B020C94DD050C94DD02F4
:1001D0000C9413080C94E3100C94E9010C94630341
:1001E0000C94450300002100240027002A002D0064
:1001F0003000330001010000040107010A01000082
:100200002200250028002B002E00310034000201BE
:100210000000050108010B0100002000230026005A
:1002200029002C002F00320000010000030106010C
:10023000090105050505070508080808020202026C
:100240000A0A080804040404010101010101010172
:100250000303030303030303040707070C0C0C0C3D
:100260000C0C0C0C02020202060606060606060626
:100270000B0B0B0B0B0B0B0B0102102020080810B3
:100280002040102040800201020108040201010206
:1002900004081020408080402010080402018004DF
:1002A000020180402010080402010804020101023A
:1002B0000408102040800102040810204080000043
:1002C0000A0B02090C0D0E080703040100000000D0
:1002D000000000000000000000000000000000001E
:1002E00000000000000000000000121110000000DB
:1002F00000000000000000000000000000000000FE
:1003000000000000780A11241FBECFEFD1E2DEBF4B
:10031000CDBF00E00CBF13E0A0E0B2E0E6EFF3E2F7
:1003200000E00BBF02C007900D92A432B107D9F7CD
:1003300026E0A4E2B3E001C01D92A732B207E1F7C4
:1003400011E0C3E8D1E000E006C021970109802F49
:10035000FE010E94EA11C238D10780E00807A9F720
:100360000E94120B0C94F9110C9400008150823100
:1003700008F05AC0E82FF0E08827EE53FE4F8F4F69
:100380000C94EA11E201E601D401DA01DE01140263
:10039000E901EF01F301F901FD01010207020B027E
:1003A00014020F0215021902809180008F7780934A
:1003B00080000895809180008F7DF9CF809180002A
:1003C000877FF5CF84B58F7784BD089584B58F7D01
:1003D000FBCF8091B0008F778093B000089580911B
:1003E000B0008F7DF9CF809190008F77809390003F
:1003F0000895809190008F7DF9CF80919000877F44
:10040000F5CF8091A0008F778093A0000895809110
:10041000A0008F7DF9CF8091A000877FF5CF8091DC
:1004200020018F77809320010895809120018F7D96
:10043000F9CF80912001877FF5CFCF93DF93282FCD
:1004400030E0F901E254FD4F8491F901E858FD4F85
:10045000D491F901EE5CFD4FC491CC23A1F0811140
:100460000E94B601EC2FF0E0EE0FFF1FE85EFD4F9B
:10047000A591B491EC91ED2381E090E009F480E046
:10048000DF91CF91089580E090E0FACF1F93CF9352
:10049000DF93282F30E0F901E254FD4F8491F901F8
:1004A000E858FD4FD491F901EE5CFD4FC491CC2387
:1004B000A9F0162F81110E94B601EC2FF0E0EE0F8B
:1004C000FF1FE250FE4FA591B4918FB7F894EC91C5
:1004D000111108C0D095DE23DC938FBFDF91CF913F
:1004E0001F910895DE2BF8CFCF93DF9390E0FC01AE
:1004F000E858FD4F24918E5C9D4FFC018491882328
:10050000D1F090E0880F991FFC01EC51FE4FA591AE
:10051000B491FC01E250FE4FC591D49161110EC01F
:100520009FB7F8948C91E22FE0958E238C932881CD
:10053000E223E8839FBFDF91CF9108958FB7F894AE
:10054000EC91E22BEC938FBFF6CF1F93CF93DF9309
:10055000182FEB0161E00E947402209739F460E0EB
:10056000812FDF91CF911F910C944602CF3FD1058F
:1005700011F461E0F5CFE12FF0E0E254FD4FE4919A
:10058000E150E23108F0B3C0F0E08827E553FD4FB9
:100590008F4F0C94EA11DD02E502EA02F402FE023A
:1005A000770308031003180322032C0336034503C3
:1005B0004F037703590363036D0384B5806884BDDB
:1005C000C7BDDF91CF911F91089584B5806284BD2E
:1005D000C8BDF7CF80918000806880938000D09361
:1005E0008900C0938800EDCF809180008062809365
:1005F0008000D0938B00C0938A00E3CF809180006D
:10060000886080938000D0938D00C0938C00D9CFF8
:100610008091B00080688093B000C093B300D1CFC8
:100620008091B00080628093B000C093B400C9CFC5
:1006300080919000806880939000D0939900C0933F
:100640009800BFCF80919000806280939000D093FB
:100650009B00C0939A00B5CF8091900088608093F2
:100660009000D0939D00C0939C00ABCF8091A000E0
:1006700080688093A0008091A0008F7B8093A00071
:10068000D093A900C093A8009CCF8091A000806265
:100690008093A000D093AB00C093AA0092CF80912A
:1006A000A00088608093A000D093AD00C093AC0000
:1006B00088CF80912001806880932001D093290108
:1006C000C09328017ECF8091200180628093200119
:1006D000D0932B01C0932A0174CF809120018860B0
:1006E00080932001D0932D01C0932C016ACFC03894
:1006F000D1050CF03ECF33CF90917B00977F909344
:100700007B008653806480937C0080917A008064B3
:1007100080937A0080917A0086FDFCCF80917800EA
:100720009091790008953FB7F8948091EC039091EF
:10073000ED03A091EE03B091EF0326B5A89B05C091
:100740002F3F19F00196A11DB11D3FBFBA2FA92F50
:10075000982F8827BC01CD01620F711D811D911D4D
:1007600042E0660F771F881F991F4A95D1F70895B9
:100770008F929F92AF92BF92CF92DF92EF92FF92B1
:100780004B015C010E9493036B017C010E94930367
:100790006C197D098E099F09683E7340810591059A
:1007A000A8F321E0821A9108A108B10888EEC80ECA
:1007B00083E0D81EE11CF11C81149104A104B10452
:1007C00029F7FF90EF90DF90CF90BF90AF909F9070
:1007D0008F90089508950895AF92BF92CF92DF92BF
:1007E000EF92FF920F931F93CF93DF936C017B01E6
:1007F0008B01040F151FEB015E01AE18BF08C01777
:10080000D10759F06991D601ED91FC910190F081E9
:10081000E02DC6011995892B79F7C501DF91CF919C
:100820001F910F91FF90EF90DF90CF90BF90AF900E
:100830000895FC01538D448D252F30E0842F90E0E6
:10084000821B930B541710F0CF96089501970895CB
:10085000FC01918D828D981761F0A28DAE0FBF2F94
:10086000B11D5D968C91928D9F5F9F73928F90E0EA
:1008700008958FEF9FEF0895FC01918D828D981759
:1008800031F0828DE80FF11D858D90E008958FEF96
:100890009FEF0895FC01918D228D892F90E0805C5F
:1008A0009F4F821B91098F739927089580EF93E0E2
:1008B0000E944A0421E0892B09F420E0822F089548
:1008C000FC01A48DA80FB92FB11DA35ABF4F2C91C5
:1008D000848D90E001968F739927848FA689B789BC
:1008E0002C93A089B1898C91837080648C93938DB3
:1008F000848D981306C00288F389E02D80818F7D56
:1009000080830895EF92FF920F931F93CF93DF930D
:10091000EC0181E0888F9B8D8C8D98131AC0E8893B
:10092000F989808185FF15C09FB7F894EE89FF890A
:100930006083E889F98980818370806480839FBFA8
:1009400081E090E0DF91CF911F910F91FF90EF90A8
:100950000895F62E0B8D10E00F5F1F4F0F731127B8
:10096000E02E8C8D8E110CC00FB607FCFACFE889F3
:10097000F989808185FFF5CFCE010E946004F1CF17
:10098000EB8DEC0FFD2FF11DE35AFF4FF0829FB767
:10099000F8940B8FEA89FB8980818062CFCFCF9357
:1009A000DF93EC01888D8823B9F0AA89BB89E88997
:1009B000F9898C9185FD03C0808186FD0DC00FB63D
:1009C00007FCF7CF8C9185FFF2CF808185FFEDCFBB
:1009D000CE010E946004E9CFDF91CF91089580E0BD
:1009E00090E0892B29F00E94560481110E9400009A
:1009F00080E090E0892B49F080E090E0892B29F09D
:100A00000E94000081110E94000080E090E0892B8C
:100A100049F080E090E0892B29F00E9400008111CC
:100A20000E94000080E090E0892B49F080E090E097
:100A3000892B29F00E94000081110C940000089578
:100A400020918C03260F3327331F21323105ECF41C
:100A50002091B003FC0190E080E0243069F082E056
:100A60000895A0918C032191AC0144595C4FA40FCF
:100A7000B52FB11D2C930196861798F380918C03A6
:100A8000680F60938C0380E0089581E008951092D0
:100A9000B00381E08093B2031092B10361E084E17E
:100AA0000E94460261E085E10E944602E9EBF0E027
:100AB00080818E7F808380818D7F808388E4809396
:100AC000B80085E48093BC000895CF93DF9391E054
:100AD00090936B038823B9F0C091B800D091BA000D
:100AE0008091BC008A7B8093BC0060E084E10E941E
:100AF000460260E085E10E9446020E944705D093CD
:100B0000BA00C093B800DF91CF9108950895E091A5
:100B1000DD038091DC03E81730F4F0E0EA5BFC4F82
:100B2000808190E008958FEF9FEF08959091DD030D
:100B30008091DC032FEF3FEF981748F4E92FF0E0A6
:100B4000EA5BFC4F208130E09F5F9093DD03C90199
:100B500008958091DC039091DD03891B990B089522
:100B6000CF92DF92EF92FF920F931F93CF93DF9379
:100B70007C01CB018A0120914503222389F0EB01FE
:100B80006B01C40ED51ECC15DD0569F06991D70146
:100B9000ED91FC910190F081E02DC7011995F3CF03
:100BA000642F0E942005C801DF91CF911F910F9102
:100BB000FF90EF90DF90CF900895CF93DF931F9237
:100BC000CDB7DEB76983209145032223F9F0209148
:100BD000DA03203258F021E030E0FC013383228335
:100BE00090E080E00F90DF91CF9108958091DB033A
:100BF000E82FF0E0EB5DFC4F998190838F5F80934D
:100C0000DB038093DA0381E090E0ECCF61E0CE017A
:100C100001960E942005F7CFCF92DF92EF92FF92CC
:100C20000F931F93CF93DF93FC01C48121E02093A6
:100C30004503C09324031092DB031092DA038385EB
:100C4000682B8DE894E00E94DD05D091DA03D13263
:100C500008F092C00E9493036B017C018091B00365
:100C6000811165C082E08093B00381E08093B2037C
:100C70008FEF8093AF031092D403D093D303A5E2F8
:100C8000B3E0E3EBF3E080E0D81385C01092D50326
:100C90008091D503CC0FC82BC093D5038091B103AD
:100CA000813009F07CC01092B1030E9493036B0164
:100CB0007C018091D5038093BB0080916703909164
:100CC0006803A0916903B0916A03892B8A2B8B2B4F
:100CD00099F00E949303009167031091680320919B
:100CE000690330916A036C197D098E099F09061703
:100CF000170728073907E0F18091BC0083FDD9CFA1
:100D000085EC8093BC000E9493036B017C01809171
:100D1000B003823009F445C08091AF038F3F61F189
:100D20008091AF03803241F18091AF0325C0809163
:100D3000670390916803A0916903B0916A03892BBE
:100D40008A2B8B2B09F48ACF0E94930300916703AF
:100D5000109168032091690330916A036C197D0931
:100D60008E099F09061717072807390708F076CF5D
:100D7000809166030E9465051092DB031092DA03EE
:100D800010924503DF91CF911F910F91FF90EF904B
:100D9000DF90CF9008959D9191938F5F75CF85EEF1
:100DA000B0CF8091670390916803A0916903B091DF
:100DB0006A03892B8A2B8B2B09F4A9CF0E949303FA
:100DC00000916703109168032091690330916A03D1
:100DD0006C197D098E099F0906171707280739071F
:100DE00008F095CFC5CF089590E080E00895CF92A8
:100DF000DF92EF92FF920F931F93CF93DF93C62E54
:100E0000D42EC0910002D0910102C29FB001C39FB5
:100E1000700DD29F700D11240E94A502C09FB001D9
:100E2000C19F700DD09F700D11248C2D0E94A502C2
:100E3000CE9DB001CF9D700DDE9D700D11248D2DC6
:100E4000DF91CF911F910F91FF90EF90DF90CF90A6
:100E50000C94A502DC011A968C911A97882369F0EC
:100E600019968C911997882301F118968C911897EF
:100E700030E020E0882319F0089522E030E0220FCE
:100E8000331FFD01E20FF31F83859485019648EE21
:100E900053E0849F9001859F300D949F300D112465
:100EA00017963C932E931697E7CF21E030E0E7CFDB
:100EB0000F931F93CF93DF93EC01C656DF4F8C0146
:100EC00008551F4F8881229661E00E947402FE013E
:100ED000329761E080810E944602C017D10791F7E6
:100EE000DF91CF911F910F910895CF92DF92EF92F2
:100EF000FF920F931F93CF93DF936C016A307105BC
:100F000010F06AE070E0860106561F4F8EE0869F63
:100F10007001879FF00C1124D0E0C0E0F8018081BF
:100F20000E5F1F4FFE01EE0DFF1DEC0DFD1D6081DC
:100F30000E9446022296CE30D10581F7DF91CF91F3
:100F40001F910F91FF90EF90DF90CF900895FC01DB
:100F500001900020E9F73197AF01481B590BBC0104
:100F60008BE196E00C94EC030F931F93CF938C01CD
:100F7000C62F0E940C066C2F6460C8010E940C06EC
:100F80006C2F6B7FC8010E940C0683EC90E00197E8
:100F9000F1F7CF911F910F9108950F931F93CF9366
:100FA000DF938C01D62FC42F607F642B0E94B4077F
:100FB00080E1D89FB00111246C2BC801DF91CF9143
:100FC0001F910F910C94B407CF93DF9300D000D002
:100FD0001F921F92CDB7DEB798E0ECE9F2E0DE0198
:100FE000119601900D929A95E1F79091230698172A
:100FF00008F48FEF90E0880F991F21E030E02C0F6C
:101000003D1F820F931FFC016081606840E08BE10F
:1010100096E028960FB6F894DEBF0FBECDBFDF91E5
:10102000CF910C94CD0741E00E94CD0781E090E084
:10103000089585ED8093BC008091670390916803CB
:10104000A0916903B0916A030796A11DB11D23E029
:10105000B695A795979587952A95D1F72091BC00CD
:1010600024FD03C01092B00308954091670350918E
:1010700068036091690370916A03452B462B472BE7
:1010800069F30097A105B10541F02AE22A95F1F72D
:1010900000C00197A109B109E1CF809166030C94CA
:1010A00065051F920F920FB60F9211242F933F9355
:1010B0008F939F93AF93BF938091E8039091E9033F
:1010C000A091EA03B091EB033091E70323E0230FF3
:1010D0002D3758F50196A11DB11D2093E70380938C
:1010E000E8039093E903A093EA03B093EB038091A4
:1010F000EC039091ED03A091EE03B091EF03019604
:10110000A11DB11D8093EC039093ED03A093EE031A
:10111000B093EF03BF91AF919F918F913F912F912A
:101120000F900FBE0F901F90189526E8230F029680
:10113000A11DB11DD2CF1F920F920FB60F92112495
:101140000BB60F922F933F934F935F936F937F93C1
:101150008F939F93AF93BF93EF93FF9380EF93E0B1
:101160000E946004FF91EF91BF91AF919F918F9189
:101170007F916F915F914F913F912F910F900BBE97
:101180000F900FBE0F901F9018951F920F920FB6E1
:101190000F9211240BB60F922F938F939F93EF937F
:1011A000FF93E0910004F09101048081E091060436
:1011B000F091070482FD1DC09081809109048F5F2A
:1011C0008F7320910A04821741F0E0910904F0E046
:1011D000E051FC4F958F80930904FF91EF919F910F
:1011E0008F912F910F900BBE0F900FBE0F901F90FD
:1011F00018958081F2CF1F920F920FB60F92112493
:101200000BB60F922F933F934F935F936F937F9300
:101210008F939F93AF93BF93EF93FF938091B90008
:10122000887F803609F44DC008F040C0883209F448
:10123000A9C028F5803109F49DC0C8F4882309F4B9
:10124000FBC0883009F496C0FF91EF91BF91AF9138
:101250009F918F917F916F915F914F913F912F91CE
:101260000F900BBE0F900FBE0F901F9018958831F6
:1012700009F488C0803241F78093AF0314C08034F2
:1012800009F49DC040F48033B9F38833E9F68093C4
:10129000AF0385ECB0C0803509F485C0883509F40A
:1012A00096C0883489F60E941908CECF883909F48F
:1012B0008CC038F5883729F050F4883611F0803723
:1012C00019F683E08093B0031092AE0357C08838BC
:1012D00009F47BC0803919F0803809F0B5CF8091CE
:1012E000AE03803208F071C0E091AE0381E08E0F52
:1012F0008093AE038091BB00F0E0E257FC4F808307
:101300003DC0803B39F0E0F4803A09F479C0883A76
:1013100009F09ACF84E08093B00310928D0310926D
:101320008C03E091D803F091D903199580918C0337
:1013300081110FC081E080938C0310926C0309C06F
:10134000803C09F4A6CF883C09F4A3CF883B09F080
:101350007BCFE0918D0381E08E0F80938D03F0E0D1
:10136000E459FC4F80818093BB0090918D03809164
:101370008C0329C08091D5038093BB0085EC8093BA
:10138000BC0062CF9091D4038091D303981758F595
:10139000E091D40381E08E0F8093D403F0E0ED540C
:1013A000FC4F8081E9CFE091D40381E08E0F8093E0
:1013B000D4038091BB00F0E0ED54FC4F808390910A
:1013C000D4038091D3039817C8F285E8D8CFE09171
:1013D000D40381E08E0F8093D4038091BB00F0E0B2
:1013E000ED54FC4F80838091B20381115CCF81E08A
:1013F0008093B10384EA8093BC001092B00324CFA1
:1014000085EC8093BC001092B0038091AE038032D3
:1014100030F4E091AE03F0E0E257FC4F10826091AF
:10142000AE0370E0E091D603F091D7038EE893E02D
:1014300019951092AE0308CF1092AF0334CFCF931B
:10144000DF93FC01DB018D919C9111979183808347
:10145000108612968D919C911397938382831186A7
:1014600014968D919C91958384831286148613869D
:1014700016861586108A1786128A118A148A138A8C
:10148000168A158A108E178A17821682DF0190E05D
:1014900080E0009751F414861386019612968730E7
:1014A0009105B9F7DF91CF910895EC01CE7FCE0F72
:1014B000DF1F2B853C852F5F3F4F1C963C932E935F
:1014C0001B97EBCF2AE9E2E0F2E0DC0101900D92FC
:1014D0002A95E1F7FB01DC01A656BF4FCB010E9622
:1014E000219131912D933D93E817F907C9F708959C
:1014F000CF93DF93CDB7DEB72E970FB6F894DEBF4C
:101500000FBECDBFE0EFF3E01382128288EE93E0CE
:10151000A0E0B0E084839583A683B78320ED32E01A
:101520003183208325EC30E03587248724EC30E0BC
:101530003787268720EC30E0318B208B21EC30E0A0
:10154000338B228B22EC30E0358B248B26EC30E081
:10155000378B268B118E128E138E148EEDE8F4E0ED
:101560001382128284839583A683B78382EE92E0EE
:1015700091838083EBE1F6E01382128284EF92E0A4
:101580009183808387E2848384E1818784E08287FA
:1015900013868EE0E4EAF2E0DE01119601900D92EE
:1015A0008A95E1F7BE016F5F7F4F83E795E00E9468
:1015B000620A8EE0E2EBF2E0DE01119601900D92FC
:1015C0008A95E1F7BE016F5F7F4F8BEC94E00E943C
:1015D000620A86E0E0ECF2E0DE01119601900D92E5
:1015E0008A95E1F7BE016F5F7F4F82EB94E00E9426
:1015F0001F0A86E0E6ECF2E0DE01119601900D9202
:101600008A95E1F7BE016F5F7F4F89E994E00E9400
:101610001F0A2E960FB6F894DEBF0FBECDBFDF9126
:10162000CF910895CF93DF93CDB7DEB7A5970FB6CF
:10163000F894DEBF0FBECDBF789484B5826084BDC0
:1016400084B5816084BD85B5826085BD85B58160C6
:1016500085BD80916E00816080936E001092810044
:1016600080918100826080938100809181008160FF
:1016700080938100809180008160809380008091C0
:10168000B10084608093B1008091B000816080934C
:10169000B0008091910082608093910080919100D0
:1016A0008160809391008091900081608093900090
:1016B0008091A10082608093A1008091A10081604F
:1016C0008093A1008091A00081608093A000809110
:1016D00021018260809321018091210181608093AA
:1016E00021018091200181608093200180917A0006
:1016F000846080937A0080917A00826080937A007F
:1017000080917A00816080937A0080917A0080686D
:1017100080937A001092C10060E085E20E9474021A
:1017200060E084E20E94740261E082E00E94740240
:1017300061E083E00E94740261E084E00E94740230
:1017400061E085E00E94740261E086E00E9474021C
:1017500061E087E00E94740260E082E00E9446023D
:1017600060E083E00E94460260E084E00E9446025E
:1017700060E085E00E94460260E086E00E9446024A
:1017800060E087E00E94460283E795E00E945807E8
:101790008BEC94E00E945807E0910004F091010462
:1017A00082E08083E091FC03F091FD031082E091E0
:1017B000FE03F091FF038FEC808310920804E09108
:1017C0000404F091050486E08083E0910204F09126
:1017D0000304808180618083E0910204F09103041E
:1017E000808188608083E0910204F091030480810D
:1017F00080688083E0910204F091030480818F7DF2
:1018000080831092DD031092DC031092DB031092B0
:10181000DA030E9447058AEE93E09093D903809300
:10182000D8038BEE93E09093D7038093D603109266
:10183000200680912506823018F098E090932006CB
:101840008093230662E370E080E090E00E94B8039A
:10185000609126068BE196E00E940C0668EE73E02C
:1018600080E090E00E94B80360E38BE196E00E9484
:10187000B4070BE416E4C8010197F1F760E38BE1CC
:1018800096E00E94B407C8010197F1F760E38BE18D
:1018900096E00E94B40783E592E00197F1F760E2D9
:1018A0008BE196E00E94B40760912006606240E000
:1018B0008BE196E00E94CD0784E08093210640E012
:1018C0006CE08BE196E00E94CD0740E061E08BE1A7
:1018D00096E00E94CD070BE31FE1C8010197F1F7E5
:1018E00082E08093220640E066E08BE196E00E9471
:1018F000CD0740E062E08BE196E00E94CD07C80191
:101900000197F1F788E08093260660E08BE196E08E
:101910000E940C061092E6031092E50348EBC42ED9
:1019200044E0D42E86E30E947C032FED30E0DC01FE
:101930000E94F2112FEF33E040E050E00E949A1134
:10194000BA01A901405E5F4F6F4F7F4FCA01809778
:1019500097FD4F96807E80968F3F910519F014F089
:101960008FEF90E08032910514F480E290E0909344
:1019700001028093000287E30E947C0388E30E94B7
:101980007C0388E30E947C0385E20E941D025C01C7
:1019900011E0892B09F410E01093DF0384E20E9428
:1019A0001D02AB2851F08091DE03811106C08091A9
:1019B000E00321E082278093E0031093DE0302EB33
:1019C00014E03AEBA32E34E0B32ED8018C910E5FD5
:1019D0001F4F0E941D0221E0892B09F420E0F50130
:1019E00021935F01C016D10681F709E914E021EACD
:1019F000A22E24E0B22ED8018C910E5F1F4F0E94C0
:101A00001D0221E0892B09F420E0F50121935F01FB
:101A1000F4E00F391F0779F78FB7F8948090E80347
:101A20009090E903A090EA03B090EB038FBF609021
:101A3000E5037090E6032BE06216710408F065C0C0
:101A4000F3018827E95DF24F8F4F0C94EA11320DB4
:101A5000BA0F01107710E310710FEF0D360EAB0EB9
:101A6000170F3911F12CE12C10E000E021E030E0FB
:101A700044E050E063E070E082E090E00E94F7060E
:101A800021E030E047E050E066E070E085E090E083
:101A90000E94F7066FEF7FEF83E795E00E947507DE
:101AA0006FEF7FEF8BEC94E00E9475078091E1036C
:101AB0009091E203A091E303B091E403A5019401A6
:101AC000281B390B4A0B5B0BDA01C901883E934096
:101AD000A105B10590F08092E1039092E203A092FB
:101AE000E303B092E4038091E003811175C086E0C6
:101AF00090E09093E6038093E50382EB94E00E94EC
:101B00002A0789E994E00E942A0740E061E08BE11E
:101B100096E00E94CD078BE39FE10197F1F780E00B
:101B20000E94E4078CEF92E00E94A7078091E503F2
:101B30009091E6038230910509F4F9C30CF0E9C3F2
:101B4000892B09F4EFC381E00E94E4078BE193E065
:101B50000E94A7072091E1033091E2034091E30343
:101B60005091E40328513C4F4F4F5F4F6FB7F894AB
:101B70008091E8039091E903A091EA03B091EB030F
:101B80006FBF281B390B4A0B5B0B19A28E010F5D2F
:101B90001F4FCA01B9012AE030E040E050E00E9446
:101BA000B911605DD8016E938D0121153105410594
:101BB000510579F7109769F0FD0101900020E9F7D0
:101BC0003197AF014A1B5B0BBD018BE196E00E9490
:101BD000EC030E94EF04A6CE8AE090E08ACFF12CBD
:101BE000E12C01E010E021E030E044E050E063E06F
:101BF00070E082E090E00E94F70610E000E021E053
:101C000030E047E050E066E070E085E090E00E9460
:101C1000F7066FEF7FEF83E795E00E9475076FEFA0
:101C20007FEF8BEC94E00E9475078091E103909127
:101C3000E203A091E303B091E403A5019401281B02
:101C4000390B4A0B5B0BDA01C901803D9740A105B6
:101C5000B10508F452CF8092E1039092E203A09282
:101C6000E303B092E40387E090E043CFEE24E394F3
:101C7000F12C10E000E030E020E044E050E063E0D0
:101C800070E082E090E00E94F706F12CE12C21E068
:101C900030E047E050E066E070E085E090E00E94D0
:101CA000F7064090E1035090E2036090E3037090E8
:101CB000E4036091B8047091B904072E000C880BFE
:101CC000990B93018201085A144E2F4F3F4F600F1A
:101CD000711F821F931F681979098A099B0928EED1
:101CE00033E040E050E00E94B911B90183E795E08C
:101CF0000E9475076FEF7FEF8BEC94E00E947507F1
:101D0000B501A40144195509660977098091B80401
:101D10009091B904092E000CAA0BBB0B8854944F68
:101D2000AF4FBF4F481759076A077B0708F4E9CE42
:101D30008092E1039092E203A092E303B092E40365
:101D400048E050E05093E6034093E5031092B90455
:101D50001092B804D6CE4090E1035090E203609018
:101D6000E3037090E403D501C40184199509A60921
:101D7000B7098AA39BA3ACA3BDA3BC01CD012AEFE5
:101D800030E040E050E00E94B911790191E0E92291
:101D9000FF2410E000E030E020E044E050E063E0A9
:101DA00070E082E090E00E94F706F12CE12C21E047
:101DB00030E047E050E066E070E085E090E00E94AF
:101DC000F706A0EA4A0EAFE05A1E611C711CC3015F
:101DD000B201681979098A099B0928EE33E040E0CD
:101DE00050E00E94B911B90183E795E00E947507A0
:101DF0006FEF7FEF8BEC94E00E9475072AA13BA167
:101E00004CA15DA1203D37404105510508F479CE34
:101E10008092E1039092E203A092E303B092E40384
:101E2000A9E0B0E0B093E603A093E5036ACEF12CFD
:101E3000E12C01E010E030E020E044E050E063E01D
:101E400070E082E090E00E94F70610E000E021E000
:101E500030E047E050E066E070E085E090E00E940E
:101E6000F7064090E1035090E2036090E303709026
:101E7000E403C301B2016053784F8F4F9F4F68193D
:101E800079098A099B0928EE33E040E050E00E947E
:101E9000B911B90183E795E00E9475076FEF7FEFF5
:101EA0008BEC94E00E947507D501C4018419950953
:101EB000A609B709883E9340A105B10508F41DCED7
:101EC0006FEF7FEF83E795E00E9475078092E10353
:101ED0009092E203A092E303B092E40385E090E0E5
:101EE00008CEF12CE12C10E000E021E030E044E0ED
:101EF00050E063E070E082E090E00E94F70621E0AD
:101F000030E047E050E066E070E085E090E00E945D
:101F1000F7066FEF7FEF83E795E00E9475076FEF9D
:101F20007FEF8BEC94E00E9475078091E103909124
:101F3000E203A091E303B091E403A5019401281BFF
:101F4000390B4A0B5B0BDA01C901883E9340A105AE
:101F5000B10508F4D2CD8092E1039092E203A09201
:101F6000E303B092E4038091E003811135CE81E078
:101F700090E0BFCDF12CE12C10E000E021E030E05A
:101F800044E050E063E070E082E090E00E94F706F9
:101F900001E010E021E030E047E050E066E070E072
:101FA00085E090E00E94F7066FEF7FEF83E795E012
:101FB0000E9475076FEF7FEF8BEC94E00E9475072E
:101FC0008091E1039091E203A091E303B091E403D7
:101FD000A5019401281B390B4A0B5B0BDA01C901DF
:101FE000803D9740A105B10508F487CD8092E103BB
:101FF0009092E203A092E303B092E40382E090E0C7
:1020000078CDF12CE12C10E000E021E030E044E05C
:1020100050E063E070E082E090E00E94F706EE247A
:10202000E394F12C30E020E047E050E066E070E01F
:1020300085E090E00E94F7066FEF7FEF83E795E081
:102040000E9475074090E1035090E2036090E30323
:102050007090E40360919F047091A004072E000C1F
:10206000880B990B93018201085A144E2F4F3F4F52
:10207000600F711F821F931F681979098A099B09D4
:1020800028EE33E040E050E00E94B911B9018BEC3A
:1020900094E00E947507B501A40144195509660929
:1020A000770980919F049091A004092E000CAA0B3F
:1020B000BB0B8854944FAF4FBF4F481759076A075F
:1020C0007B0790F08092E1039092E203A092E303F9
:1020D000B092E40383E090E09093E6038093E503FD
:1020E0001092A00410929F0482EB94E00CCDF12C8E
:1020F000E12C10E000E021E030E044E050E063E05B
:1021000070E082E090E00E94F7064090E10350907A
:10211000E2036090E3037090E403D501C4018419E5
:102120009509A609B7098AA39BA3ACA3BDA3BC01CB
:10213000CD012AEF30E040E050E00E94B911790172
:1021400091E0E922FF2430E020E047E050E066E043
:1021500070E085E090E00E94F7066FEF7FEF83E785
:1021600095E00E947507A0EA4A0EAFE05A1E611C76
:10217000711CC301B201681979098A099B0928EE0B
:1021800033E040E050E00E94B911B9018BEC94E0DB
:102190000E9475072AA13BA14CA15DA1203D3740BB
:1021A0004105510508F4A0CF8092E1039092E2032B
:1021B000A092E303B092E40384E090E09093E603FE
:1021C0008093E50391CFF12CE12C10E000E021E0B9
:1021D00030E044E050E063E070E082E090E00E9494
:1021E000F70601E010E030E020E047E050E066E074
:1021F00070E085E090E00E94F7066FEF7FEF83E7E5
:1022000095E00E9475074090E1035090E2036090D2
:10221000E3037090E403C301B2016053784F8F4F22
:102220009F4F681979098A099B0928EE33E040E03D
:1022300050E00E94B911B9018BEC94E00E9475073F
:10224000D501C40184199509A609B709883E9340B0
:10225000A105B10508F451CC8092E1039092E2030C
:10226000A092E303B092E4031092E6031092E50318
:1022700044CC2FEF30E030930102209300022090F5
:10228000E1033090E2034090E3035090E403C50182
:10229000B401621973098409950924EF31E040E023
:1022A00050E00E94B911890101701127F12CE12C35
:1022B00030E020E044E050E063E070E082E090E055
:1022C0000E94F706032C000C44085508C501B40110
:1022D000621973098409950924EF31E040E050E068
:1022E0000E94B9112170332710E000E047E050E070
:1022F00066E070E085E090E00E94F7068091E003E0
:10230000811102C0712C612C7092E6036092E5038A
:10231000FCCB8430910519F0099709F014CC8AE0C0
:1023200093E002C084E093E00E94A7070CCC84E114
:1023300093E0FACF052E97FB1EF400940E94B11192
:1023400057FD07D00E94B91107FC03D04EF40C943E
:10235000B11150954095309521953F4F4F4F5F4FAC
:10236000089590958095709561957F4F8F4F9F4F01
:102370000895A1E21A2EAA1BBB1BFD010DC0AA1FC6
:10238000BB1FEE1FFF1FA217B307E407F50720F0DE
:10239000A21BB30BE40BF50B661F771F881F991F59
:1023A0001A9469F760957095809590959B01AC01A2
:1023B000BD01CF010895A29FB001B39FC001A39FAB
:1023C000700D811D1124911DB29F700D811D11246E
:1023D000911D0895EE0FFF1F881F8BBF0790F69188
:1023E000E02D19940E94DB11B7FF0895821B930B17
:0623F0000895F894FFCFF0
:1023F60001000000000000000000000000000100D5
:1024060001000000000001000100010001000000C1
:1024160000000100000000000100000000000000B4
:1024260000000000010001000000010000000000A3
:102436000100010000000000000001000000000093
:102446000100000000000000010000000000000084
:102456000000000000000000000001000100010073
:102466000100000000000000000000000000000065
:102476000000000000000000010000000000010054
:102486000100010001000100010000000000400001
:10249600140054002D002C002B002A0029002800CF
:1024A6002700350034003300320031002F003000A1
:1024B6002100220023001E001F0020000000000053
:1024C6008204EC031904CF044A0428043C040000E7
:1024D6000000DD05B005F4068605A9059605870505
:1024E600000000001308EC03F406F306457374615C
:1024F600646F3A0020524F4A4F0020414D415249E5
:102506004C4C4F00205645524445005469656D7049
:042516006F3A000018
:00000001FF
