:100000000C9475010C94A6010C94A6010C94A60105
:100010000C94A6010C94A6010C94A6010C94A601C4
:100020000C94A6010C94A6010C94A6010C94A601B4
:100030000C94A6010C94A6010C94A6010C94A601A4
:100040000C94A6010C94A6010C94A6010C94A60194
:100050000C94A6010C94A6010C94A6010C94AE0875
:100060000C94A6010C9422090C94F8080C94A60197
:100070000C94A6010C94A6010C94A6010C94A60164
:100080000C94A6010C94A6010C94A6010C94A60154
:100090000C94A6010C94A6010C94A6010C9458098A
:1000A0000C94A6010C94A6010C94A6010C94A60134
:1000B0000C94A6010C94A6010C94A6010C94A60124
:1000C0000C94A6010C94A6010C94A6010C94A60114
:1000D0000C94A6010C94A6010C94A6010C94A60104
:1000E0000C94A6010C94B4050C942B030C940702F9
:1000F0000C94B5050C94940E0C94F9010C945212C6
:100100000C9421070C94340F0C9415080C94DE0504
:100110000C940B020C9448030C94D0010C940B0625
:100120000C944D050C9477040C94DB010C94C601DF
:100130000C9418040C94FC040C9401120C94E80F19
:100140000C94D8010C946C030C9446040C94D401C8
:100150000C94E8100C94E5010C94F8020C944F03F5
:100160000C9404030C942A110C94FD010C945B0371
:100170000C9406020C9469040C9419040C9401026A
:100180000C94AF040C94EB010C9415030C949D118A
:100190000C94EF010C94CC010C94A3100C94D50A90
:1001A0000C94C4050C94F3010C94760F0C94170472
:1001B0000C94E1010C9446030C94D7050C9455045F
:1001C0000C9473030C944E100000210024002700AF
:1001D0002A002D0030003300010100000401070156
:1001E0000A0100002200250028002B002E0031000B
:1001F000340002010000050108010B01000020008D
:100200002300260029002C002F00320000010000EE
:100210000301060109010505050507050808080889
:10022000020202020A0A080804040404010101018E
:100230000101010103030303030303030407070789
:100240000C0C0C0C0C0C0C0C02020202060606062E
:10025000060606060B0B0B0B0B0B0B0B01021020FB
:1002600020080810204010204080020102010804EC
:100270000201010204081020408080402010080480
:1002800002018004020180402010080402010804D9
:10029000020101020408102040800102040810201D
:1002A000408000000A0B02090C0D0E080703040130
:1002B000000000000000000000000000000000003E
:1002C000000000000000000000000000000012110B
:1002D000100000000000000000000000000000000E
:1002E0000000000000000000D50A11241FBECFEF5F
:1002F000D1E2DEBFCDBF00E00CBF13E0A0E0B2E072
:10030000EEE1F6E200E00BBF02C007900D92A432CE
:10031000B107D9F726E0A4E2B3E001C01D92A334EF
:10032000B207E1F711E0C5E7D1E000E006C0219790
:100330000109802FFE010E94F112C437D10780E02D
:100340000807A9F70E94AC0B0C940D130C94000045
:100350008150823108F05AC0E82FF0E08827EC5431
:10036000FE4F8F4F0C94F112D401D801C601CC017D
:10037000D0010602DB01E101E501EB01EF01F30130
:10038000F901FD010602010207020B0280918000C3
:100390008F77809380000895809180008F7DF9CFC2
:1003A00080918000877FF5CF84B58F7784BD0895D5
:1003B00084B58F7DFBCF8091B0008F778093B000A4
:1003C00008958091B0008F7DF9CF809190008F7754
:1003D000809390000895809190008F7DF9CF809157
:1003E0009000877FF5CF8091A0008F778093A00049
:1003F00008958091A0008F7DF9CF8091A000877F24
:10040000F5CF809120018F7780932001089580910E
:1004100020018F7DF9CF80912001877FF5CFCF9389
:10042000DF93282F30E0F901EE55FD4F8491F9015B
:10043000E45AFD4FD491F901EA5EFD4FC491CC23FB
:10044000A1F081110E94A801EC2FF0E0EE0FFF1F38
:10045000E450FE4FA591B491EC91ED2381E090E042
:1004600009F480E0DF91CF91089580E090E0FACF29
:100470001F93CF93DF93282F30E0F901EE55FD4F06
:100480008491F901E45AFD4FD491F901EA5EFD4FE0
:10049000C491CC23A9F0162F81110E94A801EC2F42
:1004A000F0E0EE0FFF1FEE51FE4FA591B4918FB714
:1004B000F894EC91111108C0D095DE23DC938FBF26
:1004C000DF91CF911F910895DE2BF8CFCF93DF936B
:1004D000EC018091A3049091A404029749F4C130E7
:1004E000D10509F43DC07CF560E0209709F439C0DE
:1004F0008091A3049091A404049749F4C130D105DC
:1005000009F45EC00CF039C0209709F444C0809112
:10051000A3049091A404059709F0E7C0CA30D1055F
:1005200008F0E3C0FE018827E756FD4F8F4F0C947B
:10053000F112F802040315032B03460348034F038B
:100540005B036C037303C230D105A9F060E0C330D4
:10055000D10571F68091A7040E94380260E006C0C0
:1005600061E08091A7040E94380261E08091A904B3
:100570000E943802BDCF61E0EDCFC230D10539F124
:10058000C330D10509F0C3CF61E08091A7040E9478
:10059000380260E022C061E08091A7040E94380226
:1005A00060E08091A9040E94380261E08091AB0470
:1005B0000E94380260E08091AD040E943802A7CF0B
:1005C00060E08091A7040E94380261E0EACF60E019
:1005D0008091A7040E94380261E08091A9040E94E2
:1005E000380260E08091AB040E94380261E0E3CF02
:1005F00060E08091A7040E94380261E08091A90424
:100600000E94380261E00BC060E08091A7040E9464
:10061000380261E08091A9040E94380260E0809174
:10062000AB040E94380260E010C060E08091A70433
:100630000E94380261E08091A9040E94380260E0C3
:100640008091AB040E94380261E08091AD040E9469
:10065000380261E015C060E08091A7040E94380272
:1006600061E08091A9040E94380260E08091AB04AF
:100670000E94380261E08091AD040E94380260E07F
:100680008091AF04DF91CF910C94380261E0E4CF08
:1006900061E08091A7040E94380260E0E2CF61E04F
:1006A0008091A7040E94380260E08091A9040E9412
:1006B000380261E0DBCF61E08091A7040E9438023C
:1006C00060E08091A9040E94380261E08091AB044F
:1006D0000E94380260E0CFCF61E08091A7040E94C1
:1006E000380260E08BCF60E0F8CFDF91CF910895C2
:1006F000CF93DF9390E0FC01E45AFD4F24918A5E92
:100700009D4FFC0184918823D1F090E0880F991FC0
:10071000FC01E853FE4FA591B491FC01EE51FE4F50
:10072000C591D49161110EC09FB7F8948C91E22FBE
:10073000E0958E238C932881E223E8839FBFDF918D
:10074000CF9108958FB7F894EC91E22BEC938FBF83
:10075000F6CF90917B00977F90937B0086538064C7
:1007600080937C0080917A00806480937A008091ED
:100770007A0086FDFCCF80917800909179000895F1
:100780003FB7F8948091EE039091EF03A091F003AE
:10079000B091F10326B5A89B05C02F3F19F0019633
:1007A000A11DB11D3FBFBA2FA92F982F8827BC01CB
:1007B000CD01620F711D811D911D42E0660F771FF3
:1007C000881F991F4A95D1F708958F929F92AF92F3
:1007D000BF92CF92DF92EF92FF924B015C010E9499
:1007E000C0036B017C010E94C0036C197D098E0956
:1007F0009F09683E734081059105A8F321E0821AA4
:100800009108A108B10888EEC80E83E0D81EE11C4B
:10081000F11C81149104A104B10429F7FF90EF9019
:10082000DF90CF90BF90AF909F908F9008950895E4
:100830000895AF92BF92CF92DF92EF92FF920F9303
:100840001F93CF93DF936C017B018B01040F151F66
:10085000EB015E01AE18BF08C017D10759F06991CE
:10086000D601ED91FC910190F081E02DC601199522
:10087000892B79F7C501DF91CF911F910F91FF90DF
:10088000EF90DF90CF90BF90AF900895FC01538D13
:10089000448D252F30E0842F90E0821B930B54175A
:1008A00010F0CF96089501970895FC01918D828DE7
:1008B000981761F0A28DAE0FBF2FB11D5D968C9180
:1008C000928D9F5F9F73928F90E008958FEF9FEFBF
:1008D0000895FC01918D828D981731F0828DE80F7B
:1008E000F11D858D90E008958FEF9FEF0895FC0135
:1008F000918D228D892F90E0805C9F4F821B910902
:100900008F739927089582EF93E00E94770421E086
:10091000892B09F420E0822F0895FC01A48DA80FF3
:10092000B92FB11DA35ABF4F2C91848D90E0019631
:100930008F739927848FA689B7892C93A089B18951
:100940008C91837080648C93938D848D981306C0F2
:100950000288F389E02D80818F7D80830895EF9256
:10096000FF920F931F93CF93DF93EC0181E0888F69
:100970009B8D8C8D98131AC0E889F989808185FF39
:1009800015C09FB7F894EE89FF896083E889F989DB
:1009900080818370806480839FBF81E090E0DF91DD
:1009A000CF911F910F91FF90EF900895F62E0B8D30
:1009B00010E00F5F1F4F0F731127E02E8C8D8E11EB
:1009C0000CC00FB607FCFACFE889F989808185FF52
:1009D000F5CFCE010E948D04F1CFEB8DEC0FFD2FF2
:1009E000F11DE35AFF4FF0829FB7F8940B8FEA890D
:1009F000FB8980818062CFCFCF93DF93EC01888D1C
:100A00008823B9F0AA89BB89E889F9898C9185FD89
:100A100003C0808186FD0DC00FB607FCF7CF8C9117
:100A200085FFF2CF808185FFEDCFCE010E948D043E
:100A3000E9CFDF91CF91089580E090E0892B29F0F4
:100A40000E94830481110E94000080E090E0892BC5
:100A500049F080E090E0892B29F00E94000081118C
:100A60000E94000080E090E0892B49F080E090E057
:100A7000892B29F00E94000081110E94000080E073
:100A800090E0892B49F080E090E0892B29F00E94CA
:100A9000000081110C9400000895089520916503D1
:100AA000260F3327331F21323105ECF42091AE039A
:100AB000FC0190E080E0243069F082E00895A0918C
:100AC00065032191AC014B5B5C4FA40FB52FB11DA9
:100AD0002C930196861798F380916503680F6093B5
:100AE000650380E0089581E008951092AE0381E0EF
:100AF0008093AD031092880361E084E10E94380284
:100B000061E085E10E943802E9EBF0E080818E7FB0
:100B1000808380818D7F808388E48093B80085E422
:100B20008093BC000895CF93DF9391E090934403AA
:100B30008823B9F0C091B800D091BA008091BC0070
:100B40008A7B8093BC0060E084E10E94380260E010
:100B500085E10E9438020E947505D093BA00C093C7
:100B6000B800DF91CF9108950895E091DD03809161
:100B7000DC03E81730F4F0E0EC5DFC4F808190E09E
:100B800008958FEF9FEF08959091DD038091DC032E
:100B90002FEF3FEF981748F4E92FF0E0EC5DFC4FA2
:100BA000208130E09F5F9093DD03C901089580911B
:100BB000DC039091DD03891B990B0895CF92DF929E
:100BC000EF92FF920F931F93CF93DF937C01CB01A2
:100BD0008A012091B403222389F0EB016B01C40E3A
:100BE000D51ECC15DD0569F06991D701ED91FC9119
:100BF0000190F081E02DC7011995F3CF642F0E9479
:100C00004E05C801DF91CF911F910F91FF90EF909A
:100C1000DF90CF900895CF93DF931F92CDB7DEB7CB
:100C200069832091B4032223F9F02091DA03203262
:100C300058F021E030E0FC013383228390E080E033
:100C40000F90DF91CF9108958091DB03E82FF0E0C2
:100C5000EB54FC4F998190838F5F8093DB038093EB
:100C6000DA0381E090E0ECCF61E0CE0101960E94D2
:100C70004E05F7CFCF92DF92EF92FF920F931F9323
:100C8000CF93DF93FC01C48121E02093B403C09390
:100C9000D5031092DB031092DA038385682B8FE86B
:100CA00094E00E940B06D091DA03D13208F092C092
:100CB0000E94C0036B017C018091AE03811165C06D
:100CC00082E08093AE0381E08093AD038FEF809349
:100CD000AC031092AB03D093AA03A5EBB3E0EAE810
:100CE000F3E080E0D81385C01092890380918903D6
:100CF000CC0FC82BC093890380918803813009F001
:100D00007CC0109288030E94C0036B017C0180911B
:100D100089038093BB008091B0039091B103A091AF
:100D2000B203B091B303892B8A2B8B2B99F00E94CD
:100D3000C0030091B0031091B1032091B203309130
:100D4000B3036C197D098E099F0906171707280739
:100D50003907E0F18091BC0083FDD9CF85EC809309
:100D6000BC000E94C0036B017C018091AE03823005
:100D700009F445C08091AC038F3F61F18091AC03D1
:100D8000803241F18091AC0325C08091B0039091F5
:100D9000B103A091B203B091B303892B8A2B8B2BA3
:100DA00009F48ACF0E94C0030091B0031091B103EF
:100DB0002091B2033091B3036C197D098E099F090C
:100DC000061717072807390708F076CF8091AF0379
:100DD0000E9493051092DB031092DA031092B40381
:100DE000DF91CF911F910F91FF90EF90DF90CF9007
:100DF00008959D9191938F5F75CF85EEB0CF8091CF
:100E0000B0039091B103A091B203B091B303892BC9
:100E10008A2B8B2B09F4A9CF0E94C0030091B00349
:100E20001091B1032091B2033091B3036C197D0985
:100E30008E099F09061717072807390708F095CF6D
:100E4000C5CF90E080E00895EF920F93CF93DF93AA
:100E5000D62FC42F622F0E943802602F8D2F0E9440
:100E600038026E2D8C2FDF91CF910F91EF900C9463
:100E70003802DC011A968C911A97882369F019962A
:100E80008C911997882301F118968C91189730E06E
:100E900020E0882319F0089522E030E0220F331F6C
:100EA000FD01E20FF31F83859485019648EE53E020
:100EB000849F9001859F300D949F300D11241796CB
:100EC0003C932E931697E7CF21E030E0E7CF0F93C6
:100ED0001F93CF93DF93EC01C656DF4F8C0108556B
:100EE0001F4F8881229661E00E947803FE013297AD
:100EF00061E080810E943802C017D10791F7DF912D
:100F0000CF911F910F910895CF92DF92EF92FF92B0
:100F10000F931F93CF93DF936C016A30710510F02C
:100F20006AE070E0860106561F4F8EE0869F7001D2
:100F3000879FF00C1124D0E0C0E0F80180810E5FA3
:100F40001F4FFE01EE0DFF1DEC0DFD1D60810E9487
:100F500038022296CE30D10581F7DF91CF911F91D3
:100F60000F91FF90EF90DF90CF9008950F931F9314
:100F7000CF938C01C62F0E943A066C2F6460C80183
:100F80000E943A066C2F6B7FC8010E943A0683ECE0
:100F900090E00197F1F7CF911F910F9108950F9372
:100FA0001F93CF93DF938C01D62FC42F607F642BC8
:100FB0000E94B60780E1D89FB00111246C2BC801B4
:100FC000DF91CF911F910F910C94B607CF93DF93D0
:100FD00000D000D01F921F92CDB7DEB798E0EAE9AB
:100FE000F2E0DE01119601900D929A95E1F7909151
:100FF0003F06981708F48FEF90E0880F991F21E0C3
:1010000030E02C0F3D1F820F931FFC016081606850
:1010100040E087E396E028960FB6F894DEBF0FBE57
:10102000CDBFDF91CF910C94CF0741E00E94CF0755
:1010300081E090E00895FB0101900020E9F73197ED
:10104000AF01461B570BDC01ED91FC910280F3814F
:10105000E02D19948F929F92AF92BF92EF92FF92E0
:101060000F931F93CF93DF93CDB7DEB7A1970FB642
:10107000F894DEBF0FBECDBF7C01FA01CB0119A2EF
:10108000223008F42AE08E010F5D1F4F822E912C32
:10109000B12CA12CBF01A50194010E94B012F9014D
:1010A000CA016A300CF5605DD8016E938D01232B67
:1010B000242B252B79F790E080E0109721F0BD01DB
:1010C000C7010E941B08A1960FB6F894DEBF0FBEA1
:1010D000CDBFDF91CF911F910F91FF90EF90BF9007
:1010E000AF909F908F900895695CDECF85ED8093DF
:1010F000BC008091B0039091B103A091B203B09174
:10110000B3030796A11DB11D23E0B695A79597954A
:1011100087952A95D1F72091BC0024FD03C0109239
:10112000AE0308954091B0035091B1036091B203B2
:101130007091B303452B462B472B69F30097A1050C
:10114000B10541F02AE22A95F1F700C00197A10903
:10115000B109E1CF8091AF030C9493051F920F92D8
:101160000FB60F9211242F933F938F939F93AF93BA
:10117000BF938091EA039091EB03A091EC03B091AF
:10118000ED033091E90323E0230F2D3758F5019645
:10119000A11DB11D2093E9038093EA039093EB0313
:1011A000A093EC03B093ED038091EE039091EF03D5
:1011B000A091F003B091F1030196A11DB11D8093A0
:1011C000EE039093EF03A093F003B093F103BF916C
:1011D000AF919F918F913F912F910F900FBE0F90E4
:1011E0001F90189526E8230F0296A11DB11DD2CF9E
:1011F0001F920F920FB60F9211240BB60F922F93DE
:101200003F934F935F936F937F938F939F93AF938E
:10121000BF93EF93FF9382EF93E00E948D04FF91C1
:10122000EF91BF91AF919F918F917F916F915F915E
:101230004F913F912F910F900BBE0F900FBE0F90CB
:101240001F9018951F920F920FB60F9211240BB694
:101250000F922F938F939F93EF93FF93E09102044C
:10126000F09103048081E0910804F091090482FD6B
:101270001DC0908180910B048F5F8F7320910C04AF
:10128000821741F0E0910B04F0E0EE50FC4F958F97
:1012900080930B04FF91EF919F918F912F910F906D
:1012A0000BBE0F900FBE0F901F9018958081F2CF4C
:1012B0001F920F920FB60F9211240BB60F922F931D
:1012C0003F934F935F936F937F938F939F93AF93CE
:1012D000BF93EF93FF938091B900887F803609F424
:1012E0004DC008F040C0883209F4A9C028F580310B
:1012F00009F49DC0C8F4882309F4FBC0883009F4C0
:1013000096C0FF91EF91BF91AF919F918F917F9187
:101310006F915F914F913F912F910F900BBE0F9066
:101320000FBE0F901F901895883109F488C0803245
:1013300041F78093AC0314C0803409F49DC040F49D
:101340008033B9F38833E9F68093AC0385ECB0C001
:10135000803509F485C0883509F496C0883489F64B
:101360000E947608CECF883909F48CC038F58837CA
:1013700029F050F4883611F0803719F683E0809315
:10138000AE031092870357C0883809F47BC08039B8
:1013900019F0803809F0B5CF80918703803208F0CA
:1013A00071C0E091870381E08E0F80938703809165
:1013B000BB00F0E0E959FC4F80833DC0803B39F031
:1013C000E0F4803A09F479C0883A09F09ACF84E0D1
:1013D0008093AE031092660310926503E091D803E8
:1013E000F091D90319958091650381110FC081E0B7
:1013F000809365031092450309C0803C09F4A6CF91
:10140000883C09F4A3CF883B09F07BCFE0916603C9
:1014100081E08E0F80936603F0E0EB5BFC4F8081F0
:101420008093BB00909166038091650329C08091F1
:1014300089038093BB0085EC8093BC0062CF9091C0
:10144000AB038091AA03981758F5E091AB0381E0B4
:101450008E0F8093AB03F0E0E657FC4F8081E9CF1D
:10146000E091AB0381E08E0F8093AB038091BB00D2
:10147000F0E0E657FC4F80839091AB038091AA0384
:101480009817C8F285E8D8CFE091AB0381E08E0FC2
:101490008093AB038091BB00F0E0E657FC4F808364
:1014A0008091AD0381115CCF81E08093880384EA51
:1014B0008093BC001092AE0324CF85EC8093BC00D7
:1014C0001092AE0380918703803230F4E09187035D
:1014D000F0E0E959FC4F10826091870370E0E091E1
:1014E000D603F091D70387E693E01995109287030E
:1014F00008CF1092AC0334CFCF93DF93FC01DB0114
:101500008D919C91119791838083108612968D9175
:101510009C91139793838283118614968D919C914D
:101520009583848312861486138616861586108A00
:101530001786128A118A148A138A168A158A108EBF
:10154000178A17821682DF0190E080E0009751F43D
:10155000148613860196129687309105B9F7DF91AC
:10156000CF910895EC01CE7FCE0FDF1F2B853C85F8
:101570002F5F3F4F1C963C932E931B97EBCF2AE98E
:10158000E0E0F2E0DC0101900D922A95E1F7FB0129
:10159000DC01A656BF4FCB010E96219131912D93C0
:1015A0003D93E817F907C9F708950F931F93CF9359
:1015B000DF93CDB7DEB72E970FB6F894DEBF0FBE20
:1015C000CDBFE2EFF3E01382128288EE93E0A0E059
:1015D000B0E084839583A683B7832EEC32E0318319
:1015E000208325EC30E03587248724EC30E03787F2
:1015F000268720EC30E0318B208B21EC30E0338BE0
:10160000228B22EC30E0358B248B26EC30E0378BBC
:10161000268B118E128E138E148EEFE8F4E0138257
:10162000128284839583A683B78380EE92E09183B0
:101630008083E7E3F6E01382128282EF92E09183E7
:10164000808387E2848384E1818784E082871386B4
:101650008EE0E2EAF2E0DE01119601900D928A95A9
:10166000E1F7BE016F5F7F4F8FE895E00E94BF0AF0
:101670008EE0E0EBF2E0DE01119601900D928A958A
:10168000E1F7BE016F5F7F4F87EE94E00E94BF0AD3
:1016900086E0EEEBF2E0DE01119601900D928A9564
:1016A000E1F7BE016F5F7F4F8EEC94E00E947C0AF1
:1016B00086E0E4ECF2E0DE01119601900D928A954D
:1016C000E1F7BE016F5F7F4F85EB94E00E947C0ADB
:1016D0000BE914E0F8011386128611821082168A33
:1016E000178A108E118E88E691E09783868388E0B2
:1016F00090E09587848789E090E0978786878AE0E5
:1017000090E0918B808B8BE090E0938B828B61E0FB
:1017100088E00E94780361E0F80186850E947803E2
:1017200061E0F80180890E94780361E0F801828914
:101730000E947803F801158A148A84E090E091876A
:1017400080872E960FB6F894DEBF0FBECDBFDF9117
:10175000CF911F910F910895CF93DF9300D01F92E7
:10176000CDB7DEB7789484B5826084BD84B58160DE
:1017700084BD85B5826085BD85B5816085BD80915C
:101780006E00816080936E001092810080918100D4
:1017900082608093810080918100816080938100CC
:1017A000809180008160809380008091B10084608E
:1017B0008093B1008091B00081608093B0008091EF
:1017C000910082608093910080919100816080936C
:1017D0009100809190008160809390008091A100A1
:1017E00082608093A1008091A10081608093A1001C
:1017F0008091A00081608093A0008091210182608F
:101800008093210180912101816080932101809149
:10181000200181608093200180917A008460809310
:101820007A0080917A00826080937A0080917A00B9
:10183000816080937A0080917A00806880937A003A
:101840001092C10060E085E20E94780360E084E2CB
:101850000E94780361E086E10E94780361E087E1FD
:101860000E94780361E088E10E94780361E089E1E9
:101870000E94780361E08AE10E94780361E08BE1D5
:101880000E94780360E086E10E94380260E087E110
:101890000E94380260E088E10E94380260E089E13D
:1018A0000E94380260E08AE10E94380260E08BE129
:1018B0000E9438028FE895E00E94670787EE94E067
:1018C0000E9467072091A1043091A204032E000C0E
:1018D000440B550B60E077E883E993E00E94D21255
:1018E000CA01B9012CE330E040E050E00E94D2127E
:1018F00020939D0430939E0440939F045093A00432
:10190000E0910204F091030482E08083E091FE0301
:10191000F091FF031082E0910004F09101048FEC3C
:10192000808310920A04E0910604F091070486E097
:101930008083E0910404F0910504808180618083BC
:10194000E0910404F0910504808188608083E09137
:101950000404F0910504808180688083E091040490
:10196000F091050480818F7D80831092DD031092B9
:10197000DC031092DB031092DA030E94750587E105
:1019800094E09093D9038093D80388E194E09093F6
:10199000D7038093D60310923C0680914106823093
:1019A00018F098E090933C0680933F0662E370E065
:1019B00080E090E00E94E5036091420687E396E0B4
:1019C0000E943A0668EE73E080E090E00E94E50332
:1019D00060E387E396E00E94B6078BE496E4019704
:1019E000F1F760E387E396E00E94B6072BE436E464
:1019F000C9010197F1F760E387E396E00E94B6071B
:101A000083E592E00197F1F760E287E396E00E94B8
:101A1000B60760913C06606240E087E396E00E9472
:101A2000CF0784E080933D0640E06CE087E396E0DA
:101A30000E94CF0740E061E087E396E00E94CF0775
:101A40008BE39FE10197F1F782E080933E0640E04F
:101A500066E087E396E00E94CF0740E062E087E31C
:101A600096E00E94CF07ABE3BFE11197F1F788E062
:101A70008093420660E087E396E00E943A06109267
:101A8000E8031092E703FF24F3945AE0252E312C4B
:101A900064E0C62ED12C86E30E94A90387E30E944E
:101AA000A90388E30E94A9039A8389839093E103A1
:101AB0008093E00388E30E94A90385E20E940F025D
:101AC0008C01BB24B394892B09F4B12CB092DF03B1
:101AD00084E20E940F02012B49F08091DE03811104
:101AE00005C08091E2038F258093E203B092DE036C
:101AF0000EEC14E046EDA42E44E0B42EF8018081F3
:101B00000E5F1F4F0E940F0221E0892B09F420E095
:101B1000D5012D935D01E4EDF4E0E017F10771F7D5
:101B200005EB14E03DEBA32E34E0B32ED8018C91ED
:101B30000E5F1F4F0E940F0221E0892B09F420E065
:101B4000F50121935F012BEB34E02017310771F78A
:101B500049815A811416150614F52091A10430917B
:101B6000A204032E000C440B550B60E077E883E9D8
:101B700093E00E94D212CA01B901A981BA81B59538
:101B8000A7959D01BB0F440B550B0E94D2122093C9
:101B90009D0430939E0440939F045093A004E1E081
:101BA000F0E0F0939C04E0939B0428E631E03A8354
:101BB000298349815A81452B09F46CC00E94C003D6
:101BC0000091B1041091B2042091B3043091B40497
:101BD0004B015C01801A910AA20AB30A00919D048C
:101BE00010919E0420919F043091A00480169106CC
:101BF000A206B306F0F26093B1047093B20480932E
:101C0000B3049093B4048091A5049091A60420910C
:101C10009B0430919C042130310541F5019690934D
:101C2000A6048093A5042091A1043091A2048217F8
:101C3000930721F41092A6041092A50489819A8139
:101C400001979A8389838091A5049091A60420919D
:101C5000A3043091A404B1012530310511F064E0F2
:101C600070E00E949C120E946602A3CF892B41F46F
:101C70008091A1049091A2049093A6048093A5045E
:101C80008091A5049091A60401979093A604809357
:101C9000A504D4CF8090E0039090E103092C000CC0
:101CA000AA08BB082AE0B501A401B7FE0DC06DE289
:101CB00082EF93E00E94AF0444275527BA014819E8
:101CC00059096A097B092AE082EF93E00E942A08F9
:101CD0006AEF72E082EF93E00E941B088FB7F894DE
:101CE0008090EA039090EB03A090EC03B090ED039A
:101CF0008FBF6090E7037090E8039BE06916710462
:101D000008F064C0F3018827E757F14F8F4F0C9418
:101D1000F112940EE8102A119D110112A310340F34
:101D2000760FE80F4E105212E12C00E021E048E15E
:101D300050E067E170E086E190E00E94240721E036
:101D40004BE150E06AE170E089E190E00E942407F5
:101D50006FEF7FEF8FE895E00E9484076FEF7FEFD2
:101D600087EE94E00E9484078091E3039091E4035E
:101D7000A091E503B091E603A5019401281B390B5E
:101D80004A0B5B0BDA01C901883E9340A105B105FE
:101D9000A8F08092E3039092E403A092E503B0924E
:101DA000E6038091E203882319F08AE090E002C004
:101DB00086E090E09093E8038093E7038EEC94E054
:101DC0000E94390785EB94E00E94390740E061E00A
:101DD00087E396E00E94CF078BE39FE10197F1F73D
:101DE00080E00E94E6076DEF72E087E396E00E94D4
:101DF0001B088091E7039091E8038230910509F474
:101E000098C30CF089C365E073E0892B09F48CC397
:101E100081E00E94E6076CE173E087E396E00E94B0
:101E20001B084091E3035091E4036091E503709136
:101E3000E60348515C4F6F4F7F4F2FB7F894809166
:101E4000EA039091EB03A091EC03B091ED032FBF57
:101E5000481B590B6A0B7B0B2AE087E396E00E9434
:101E60002A080E941C0517CEE12C01E021E048E180
:101E700050E067E170E086E190E00E94240700E016
:101E800021E04BE150E06AE170E089E190E00E94DE
:101E900024076FEF7FEF8FE895E00E9484076FEFD4
:101EA0007FEF87EE94E00E9484078091E303909196
:101EB000E403A091E503B091E603A5019401281B7A
:101EC000390B4A0B5B0BDA01C901803D9740A10534
:101ED000B10508F473CF8092E3039092E403A092DB
:101EE000E503B092E60387E090E064CFEE24E3944C
:101EF00000E020E048E150E067E170E086E190E03A
:101F00000E942407E12C21E04BE150E06AE170E0FF
:101F100089E190E00E9424074090E3035090E4039D
:101F20006090E5037090E603D301C201885A944E95
:101F3000AF4FBF4F4091D4045091D504052E000CF3
:101F4000660B770B840F951FA61FB71FBC01CD0131
:101F5000681979098A099B0928EE33E040E050E0CE
:101F60000E94B012B9018FE895E00E9484076FEFDC
:101F70007FEF87EE94E00E948407B501A401441925
:101F80005509660977098091D4049091D504092EEA
:101F9000000CAA0BBB0B8854944FAF4FBF4F481790
:101FA00059076A077B0708F40DCF8092E3039092EC
:101FB000E403A092E503B092E60388E090E09093FA
:101FC000E8038093E7031092D5041092D404FACE6C
:101FD0004090E3035090E4036090E5037090E603C3
:101FE000D501C40184199509A609B70989839A8383
:101FF000AB83BC83BC01CD012AEF30E040E050E070
:102000000E94B0122170E22E00E020E048E150E092
:1020100067E170E086E190E00E942407E12C21E076
:102020004BE150E06AE170E089E190E00E94240712
:1020300090EA490E9FE0591E611C711CC301B20158
:10204000681979098A099B0928EE33E040E050E0DD
:102050000E94B012B9018FE895E00E9484076FEFEB
:102060007FEF87EE94E00E94840729813A814B81BB
:102070005C81203D37404105510508F4A3CE809294
:10208000E3039092E403A092E503B092E60389E0B3
:1020900090E09093E8038093E70394CEE12C01E075
:1020A00020E048E150E067E170E086E190E00E94C6
:1020B000240700E021E04BE150E06AE170E089E1B3
:1020C00090E00E9424074090E3035090E403609066
:1020D000E5037090E603C301B2016053784F8F4F60
:1020E0009F4F681979098A099B0928EE33E040E07F
:1020F00050E00E94B012B9018FE895E00E94840779
:102100006FEF7FEF87EE94E00E948407D501C40152
:1021100084199509A609B709883E9340A105B10520
:1021200008F44CCE6FEF7FEF8FE895E00E948407B4
:102130008092E3039092E403A092E503B092E60359
:1021400085E090E037CEE12C00E021E048E150E06E
:1021500067E170E086E190E00E94240721E04BE116
:1021600050E06AE170E089E190E00E9424076FEF9F
:102170007FEF8FE895E00E9484076FEF7FEF87EE97
:1021800094E00E9484078091E3039091E403A0917E
:10219000E503B091E603A5019401281B390B4A0B16
:1021A0005B0BDA01C901883E9340A105B10508F433
:1021B00005CE8092E3039092E403A092E503B092EF
:1021C000E6038091E2038111F0CD81E090E0F2CD51
:1021D000E12C00E021E048E150E067E170E086E1B9
:1021E00090E00E94240701E021E04BE150E06AE129
:1021F00070E089E190E00E9424076FEF7FEF8FE8A5
:1022000095E00E9484076FEF7FEF87EE94E00E94D5
:1022100084078091E3039091E403A091E503B091DA
:10222000E603A5019401281B390B4A0B5B0BDA016D
:10223000C901803D9740A105B10508F4BFCD80924A
:10224000E3039092E403A092E503B092E60382E0F8
:1022500090E0B0CDE12C00E021E048E150E067E102
:1022600070E086E190E00E942407EE24E39420E0F1
:102270004BE150E06AE170E089E190E00E942407C0
:102280006FEF7FEF8FE895E00E9484074090E303B3
:102290005090E4036090E5037090E6038091BB04E6
:1022A0009091BC04092E000CAA0BBB0BB301A20138
:1022B000485A544E6F4F7F4F840F951FA61FB71F6C
:1022C000BC01CD01681979098A099B0928EE33E020
:1022D00040E050E00E94B012B90187EE94E00E9405
:1022E0008407B501A401441955096609770980914D
:1022F000BB049091BC04092E000CAA0BBB0B8854A4
:10230000944FAF4FBF4F481759076A077B0790F0AC
:102310008092E3039092E403A092E503B092E60377
:1023200083E090E09093E8038093E7031092BC046D
:102330001092BB048EEC94E047CDE12C00E021E04C
:1023400048E150E067E170E086E190E00E942407F8
:102350004090E3035090E4036090E5037090E6033F
:10236000D501C40184199509A609B70989839A83FF
:10237000AB83BC83BC01CD012AEF30E040E050E0EC
:102380000E94B0122170E22E20E04BE150E06AE1A1
:1023900070E089E190E00E9424076FEF7FEF8FE803
:1023A00095E00E94840790EA490E9FE0591E611C47
:1023B000711CC301B201681979098A099B0928EEC9
:1023C00033E040E050E00E94B012B90187EE94E0A3
:1023D0000E94840729813A814B815C81203D3740EE
:1023E0004105510508F4A6CF8092E3039092E403DF
:1023F000A092E503B092E603D092E803C092E7030F
:1024000099CFE12C00E021E048E150E067E170E085
:1024100086E190E00E94240701E020E04BE150E0DB
:102420006AE170E089E190E00E9424076FEF7FEF9E
:102430008FE895E00E9484074090E3035090E40306
:102440006090E5037090E603C301B2016053784FDA
:102450008F4F9F4F681979098A099B0928EE33E04D
:1024600040E050E00E94B012B90187EE94E00E9473
:102470008407D501C40184199509A609B709883EC6
:102480009340A105B10508F499CC8092E3039092A2
:10249000E403A092E503B092E6031092E8031092E1
:1024A000E7038CCC8091E3039091E403A091E503D2
:1024B000B091E603A5019401281B390B4A0B5B0B75
:1024C000CA01B90124EF31E040E050E00E94B012AF
:1024D000122F1170E12C012F20E048E150E067E15C
:1024E00070E086E190E00E94240700E0212F4BE19C
:1024F00050E06AE170E089E190E00E942407809159
:10250000E203882311F07A82698249815A815093CB
:10251000E8034093E7035ACC8430910519F00997FA
:1025200009F076CC6BE073E087E396E00E941B082D
:102530006FCC65E173E0F8CF97FB072E16F400949B
:1025400007D077FD09D00E94F91207FC05D03EF4B0
:10255000909581959F4F0895709561957F4F08954F
:10256000A1E21A2EAA1BBB1BFD010DC0AA1FBB1F97
:10257000EE1FFF1FA217B307E407F50720F0A21B09
:10258000B30BE40BF50B661F771F881F991F1A9476
:1025900069F760957095809590959B01AC01BD01A0
:1025A000CF010895052E97FB1EF400940E94E912B6
:1025B00057FD07D00E94B01207FC03D04EF40C94D4
:1025C000E91250954095309521953F4F4F4F5F4F01
:1025D000089590958095709561957F4F8F4F9F4F8F
:1025E0000895EE0FFF1F881F8BBF0790F691E02D17
:1025F0001994AA1BBB1B51E107C0AA1FBB1FA6173A
:10260000B70710F0A61BB70B881F991F5A95A9F79B
:0E26100080959095BC01CD010895F894FFCF00
:10261E0000000000000000000000000001000100AA
:10262E000000000001000100010001000000000098
:10263E00010000000000010000000000000000008A
:10264E000000010001000000010000000000010078
:10265E000100000000000000010000000000010069
:10266E00000000000000010000000000000000005B
:10267E000000000000000000010001000100010048
:10268E00000000000000000000000000000000003C
:10269E000000000000000100000000000100010029
:1026AE0001000100010001000000000040001400C4
:1026BE0054002D002C002B002A0029002800270092
:1026CE00350034003300320031002F00300021007D
:1026DE00220023001E001F00200000000000AF0497
:1026EE0019044604FC047704550469040000000034
:1026FE000B06DE052107B405D705C405B505000098
:10270E0000001508190421074D050D0A00457374C4
:10271E0061646F3A0020524F4A4F0020414D4152A2
:10272E00494C4C4F00205645524445005469656D46
:04273E00706F3A007E
:00000001FF
