:100000000C9461010C9492010C9492010C94920155
:100010000C9492010C9492010C9492010C94920114
:100020000C9492010C9492010C9492010C94920104
:100030000C9492010C9492010C9492010C949201F4
:100040000C9492010C9492010C9492010C949201E4
:100050000C9492010C9492010C9492010C9443081C
:100060000C9492010C94B7080C948D080C94920196
:100070000C9492010C9492010C9492010C949201B4
:100080000C9492010C9492010C9492010C949201A4
:100090000C9492010C9492010C9492010C94ED0832
:1000A0000C9492010C9492010C9492010C94920184
:1000B0000C9492010C9492010C9492010C94920174
:1000C0000C9492010C9492010C9492010C94920164
:1000D0000C9492010C9492010C9492010C94920154
:1000E0000C9492010C94B8040C94E5040C94BC0F8D
:1000F0000C94DF0E0C94F1020C94E20D0C9451035D
:100100000C94A00E0C947D060C94F20C0C94F70148
:100110000C948F040C94440E0C9420030C94121035
:100120000C94CD010C94F3010C94C7010C94D603EC
:100130000C94110A0C94E5010C9427040C942F03E1
:100140000C94330D0C944E100C94DF010C9443036B
:100150000C94ED010C94DB010C948E040C94BC0106
:100160000C94D7010C94C0010C94B1040C94E901D7
:100170000C9489030C94F3020C94F2020C94B801D1
:100180000C949E040C941D0F0C94FB050C946D0DA7
:100190000C94B2010C94C4010C94F2010C94D101A2
:1001A00000002100240027002A002D003000330029
:1001B00001010000040107010A01000022002500DE
:1001C00028002B002E003100340002010000050140
:1001D00008010B01000020002300260029002C004C
:1001E0002F0032000001000003010601090105058E
:1001F0000505070508080808020202020A0A08089D
:1002000004040404010101010101010103030303CA
:1002100003030303040707070C0C0C0C0C0C0C0C59
:100220000202020206060606060606060B0B0B0B6A
:100230000B0B0B0B0102102020080810204010208F
:10024000408002010201080402010102040810209A
:100250004080804020100804020180040201804098
:100260002010080402010804020101020408102001
:100270004080010204081020408000000A0B02099F
:100280000C0D0E0807030401000000000000000030
:10029000000000000000000000000000000000005E
:1002A000000000000000121110000000000000001B
:1002B000000000000000000000000000000000003E
:1002C000110A11241FBECFEFD1E2DEBFCDBF00E087
:1002D0000CBF13E0A0E0B2E0EEECF3E200E00BBFF5
:1002E00002C007900D92A030B107D9F724E0A0E03A
:1002F000B3E001C01D92AF38B207E1F711E0C1E6EB
:10030000D1E000E006C021970109802FFE010E9484
:10031000B810C036D10780E00807A9F70E94590A33
:100320000C94E5110C9400008150823108F05AC001
:10033000E82FF0E08827E056FE4F8F4F0C94B8105E
:10034000C001C401B201B801BC01F201C701CD0175
:10035000D101D701DB01DF01E501E901F201ED0186
:10036000F301F701809180008F77809380000895DA
:10037000809180008F7DF9CF80918000877FF5CFBD
:1003800084B58F7784BD089584B58F7DFBCF809130
:10039000B0008F778093B00008958091B0008F7D7A
:1003A000F9CF809190008F7780939000089580918D
:1003B00090008F7DF9CF80919000877FF5CF80915D
:1003C000A0008F778093A00008958091A0008F7D7A
:1003D000F9CF8091A000877FF5CF809120018F77A2
:1003E000809320010895809120018F7DF9CF809125
:1003F0002001877FF5CFCF93DF93282F30E0F901DD
:10040000E658FD4F8491F901EC5CFD4FD491F90160
:10041000E251FE4FC491CC23A1F081110E949401BE
:10042000EC2FF0E0EE0FFF1FEC52FE4FA591B491C0
:10043000EC91ED2381E090E009F480E0DF91CF9131
:10044000089580E090E0FACF1F93CF93DF93282F99
:1004500030E0F901E658FD4F8491F901EC5CFD4F65
:10046000D491F901E251FE4FC491CC23A9F0162F8B
:1004700081110E949401EC2FF0E0EE0FFF1FE65473
:10048000FE4FA591B4918FB7F894EC91111108C06B
:10049000D095DE23DC938FBFDF91CF911F9108951C
:1004A000DE2BF8CFCF93DF9390E0FC01EC5CFD4FA7
:1004B000249182519E4FFC0184918823D1F090E0D9
:1004C000880F991FFC01E056FE4FA591B491FC01E5
:1004D000E654FE4FC591D49161110EC09FB7F894B8
:1004E0008C91E22FE0958E238C932881E223E88380
:1004F0009FBFDF91CF9108958FB7F894EC91E22BD5
:10050000EC938FBFF6CF90917B00977F90937B0009
:100510008653806480937C0080917A00806480930D
:100520007A0080917A0086FDFCCF809178009091CE
:10053000790008953FB7F8948091D2039091D30346
:10054000A091D403B091D50326B5A89B05C02F3F39
:1005500019F00196A11DB11D3FBFBA2FA92F982FE9
:100560008827BC01CD01620F711D811D911D42E0E4
:10057000660F771F881F991F4A95D1F708958F92AC
:100580009F92AF92BF92CF92DF92EF92FF924B0178
:100590005C010E949A026B017C010E949A026C1914
:1005A0007D098E099F09683E734081059105A8F376
:1005B00021E0821A9108A108B10888EEC80E83E0F4
:1005C000D81EE11CF11C81149104A104B10429F787
:1005D000FF90EF90DF90CF90BF90AF909F908F9063
:1005E000089508950895AF92BF92CF92DF92EF924F
:1005F000FF920F931F93CF93DF936C017B018B01CD
:10060000040F151FEB015E01AE18BF08C017D1071C
:1006100059F06991D601ED91FC910190F081E02DA6
:10062000C6011995892B79F7C501DF91CF911F91EB
:100630000F91FF90EF90DF90CF90BF90AF90089513
:10064000FC01538D448D252F30E0842F90E0821BD8
:10065000930B541710F0CF96089501970895FC015D
:10066000918D828D981761F0A28DAE0FBF2FB11DB5
:100670005D968C91928D9F5F9F73928F90E008950D
:100680008FEF9FEF0895FC01918D828D981731F0C7
:10069000828DE80FF11D858D90E008958FEF9FEF1B
:1006A0000895FC01918D228D892F90E0805C9F4FF1
:1006B000821B91098F739927089586ED93E00E941C
:1006C000510321E0892B09F420E0822F0895FC01D9
:1006D000A48DA80FB92FB11DA35ABF4F2C91848DA3
:1006E00090E001968F739927848FA689B7892C9300
:1006F000A089B1898C91837080648C93938D848D53
:10070000981306C00288F389E02D80818F7D808355
:100710000895EF92FF920F931F93CF93DF93EC0115
:1007200081E0888F9B8D8C8D98131AC0E889F98998
:10073000808185FF15C09FB7F894EE89FF8960839B
:10074000E889F98980818370806480839FBF81E01C
:1007500090E0DF91CF911F910F91FF90EF9008955E
:10076000F62E0B8D10E00F5F1F4F0F731127E02E39
:100770008C8D8E110CC00FB607FCFACFE889F98971
:10078000808185FFF5CFCE010E946703F1CFEB8D0D
:10079000EC0FFD2FF11DE35AFF4FF0829FB7F89445
:1007A0000B8FEA89FB8980818062CFCFCF93DF9363
:1007B000EC01888D8823B9F0AA89BB89E889F98979
:1007C0008C9185FD03C0808186FD0DC00FB607FCAE
:1007D000F7CF8C9185FFF2CF808185FFEDCFCE01E1
:1007E0000E946703E9CFDF91CF91089580E090E008
:1007F000892B29F00E945D0381110E94000080E096
:1008000090E0892B49F080E090E0892B29F00E944C
:10081000000081110E94000080E090E0892B49F0E7
:1008200080E090E0892B29F00E94000081110E9455
:10083000000080E090E0892B49F080E090E0892B77
:1008400029F00E94000081110C9400000895089581
:1008500020914103260F3327331F21323105ECF459
:1008600020918A03FC0190E080E0243069F082E06E
:100870000895A09141032191AC014F5D5C4FA40FFD
:10088000B52FB11D2C930196861798F380914103E3
:10089000680F6093410380E0089581E0089510920D
:1008A0008A0381E0809389031092640361E084E10C
:1008B0000E94240261E085E10E942402E9EBF0E05D
:1008C00080818E7F808380818D7F808388E4809388
:1008D000B80085E48093BC000895CF93DF9391E046
:1008E000909320038823B9F0C091B800D091BA004A
:1008F0008091BC008A7B8093BC0060E084E10E9410
:10090000240260E085E10E9424020E944F04D093FB
:10091000BA00C093B800DF91CF9108950895E09197
:10092000B9038091B803E81730F4F0E0E050FD4FD0
:10093000808190E008958FEF9FEF08959091B90323
:100940008091B8032FEF3FEF981748F4E92FF0E0BC
:10095000E050FD4F208130E09F5F9093B903C901C3
:1009600008958091B8039091B903891B990B08955C
:10097000CF92DF92EF92FF920F931F93CF93DF936B
:100980007C01CB018A0120919003222389F0EB01A5
:100990006B01C40ED51ECC15DD0569F06991D70138
:1009A000ED91FC910190F081E02DC7011995F3CFF5
:1009B000642F0E942804C801DF91CF911F910F91ED
:1009C000FF90EF90DF90CF900895CF93DF931F9229
:1009D000CDB7DEB76983209190032223F9F02091EF
:1009E000B603203258F021E030E0FC01338322834B
:1009F00090E080E00F90DF91CF9108958091B70350
:100A0000E82FF0E0EF56FC4F998190838F5F809341
:100A1000B7038093B60381E090E0ECCF61E0CE01B4
:100A200001960E942804F7CFCF92DF92EF92FF92B7
:100A30000F931F93CF93DF93FC01C48121E0209398
:100A40009003C093B1031092B7031092B60383854D
:100A5000682B83E794E00E94E504D091B603D1327D
:100A600008F092C00E949A026B017C0180918A0377
:100A7000811165C082E080938A0381E080938903BD
:100A80008FEF8093880310928703D0938603A1E9A8
:100A9000B3E0E6E6F3E080E0D81385C0109265038A
:100AA00080916503CC0FC82BC093650380916403CC
:100AB000813009F07CC0109264030E949A026B019D
:100AC0007C01809165038093BB0080918C039091A1
:100AD0008D03A0918E03B0918F03892B8A2B8B2BD2
:100AE00099F00E949A0200918C0310918D0320913D
:100AF0008E0330918F036C197D098E099F090617AB
:100B0000170728073907E0F18091BC0083FDD9CF92
:100B100085EC8093BC000E949A026B017C0180915D
:100B20008A03823009F445C0809188038F3F61F1C8
:100B300080918803803241F18091880325C08091A3
:100B40008C0390918D03A0918E03B0918F03892B1C
:100B50008A2B8B2B09F48ACF0E949A0200918C0376
:100B600010918D0320918E0330918F036C197D09B4
:100B70008E099F09061717072807390708F076CF4F
:100B800080918B030E946D041092B7031092B603FC
:100B900010929003DF91CF911F910F91FF90EF90F2
:100BA000DF90CF9008959D9191938F5F75CF85EEE3
:100BB000B0CF80918C0390918D03A0918E03B09162
:100BC0008F03892B8A2B8B2B09F4A9CF0E949A02C1
:100BD00000918C0310918D0320918E0330918F032F
:100BE0006C197D098E099F09061717072807390711
:100BF00008F095CFC5CF90E080E00895DC011D920C
:100C00001D928CE0E6E0F2E001900D928A95E1F70A
:100C10000895EF920F93CF93DF93D62FC42F622FB7
:100C20000E942402602F8D2F0E9424026E2D8C2F93
:100C3000DF91CF910F91EF900C9424020F931F93AB
:100C4000CF938C01C62F0E9414056C2F6460C801DD
:100C50000E9414056C2F6B7FC8010E94140583EC61
:100C600090E00197F1F7CF911F910F9108950F93A5
:100C70001F93CF93DF938C01D62FC42F607F642BFB
:100C80000E941E0680E1D89FB00111246C2BC80180
:100C9000DF91CF911F910F910C941E06CF93DF939C
:100CA00000D000D01F921F92CDB7DEB798E0E2E1EE
:100CB000F2E0DE01119601900D929A95E1F7909184
:100CC0008704981708F48FEF90E0880F991F21E0B0
:100CD00030E02C0F3D1F820F931FFC016081606884
:100CE00040E08FE794E028960FB6F894DEBF0FBE81
:100CF000CDBFDF91CF910C94370641E00E943706BB
:100D000081E090E008958F929F92AF92BF92CF9230
:100D1000DF92EF92FF920F931F93CF93DF93CDB7A4
:100D2000DEB7ADB6BEB6DC0126E030E0E8EEEE2E72
:100D3000E3E0FE2E1696ED91FC9117974081442337
:100D400009F445C0CDB6DEB6A9014F5F5F4F440F31
:100D5000551F6DB77EB7641B750B0FB6F8947EBF39
:100D60000FBE6DBFEDB7FEB731964F0113821282F1
:100D70000DB71EB70B5F1F4F42E050E0BA016E7F08
:100D8000680D791DFB01608171816F5F7F4FF801F4
:100D9000619371938F014F5F5F4F2417350774F78D
:100DA000A901440F551FF401E40FF51F6081718103
:100DB0000FB6F894DEBE0FBECDBE6E9DA0016F9D36
:100DC000500D7E9D500D1124FC01518340831297DC
:100DD0002250310909F0AECF0FB6F894BEBE0FBE57
:100DE000ADBEDF91CF911F910F91FF90EF90DF90FB
:100DF000CF90BF90AF909F908F900895FB0101908E
:100E00000020E9F73197AF01461B570BDC01ED914C
:100E1000FC910280F381E02D19948F929F92AF9202
:100E2000BF92EF92FF920F931F93CF93DF93CDB7B3
:100E3000DEB7A1970FB6F894DEBF0FBECDBF7C0121
:100E4000FA01CB0119A2223008F42AE08E010F5DCD
:100E50001F4F822E912CB12CA12CBF01A501940112
:100E60000E949610F901CA016A300CF5605DD80144
:100E70006E938D01232B242B252B79F790E080E0B6
:100E8000109721F0BD01C7010E94FE06A1960FB682
:100E9000F894DEBF0FBECDBFDF91CF911F910F91B0
:100EA000FF90EF90BF90AF909F908F900895695CF6
:100EB000DECFCF92DF92EF92FF92CF93DF936C0160
:100EC000990FEE08FF08F7FE23C06DE286ED93E070
:100ED0000E948903EC0144275527BA014C195D098A
:100EE0006E097F092AE086ED93E00E940D07C80F86
:100EF000D91F66ED72E086ED93E00E94FE068C0F2E
:100F00009D1FDF91CF91FF90EF90DF90CF900895DC
:100F10002AE0B701A60186ED93E00E940D07EC01DF
:100F2000E8CFEF92FF920F931F93CF93DF93CDB74C
:100F3000DEB7CC58D1090FB6F894DEBF0FBECDBFD7
:100F40007C018CE8EAE1F2E0DE01119601900D925D
:100F50008A95E1F78AE0E816F10408F03FC0C7017E
:100F60000E9459078EE08E9D80018F9D100D1124E7
:100F7000E1E0F0E0EC0FFD1F0E0F1F1FF801608194
:100F80008DE20E942402F80162818CE20E94240218
:100F9000F80164818BE20E942402F80166818AE2F2
:100FA0000E942402F801608589E20E942402F8016F
:100FB000628588E20E942402F801648587E2C457B2
:100FC000DF4F0FB6F894DEBF0FBECDBFDF91CF91DC
:100FD0001F910F91FF90EF900C942402C7010E9483
:100FE000590761E08DE20E94240261E08CE20E94D8
:100FF000240261E08BE20E94240261E08AE20E9406
:10100000240261E089E20E94240261E088E20E94F9
:10101000240260E0D3CF85ED8093BC0080918C03E7
:1010200090918D03A0918E03B0918F030796A11D1F
:10103000B11D23E0B695A795979587952A95D1F789
:101040002091BC0024FD03C010928A0308954091B2
:101050008C0350918D0360918E0370918F03452B0B
:10106000462B472B69F30097A105B10541F02AE211
:101070002A95F1F700C00197A109B109E1CF80914C
:101080008B030C946D041F920F920FB60F921124D4
:101090002F933F938F939F93AF93BF938091CE03F2
:1010A0009091CF03A091D003B091D1033091CD03A3
:1010B00023E0230F2D3758F50196A11DB11D209374
:1010C000CD038093CE039093CF03A093D003B0932E
:1010D000D1038091D2039091D303A091D403B09116
:1010E000D5030196A11DB11D8093D2039093D30324
:1010F000A093D403B093D503BF91AF919F918F91EB
:101100003F912F910F900FBE0F901F90189526E8DA
:10111000230F0296A11DB11DD2CF1F920F920FB6C1
:101120000F9211240BB60F922F933F934F935F931F
:101130006F937F938F939F93AF93BF93EF93FF939F
:1011400086ED93E00E946703FF91EF91BF91AF910D
:101150009F918F917F916F915F914F913F912F91CF
:101160000F900BBE0F900FBE0F901F9018951F92FF
:101170000F920FB60F9211240BB60F922F938F93ED
:101180009F93EF93FF93E091E603F091E703808153
:10119000E091EC03F091ED0382FD1DC09081809100
:1011A000EF038F5F8F732091F003821741F0E0917E
:1011B000EF03F0E0EA52FC4F958F8093EF03FF912D
:1011C000EF919F918F912F910F900BBE0F900FBEBB
:1011D0000F901F9018958081F2CF1F920F920FB63B
:1011E0000F9211240BB60F922F933F934F935F935F
:1011F0006F937F938F939F93AF93BF93EF93FF93DF
:101200008091B900887F803609F44DC008F040C055
:10121000883209F4A9C028F5803109F49DC0C8F4CA
:10122000882309F4FBC0883009F496C0FF91EF9140
:10123000BF91AF919F918F917F916F915F914F91EE
:101240003F912F910F900BBE0F900FBE0F901F90EC
:101250001895883109F488C0803241F7809388035B
:1012600014C0803409F49DC040F48033B9F388334E
:10127000E9F68093880385ECB0C0803509F485C019
:10128000883509F496C0883489F60E940B08CECFC1
:10129000883909F48CC038F5883729F050F488363D
:1012A00011F0803719F683E080938A03109263036C
:1012B00057C0883809F47BC0803919F0803809F0AC
:1012C000B5CF80916303803208F071C0E091630371
:1012D00081E08E0F809363038091BB00F0E0ED5BB3
:1012E000FC4F80833DC0803B39F0E0F4803A09F444
:1012F00079C0883A09F09ACF84E080938A031092EB
:10130000420310924103E091B403F091B5031995A3
:101310008091410381110FC081E0809341031092BD
:10132000210309C0803C09F4A6CF883C09F4A3CF6F
:10133000883B09F07BCFE091420381E08E0F8093E0
:101340004203F0E0EF5DFC4F80818093BB00909101
:1013500042038091410329C0809165038093BB00C3
:1013600085EC8093BC0062CF9091870380918603C7
:10137000981758F5E091870381E08E0F80938703DB
:10138000F0E0EA59FC4F8081E9CFE091870381E0EA
:101390008E0F809387038091BB00F0E0EA59FC4FE9
:1013A000808390918703809186039817C8F285E81F
:1013B000D8CFE091870381E08E0F809387038091DF
:1013C000BB00F0E0EA59FC4F8083809189038111D2
:1013D0005CCF81E08093640384EA8093BC00109228
:1013E0008A0324CF85EC8093BC0010928A038091FD
:1013F0006303803230F4E0916303F0E0ED5BFC4F77
:1014000010826091630370E0E091B203F091B30346
:1014100083E493E019951092630308CF1092880338
:1014200034CFE6EDF3E01382128288EE93E0A0E081
:10143000B0E084839583A683B7832AEA32E03183C0
:10144000208325EC30E03587248724EC30E0378793
:10145000268720EC30E0318B208B21EC30E0338B81
:10146000228B22EC30E0358B248B26EC30E0378B5E
:10147000268B118E128E138E148EE3E7F4E0138206
:10148000128284839583A683B7838CEB92E0918349
:101490008083EFE7F4E0138212828EEC92E0918376
:1014A000808387E2848384E1818784E08287138656
:1014B0000895789484B5826084BD84B5816084BDCC
:1014C00085B5826085BD85B5816085BD80916E00E2
:1014D000816080936E001092810080918100826013
:1014E0008093810080918100816080938100809150
:1014F00080008160809380008091B100846080933F
:10150000B1008091B00081608093B0008091910023
:10151000826080939100809191008160809391001E
:10152000809190008160809390008091A100826002
:101530008093A1008091A10081608093A10080919F
:10154000A00081608093A00080912101826080933F
:1015500021018091210181608093210180912001EE
:1015600081608093200180917A00846080937A006A
:1015700080917A00826080937A0080917A00816005
:1015800080937A0080917A00806880937A0010922C
:10159000C10060E085E20E94520260E084E20E94A5
:1015A000520260E083E20E94520260E082E20E9406
:1015B000520260E081E20E94520260E080E20E94FA
:1015C000520260E08FE10E94520260E08EE10E94D0
:1015D000520261E086E10E94520261E087E10E94CE
:1015E000520261E088E10E94520261E08DE20E94B5
:1015F000520261E08CE20E94520261E08BE20E94A2
:10160000520261E08AE20E94520261E089E20E9495
:10161000520261E088E20E94520261E087E20E9489
:10162000520261E089E10E94520261E08AE10E9477
:10163000520261E08BE10E94520261E08DE20E9461
:10164000520261E08CE20E94520261E08BE20E9451
:10165000520261E08AE20E94520261E089E20E9445
:10166000520261E088E20E94520261E087E20E9439
:10167000520260E086E10E94240260E087E10E945D
:10168000240260E088E10E94240261E08DE20E9471
:10169000240261E08CE20E94240261E08BE20E945D
:1016A000240261E08AE20E94240261E089E20E9451
:1016B000240261E088E20E94240261E087E20E9445
:1016C000240260E089E10E94240260E08AE10E9435
:1016D000240260E08BE10E94240261E08DE20E941E
:1016E000240261E08CE20E94240261E08BE20E940D
:1016F000240261E08AE20E94240261E089E20E9401
:10170000240261E088E20E94240261E087E20E94F4
:1017100024028EE090E00E94C010EC011EE0FC016B
:10172000012F11920A95E9F70E94FE05D093C50397
:10173000C093C4038EE090E00E94C010EC01FC0155
:1017400011921A95E9F70E94FE05D093C303C09346
:10175000C203E091E603F091E70382E08083E09129
:10176000E203F091E3031082E091E403F091E503DA
:101770008FEC80831092EE03E091EA03F091EB038B
:1017800086E08083E091E803F091E9038081806145
:101790008083E091E803F091E90380818860808391
:1017A000E091E803F091E903808180688083E09113
:1017B000E803F091E90380818F7D80831092B90363
:1017C0001092B8031092B7031092B6030E944F0410
:1017D00081EF92E09093B5038093B40382EF92E09F
:1017E0009093B3038093B203109284048091890490
:1017F000823018F098E0909384048093870462E329
:1018000070E080E090E00E94BF0260918A048FE760
:1018100094E00E94140568EE73E080E090E00E947E
:10182000BF0260E38FE794E00E941E06CBE4D6E49B
:10183000CE010197F1F760E38FE794E00E941E0666
:101840002197F1F760E38FE794E00E941E0683E59D
:1018500092E00197F1F760E28FE794E00E941E06A4
:1018600060918404606240E08FE794E00E94370654
:1018700084E08093850440E06CE08FE794E00E9470
:10188000370640E061E08FE794E00E943706CBE343
:10189000DFE1CE010197F1F782E08093860440E01A
:1018A00066E08FE794E00E94370640E062E08FE751
:1018B00094E00E9437062197F1F788E080938A042C
:1018C00060E08FE794E00E9414051092CC03109220
:1018D000CB03C1E089E0282E312C98E0C92ED12C11
:1018E00086E30E94830287E30E94830288E30E94CA
:1018F000830288E30E94830285E20E94FB015C016F
:10190000D1E0892B09F4D0E0D093C10384E20E9496
:10191000FB0183E20E94FB0121E0892B09F420E016
:101920002093C00382E20E94FB0121E0892B09F48D
:1019300020E02093BF0381E20E94FB0121E0892B7C
:1019400009F420E02093BE0380E20E94FB0121E025
:10195000892B09F420E02093BD038FE10E94FB0155
:1019600021E0892B09F420E02093BC038EE10E9442
:10197000FB0121E0892B09F420E02093BB03AB2875
:1019800049F08091BA03811105C08091C6038C276C
:101990008093C603D093BA038FB7F8948090CE0398
:1019A0009090CF03A090D003B090D1038FBF6090F0
:1019B000CB037090CC03FBE06F16710408F08EC26D
:1019C000F3018827E951F34F8F4F0C94B810F20CB4
:1019D000DF0E1D0FBC0F1210A00E330D6D0DE20DAA
:1019E000440E4E10E12C00E021E048E150E067E1B8
:1019F00070E086E190E00E94090621E04BE150E0B2
:101A00006AE170E089E190E00E9409068FEF9FEFA4
:101A10000E9491078091C7039091C803A091C903C8
:101A2000B091CA0395018401081B190B2A0B3B0BCB
:101A3000D901C801883E9340A105B10508F479C1D8
:101A40008092C7039092C803A092C903B092CA03C0
:101A50008091C6038111B0C186E090E09093CC03E1
:101A60008093CB0366C1E12C01E021E048E150E026
:101A700067E170E086E190E00E94090600E021E065
:101A80004BE150E06AE170E089E190E00E940906D4
:101A90008FEF9FEF0E9491078091C7039091C80339
:101AA000A091C903B091CA03A5019401281B390B69
:101AB0004A0B5B0BDA01C901803D9740A105B105D6
:101AC00008F437C18092C7039092C803A092C9035B
:101AD000B092CA0387E090E0C1CFEE24E39400E027
:101AE00020E048E150E067E170E086E190E00E948C
:101AF0000906E12C21E04BE150E06AE170E089E168
:101B000090E00E9409064091C7035091C80360917C
:101B1000C9037091CA034059584E6F4F7F4F4819FF
:101B200059096A097B09E091C203F091C3038081DE
:101B30009181092E000CAA0BBB0B8A019B01080F97
:101B4000191F2A1F3B1FC901B80128EE33E040E0EE
:101B500050E00E949610C9010E949107E091C403D1
:101B6000F091C5038091C7039091C803A091C90368
:101B7000B091CA03B501A401481B590B6A0B7B0B3A
:101B800080819181092E000CAA0BBB0B8053984FCA
:101B9000AF4FBF4F481759076A077B0770F0809215
:101BA000C7039092C803A092C903B092CA03D0920F
:101BB000CC03C092CB03118210828091C20390911A
:101BC000C3038AC14090C7035090C8036090C90303
:101BD0007090CA03C501B401641975098609970993
:101BE0002AEF30E040E050E00E9496102170E22E93
:101BF00000E020E048E150E067E170E086E190E03D
:101C00000E940906E12C21E04BE150E06AE170E01E
:101C100089E190E00E94090610EA410E1FE0511E82
:101C2000611C711CC301B201681979098A099B09F9
:101C300028EE33E040E050E00E949610C9010E9477
:101C400091078091C7039091C803A091C903B091F7
:101C5000CA03A5019401281B390B4A0B5B0BDA015F
:101C6000C901803D9740A105B10508F4A6CF809237
:101C7000C7039092C803A092C903B092CA033092DE
:101C8000CC032092CB0399CFE12C01E020E048E186
:101C900050E067E170E086E190E00E94090600E014
:101CA00021E04BE150E06AE170E089E190E00E94C0
:101CB00009066091C7037091C8038091C903909190
:101CC000CA036053784F8F4F9F4F681979098A096B
:101CD0009B0928EE33E040E050E00E949610C901D5
:101CE0000E9491078091C7039091C803A091C903F6
:101CF000B091CA0395018401081B190B2A0B3B0BF9
:101D0000D901C801883E9340A105B10590F08FEF3D
:101D10009FEF0E9491078092C7039092C803A09200
:101D2000C903B092CA0325E030E03093CC0320937E
:101D3000CB038091C4039091C5030E9483063DCFDD
:101D4000E12C00E021E048E150E067E170E086E14D
:101D500090E00E94090621E04BE150E06AE170E06A
:101D600089E190E00E9409068FEF9FEF0E949107A2
:101D70008091C7039091C803A091C903B091CA0391
:101D800095018401081B190B2A0B3B0BD901C801D3
:101D9000883E9340A105B10560F28092C7039092FE
:101DA000C803A092C903B092CA038091C6038111EF
:101DB00003C081E090E052CE8AE090E04FCEE12C6B
:101DC00000E021E048E150E067E170E086E190E06A
:101DD0000E94090601E021E04BE150E06AE170E079
:101DE00089E190E00E9409068FEF9FEF0E94910722
:101DF0008091C7039091C803A091C903B091CA0311
:101E0000A5019401281B390B4A0B5B0BDA01C901B0
:101E1000803D9740A105B10508F48BCF8092C703A0
:101E20009092C803A092C903B092CA0342E050E066
:101E30005093CC034093CB037CCFE12C00E021E016
:101E400048E150E067E170E086E190E00E94090619
:101E5000EE24E39420E04BE150E06AE170E089E198
:101E600090E00E9409068FEF9FEF0E949107E0919A
:101E7000C203F091C3038091C7039091C803A0915E
:101E8000C903B091CA03B501A401481B590B6A0BE1
:101E90007B0B80819181092E000CAA0BBB0B805318
:101EA000984FAF4FBF4F481759076A077B0780F01D
:101EB0008092C7039092C803A092C903B092CA034C
:101EC00083E090E09093CC038093CB031182108247
:101ED0008091C4039091C5030E94830640E061E0B5
:101EE0008FE794E00E9437068BE39FE10197F1F7BB
:101EF00080E00E944E0669ED72E08FE794E00E9458
:101F0000FE068091CB039091CC038230910509F4B9
:101F10000AC10CF0FBC061EE72E0892B09F4FEC02F
:101F200081E00E944E0668EF72E08FE794E00E9425
:101F3000FE064091C7035091C8036091C903709198
:101F4000CA0348515C4F6F4F7F4F2FB7F894809171
:101F5000CE039091CF03A091D003B091D1032FBFB6
:101F6000481B590B6A0B7B0B2AE08FE794E00E9419
:101F70000D070E94F603B4CCE12C00E021E048E11B
:101F800050E067E170E086E190E00E9409068091F0
:101F9000C7039091C803A091C903B091CA039501EA
:101FA0008401081B190B2A0B3B0BC901B8012AEF4E
:101FB00030E040E050E00E9496102170E22E00E0F8
:101FC00020E04BE150E06AE170E089E190E00E949E
:101FD00009068FEF9FEF0E9491078091C7039091B0
:101FE000C803A091C903B091CA03A5019401281B9D
:101FF000390B4A0B5B0BDA01C901803D9740A10503
:10200000B10508F465CF8092C7039092C803A092EF
:10201000C903B092CA0344E050E05093CC0340930C
:10202000CB0356CFE12C00E021E048E150E067E12E
:1020300070E086E190E00E94090601E020E04BE1BB
:1020400050E06AE170E089E190E00E9409068FEFBC
:102050009FEF0E9491078091C7039091C803A091C0
:10206000C903B091CA0395018401081B190B2A0BFF
:102070003B0BD901C801883E9340A105B10508F486
:1020800058CE8092C7039092C803A092C903B09221
:10209000CA031092CC031092CB034BCE8091C7039E
:1020A0009091C803A091C903B091CA03A5019401FE
:1020B000281B390B4A0B5B0BCA01B9012AEF30E030
:1020C00040E050E00E949610D22FD170E12C0D2FED
:1020D00020E048E150E067E170E086E190E00E9496
:1020E000090600E02D2F4BE150E06AE170E089E144
:1020F00090E00E9409068091C603811102C0712CF4
:10210000612C7092CC036092CB03E8CE84309105B1
:1021100019F0099709F004CF67EE72E08FE794E0B9
:102120000E94FE06FDCE61EF72E0F8CFA1E21A2E0A
:10213000AA1BBB1BFD010DC0AA1FBB1FEE1FFF1F6B
:10214000A217B307E407F50720F0A21BB30BE40BBB
:10215000F50B661F771F881F991F1A9469F7609502
:102160007095809590959B01AC01BD01CF010895BC
:10217000EE0FFF1F881F8BBF0790F691E02D19947B
:102180000F931F93CF93DF938230910510F482E079
:1021900090E0E0918D04F0918E0430E020E0B0E01A
:1021A000A0E0309799F42115310509F44AC0281BA5
:1021B000390B24303105D8F58A819B816115710571
:1021C00089F1FB0193838283FE0111C0408151811B
:1021D0000281138148175907E0F04817590799F40D
:1021E000109761F012960C93129713961C933296E7
:1021F000CF01DF91CF911F910F91089500938D042E
:1022000010938E04F4CF2115310551F04217530776
:1022100038F0A901DB019A01BD01DF01F801C1CF4E
:10222000EF01F9CF90938E0480938D04CDCFFE0102
:10223000E20FF31F81939193225031093983288350
:10224000D7CF20918B0430918C04232B41F4209123
:1022500002023091030230938C0420938B0420916E
:102260000002309101022115310541F42DB73EB72E
:102270004091040250910502241B350BE0918B0420
:10228000F0918C04E217F307A0F42E1B3F0B2817E4
:10229000390778F0AC014E5F5F4F2417350748F0DF
:1022A0004E0F5F1F50938C0440938B048193919346
:1022B0009FCFF0E0E0E09CCFCF93DF930097E9F071
:1022C000FC01329713821282A0918D04B0918E048A
:1022D000ED0130E020E01097A1F420813181820FE0
:1022E000931F20918B0430918C042817390709F033
:1022F00061C0F0938C04E0938B04DF91CF9108953B
:10230000EA01CE17DF07E8F54A815B819E0141159E
:102310005105B1F7E901FB83EA8349915991C40F53
:10232000D51FEC17FD0761F4808191810296840F1F
:10233000951FE90199838883828193819B838A8396
:10234000F0E0E0E012968D919C9113970097B9F51B
:102350002D913C911197CD010296820F931F2091F0
:102360008B0430918C042817390739F6309751F5D2
:1023700010928E0410928D04B0938C04A0938B0461
:10238000BCCFD383C28340815181840F951FC8176E
:10239000D90761F44E5F5F4F88819981480F591FBB
:1023A000518340838A819B819383828321153105E8
:1023B00009F0B0CFF0938E04E0938D049ECFFD0121
:0E23C000DC01C0CF13821282D7CFF894FFCF7A
:1023CE0000008F048000BE03BF03C003BB03BC0329
:1023DE00BD03000040001400540000000000000087
:1023EE0000000000000001000100000000000100DC
:1023FE0001000100010000000000010000000000CB
:10240E0001000000000000000000000001000100BB
:10241E0000000100000000000100010000000000AB
:10242E00000001000000000001000000000000009C
:10243E00010000000000000000000000000000008D
:10244E00000001000100010001000000000000007A
:10245E00000000000000000000000000000000006E
:10246E00010000000000000000008903F3022003B9
:10247E00D60351032F03430300000000E504B80404
:10248E00FB058E04B1049E048F04000000007D063F
:10249E00F302FB0527040D0A0045737461646F3A5D
:1024AE000020524F4A4F0020414D4152494C4C4F53
:1024BE0000205645524445005469656D706F3A00D0
:00000001FF
