:100000000C9461010C9492010C9492010C94920155
:100010000C9492010C9492010C9492010C94920114
:100020000C9492010C9492010C9492010C94920104
:100030000C9492010C9492010C9492010C949201F4
:100040000C9492010C9492010C9492010C949201E4
:100050000C9492010C9492010C9492010C943A0726
:100060000C9492010C94AE070C9484070C949201AA
:100070000C9492010C9492010C9492010C949201B4
:100080000C9492010C9492010C9492010C949201A4
:100090000C9492010C9492010C9492010C94E4073C
:1000A0000C9492010C9492010C9492010C94920184
:1000B0000C9492010C9492010C9492010C94920174
:1000C0000C9492010C9492010C9492010C94920164
:1000D0000C9492010C9492010C9492010C94920154
:1000E0000C9492010C94D6030C94B8010C94C001AA
:1000F0000C94FB050C94DB010C94F2010C94E501CB
:100100000C94B0040C94B40C0C94D7010C94660DB0
:100110000C94CC0D0C94190F0C94FB0B0C94AA0EA0
:100120000C94C4010C94FC060C94BC010C94B70410
:100130000C94E9010C9451030C949D040C94CD0192
:100140000C94F3020C94F7010C94F3010C94FA054F
:100150000C9461090C9420030C948D040C94F1020E
:100160000C94C7010C94B2010C94E4040C94DF01CC
:100170000C94ED010C94D1010C94F60C0C94F20249
:100180000C948E040C94660E0C942F030C947F0F29
:100190000C9489030C9443030C94D00F0C94210EFF
:1001A00000002100240027002A002D003000330029
:1001B00001010000040107010A01000022002500DE
:1001C00028002B002E003100340002010000050140
:1001D00008010B01000020002300260029002C004C
:1001E0002F0032000001000003010601090105058E
:1001F0000505070508080808020202020A0A08089D
:1002000004040404010101010101010103030303CA
:1002100003030303040707070C0C0C0C0C0C0C0C59
:100220000202020206060606060606060B0B0B0B6A
:100230000B0B0B0B0102102020080810204010208F
:10024000408002010201080402010102040810209A
:100250004080804020100804020180040201804098
:100260002010080402010804020101020408102001
:100270004080010204081020408000000A0B02099F
:100280000C0D0E0807030401000000000000000030
:10029000000000000000000000000000000000005E
:1002A000000000000000121110000000000000001B
:1002B000000000000000000000000000000000003E
:1002C000610911241FBECFEFD1E2DEBFCDBF00E038
:1002D0000CBF13E0A0E0B2E0EAE8F0E200E00BBF00
:1002E00002C007900D92A232B107D9F726E0A2E230
:1002F000B3E001C01D92A532B207E1F711E0C1E6FB
:10030000D1E000E006C021970109802FFE010E9484
:100310003B10C036D10780E00807A9F70E94FB090F
:100320000C9443100C9400008150823108F05AC0A4
:10033000E82FF0E08827E056FE4F8F4F0C943B10DB
:10034000C001C401B201B801BC01F201C701CD0175
:10035000D101D701DB01DF01E501E901F201ED0186
:10036000F301F701809180008F77809380000895DA
:10037000809180008F7DF9CF80918000877FF5CFBD
:1003800084B58F7784BD089584B58F7DFBCF809130
:10039000B0008F778093B00008958091B0008F7D7A
:1003A000F9CF809190008F7780939000089580918D
:1003B00090008F7DF9CF80919000877FF5CF80915D
:1003C000A0008F778093A00008958091A0008F7D7A
:1003D000F9CF8091A000877FF5CF809120018F77A2
:1003E000809320010895809120018F7DF9CF809125
:1003F0002001877FF5CFCF93DF93282F30E0F901DD
:10040000E658FD4F8491F901EC5CFD4FD491F90160
:10041000E251FE4FC491CC23A1F081110E949401BE
:10042000EC2FF0E0EE0FFF1FEC52FE4FA591B491C0
:10043000EC91ED2381E090E009F480E0DF91CF9131
:10044000089580E090E0FACF1F93CF93DF93282F99
:1004500030E0F901E658FD4F8491F901EC5CFD4F65
:10046000D491F901E251FE4FC491CC23A9F0162F8B
:1004700081110E949401EC2FF0E0EE0FFF1FE65473
:10048000FE4FA591B4918FB7F894EC91111108C06B
:10049000D095DE23DC938FBFDF91CF911F9108951C
:1004A000DE2BF8CFCF93DF9390E0FC01EC5CFD4FA7
:1004B000249182519E4FFC0184918823D1F090E0D9
:1004C000880F991FFC01E056FE4FA591B491FC01E5
:1004D000E654FE4FC591D49161110EC09FB7F894B8
:1004E0008C91E22FE0958E238C932881E223E88380
:1004F0009FBFDF91CF9108958FB7F894EC91E22BD5
:10050000EC938FBFF6CF90917B00977F90937B0009
:100510008653806480937C0080917A00806480930D
:100520007A0080917A0086FDFCCF809178009091CE
:10053000790008953FB7F8948091EA039091EB0316
:10054000A091EC03B091ED0326B5A89B05C02F3F09
:1005500019F00196A11DB11D3FBFBA2FA92F982FE9
:100560008827BC01CD01620F711D811D911D42E0E4
:10057000660F771F881F991F4A95D1F708958F92AC
:100580009F92AF92BF92CF92DF92EF92FF924B0178
:100590005C010E949A026B017C010E949A026C1914
:1005A0007D098E099F09683E734081059105A8F376
:1005B00021E0821A9108A108B10888EEC80E83E0F4
:1005C000D81EE11CF11C81149104A104B10429F787
:1005D000FF90EF90DF90CF90BF90AF909F908F9063
:1005E000089508950895AF92BF92CF92DF92EF924F
:1005F000FF920F931F93CF93DF936C017B018B01CD
:10060000040F151FEB015E01AE18BF08C017D1071C
:1006100059F06991D601ED91FC910190F081E02DA6
:10062000C6011995892B79F7C501DF91CF911F91EB
:100630000F91FF90EF90DF90CF90BF90AF90089513
:10064000FC01538D448D252F30E0842F90E0821BD8
:10065000930B541710F0CF96089501970895FC015D
:10066000918D828D981761F0A28DAE0FBF2FB11DB5
:100670005D968C91928D9F5F9F73928F90E008950D
:100680008FEF9FEF0895FC01918D828D981731F0C7
:10069000828DE80FF11D858D90E008958FEF9FEF1B
:1006A0000895FC01918D228D892F90E0805C9F4FF1
:1006B000821B91098F73992708958EEE93E00E9413
:1006C000510321E0892B09F420E0822F0895FC01D9
:1006D000A48DA80FB92FB11DA35ABF4F2C91848DA3
:1006E00090E001968F739927848FA689B7892C9300
:1006F000A089B1898C91837080648C93938D848D53
:10070000981306C00288F389E02D80818F7D808355
:100710000895EF92FF920F931F93CF93DF93EC0115
:1007200081E0888F9B8D8C8D98131AC0E889F98998
:10073000808185FF15C09FB7F894EE89FF8960839B
:10074000E889F98980818370806480839FBF81E01C
:1007500090E0DF91CF911F910F91FF90EF9008955E
:10076000F62E0B8D10E00F5F1F4F0F731127E02E39
:100770008C8D8E110CC00FB607FCFACFE889F98971
:10078000808185FFF5CFCE010E946703F1CFEB8D0D
:10079000EC0FFD2FF11DE35AFF4FF0829FB7F89445
:1007A0000B8FEA89FB8980818062CFCFCF93DF9363
:1007B000EC01888D8823B9F0AA89BB89E889F98979
:1007C0008C9185FD03C0808186FD0DC00FB607FCAE
:1007D000F7CF8C9185FFF2CF808185FFEDCFCE01E1
:1007E0000E946703E9CFDF91CF91089580E090E008
:1007F000892B29F00E945D0381110E94000080E096
:1008000090E0892B49F080E090E0892B29F00E944C
:10081000000081110E94000080E090E0892B49F0E7
:1008200080E090E0892B29F00E94000081110E9455
:10083000000080E090E0892B49F080E090E0892B77
:1008400029F00E94000081110C940000089520916D
:100850008A03260F3327331F21323105ECF4209110
:10086000AE03FC0190E080E0243069F082E008955E
:10087000A0918A032191AC0146595C4FA40FB52F7A
:10088000B11D2C930196861798F380918A03680F07
:1008900060938A0380E0089581E008951092AE038A
:1008A00081E08093B0031092AF0361E084E10E9485
:1008B000240261E085E10E942402E9EBF0E08081FE
:1008C0008E7F808380818D7F808388E48093B800D1
:1008D00085E48093BC000895CF93DF9391E09093DB
:1008E00069038823B9F0C091B800D091BA00809113
:1008F000BC008A7B8093BC0060E084E10E942402FB
:1009000060E085E10E9424020E944E04D093BA0068
:10091000C093B800DF91CF9108950895E091DB0373
:100920008091DA03E81730F4F0E0EC5BFC4F808153
:1009300090E008958FEF9FEF08959091DB038091F1
:10094000DA032FEF3FEF981748F4E92FF0E0EC5B64
:10095000FC4F208130E09F5F9093DB03C901089535
:100960008091DA039091DB03891B990B0895CF9254
:10097000DF92EF92FF920F931F93CF93DF937C014F
:10098000CB018A0120914303222389F0EB016B0103
:10099000C40ED51ECC15DD0569F06991D701ED9126
:1009A000FC910190F081E02DC7011995F3CF642FE0
:1009B0000E942704C801DF91CF911F910F91FF90F2
:1009C000EF90DF90CF900895CF93DF931F92CDB734
:1009D000DEB76983209143032223F9F02091D803E5
:1009E000203258F021E030E0FC013383228390E094
:1009F00080E00F90DF91CF9108958091D903E82F87
:100A0000F0E0ED5DFC4F998190838F5F8093D90377
:100A10008093D80381E090E0ECCF61E0CE010196B5
:100A20000E942704F7CFCF92DF92EF92FF920F93AD
:100A30001F93CF93DF93FC01C48121E020934303F4
:100A4000C09322031092D9031092D8038385682B98
:100A50008BE894E00E94E404D091D803D13208F0EE
:100A600092C00E949A026B017C018091AE038111B9
:100A700065C082E08093AE0381E08093B0038FEF86
:100A80008093AD031092D203D093D103A3E2B3E0DD
:100A9000E1EBF3E080E0D81385C01092D30380919E
:100AA000D303CC0FC82BC093D3038091AF03813005
:100AB00009F07CC01092AF030E949A026B017C0186
:100AC0008091D3038093BB0080916503909166036E
:100AD000A0916703B0916803892B8A2B8B2B99F027
:100AE0000E949A02009165031091660320916703AA
:100AF000309168036C197D098E099F090617170745
:100B000028073907E0F18091BC0083FDD9CF85EC3F
:100B10008093BC000E949A026B017C018091AE031D
:100B2000823009F445C08091AD038F3F61F180911F
:100B3000AD03803241F18091AD0325C08091650302
:100B400090916603A0916703B0916803892B8A2B6B
:100B50008B2B09F48ACF0E949A02009165031091B1
:100B6000660320916703309168036C197D098E0933
:100B70009F09061717072807390708F076CF8091D5
:100B800064030E946C041092D9031092D80310924F
:100B90004303DF91CF911F910F91FF90EF90DF9072
:100BA000CF9008959D9191938F5F75CF85EEB0CFD3
:100BB0008091650390916603A0916703B0916803EB
:100BC000892B8A2B8B2B09F4A9CF0E949A020091C2
:100BD00065031091660320916703309168036C19D7
:100BE0007D098E099F09061717072807390708F09E
:100BF00095CFC5CF089590E080E00895EF920F93D0
:100C0000CF93DF93D62FC42F622F0E942402602F30
:100C10008D2F0E9424026E2D8C2FDF91CF910F918A
:100C2000EF900C942402DC011A968C911A97882379
:100C300069F019968C911997882301F118968C9177
:100C4000189730E020E0882319F0089522E030E082
:100C5000220F331FFD01E20FF31F83859485019658
:100C600048EE53E0849F9001859F300D949F300D96
:100C7000112417963C932E931697E7CF21E030E08E
:100C8000E7CF0F931F93CF93DF93EC01C656DF4F4F
:100C90008C0108551F4F8881229661E00E94520204
:100CA000FE01329761E080810E942402C017D107C3
:100CB00091F7DF91CF911F910F910895CF92DF921D
:100CC000EF92FF920F931F93CF93DF936C016A30E3
:100CD000710510F06AE070E0860106561F4F8EE045
:100CE000869F7001879FF00C1124D0E0C0E0F801CE
:100CF00080810E5F1F4FFE01EE0DFF1DEC0DFD1DEF
:100D000060810E9424022296CE30D10581F7DF91C6
:100D1000CF911F910F91FF90EF90DF90CF900895AA
:100D2000FC0101900020E9F73197AF01481B590BF6
:100D3000BC0189E196E00C94F3020F931F93CF93CB
:100D40008C01C62F0E9413056C2F6460C8010E949D
:100D500013056C2F6B7FC8010E94130583EC90E094
:100D60000197F1F7CF911F910F9108950F931F9362
:100D7000CF93DF938C01D62FC42F607F642B0E940A
:100D80009D0680E1D89FB00111246C2BC801DF9132
:100D9000CF911F910F910C949D06CF93DF9300D0BC
:100DA00000D01F921F92CDB7DEB798E0EAE9F2E0DB
:100DB000DE01119601900D929A95E1F7909121062E
:100DC000981708F48FEF90E0880F991F21E030E02A
:100DD0002C0F3D1F820F931FFC016081606840E073
:100DE00089E196E028960FB6F894DEBF0FBECDBF1E
:100DF000DF91CF910C94B60641E00E94B60681E0E7
:100E000090E0089585ED8093BC00809165039091FA
:100E10006603A0916703B09168030796A11DB11DF9
:100E200023E0B695A795979587952A95D1F72091B8
:100E3000BC0024FD03C01092AE03089540916503E9
:100E4000509166036091670370916803452B462BB0
:100E5000472B69F30097A105B10541F02AE22A95D5
:100E6000F1F700C00197A109B109E1CF80916403B6
:100E70000C946C041F920F920FB60F9211242F93B3
:100E80003F938F939F93AF93BF938091E60390918D
:100E9000E703A091E803B091E9033091E50323E073
:100EA000230F2D3758F50196A11DB11D2093E503A1
:100EB0008093E6039093E703A093E803B093E903DC
:100EC0008091EA039091EB03A091EC03B091ED03C4
:100ED0000196A11DB11D8093EA039093EB03A093AB
:100EE000EC03B093ED03BF91AF919F918F913F9130
:100EF0002F910F900FBE0F901F90189526E8230F8B
:100F00000296A11DB11DD2CF1F920F920FB60F9264
:100F100011240BB60F922F933F934F935F936F93D0
:100F20007F938F939F93AF93BF93EF93FF938EEE37
:100F300093E00E946703FF91EF91BF91AF919F9162
:100F40008F917F916F915F914F913F912F910F9072
:100F50000BBE0F900FBE0F901F9018951F920F920F
:100F60000FB60F9211240BB60F922F938F939F936E
:100F7000EF93FF93E091FE03F091FF038081E091F6
:100F80000404F091050482FD1DC090818091070446
:100F90008F5F8F7320910804821741F0E09107045E
:100FA000F0E0E251FC4F958F80930704FF91EF91A1
:100FB0009F918F912F910F900BBE0F900FBE0F90AE
:100FC0001F9018958081F2CF1F920F920FB60F924B
:100FD00011240BB60F922F933F934F935F936F9310
:100FE0007F938F939F93AF93BF93EF93FF938091E2
:100FF000B900887F803609F44DC008F040C08832BF
:1010000009F4A9C028F5803109F49DC0C8F48823EB
:1010100009F4FBC0883009F496C0FF91EF91BF91AD
:10102000AF919F918F917F916F915F914F913F9180
:101030002F910F900BBE0F900FBE0F901F90189521
:10104000883109F488C0803241F78093AD0314C021
:10105000803409F49DC040F48033B9F38833E9F655
:101060008093AD0385ECB0C0803509F485C0883528
:1010700009F496C0883489F60E940207CECF8839D9
:1010800009F48CC038F5883729F050F4883611F00F
:10109000803719F683E08093AE031092AC0357C0FB
:1010A000883809F47BC0803919F0803809F0B5CF51
:1010B0008091AC03803208F071C0E091AC0381E014
:1010C0008E0F8093AC038091BB00F0E0E457FC4F9F
:1010D00080833DC0803B39F0E0F4803A09F479C068
:1010E000883A09F09ACF84E08093AE0310928B0384
:1010F00010928A03E091D603F091D703199580915D
:101100008A0381110FC081E080938A0310926A03E1
:1011100009C0803C09F4A6CF883C09F4A3CF883BE2
:1011200009F07BCFE0918B0381E08E0F80938B03DE
:10113000F0E0E659FC4F80818093BB0090918B03D7
:1011400080918A0329C08091D3038093BB0085ECF2
:101150008093BC0062CF9091D2038091D103981705
:1011600058F5E091D20381E08E0F8093D203F0E036
:10117000EF54FC4F8081E9CFE091D20381E08E0FE4
:101180008093D2038091BB00F0E0EF54FC4F80834A
:101190009091D2038091D1039817C8F285E8D8CFF7
:1011A000E091D20381E08E0F8093D2038091BB0047
:1011B000F0E0EF54FC4F80838091B00381115CCF4D
:1011C00081E08093AF0384EA8093BC001092AE0369
:1011D00024CF85EC8093BC001092AE038091AC03C9
:1011E000803230F4E091AC03F0E0E457FC4F108221
:1011F0006091AC0370E0E091D403F091D5038CE8EA
:1012000093E019951092AC0308CF1092AD0334CF40
:10121000CF93DF93FC01DB018D919C91119791831A
:101220008083108612968D919C911397938382836D
:10123000118614968D919C919583848312861486D1
:10124000138616861586108A1786128A118A148AC2
:10125000138A168A158A108E178A17821682DF0162
:1012600090E080E0009751F4148613860196129660
:1012700087309105B9F7DF91CF910895EC01CE7FCA
:10128000CE0FDF1F2B853C852F5F3F4F1C963C9375
:101290002E931B97EBCF2AE9E0E0F2E0DC0101900E
:1012A0000D922A95E1F7FB01DC01A656BF4FCB0159
:1012B0000E96219131912D933D93E817F907C9F7C7
:1012C0000895CF93DF93CDB7DEB72E970FB6F8947E
:1012D000DEBF0FBECDBFEEEEF3E01382128288EECA
:1012E00093E0A0E0B0E084839583A683B7832EECDF
:1012F00032E03183208325EC30E03587248724ECED
:1013000030E03787268720EC30E0318B208B21ECD2
:1013100030E0338B228B22EC30E0358B248B26ECB3
:1013200030E0378B268B118E128E138E148EEBE8E5
:10133000F4E01382128284839583A683B78380EEC0
:1013400092E091838083E9E1F6E01382128282EFDA
:1013500092E09183808387E2848384E1818784E0C3
:10136000828713868EE0E2EAF2E0DE0111960190B8
:101370000D928A95E1F7BE016F5F7F4F81E795E09F
:101380000E944B098EE0E0EBF2E0DE011196019045
:101390000D928A95E1F7BE016F5F7F4F89EC94E073
:1013A0000E944B0986E0EEEBF2E0DE01119601901F
:1013B0000D928A95E1F7BE016F5F7F4F80EB94E05D
:1013C0000E94080986E0E4ECF2E0DE01119601904B
:1013D0000D928A95E1F7BE016F5F7F4F87E994E038
:1013E0000E9408092E960FB6F894DEBF0FBECDBF3F
:1013F000DF91CF910895CF93DF93CDB7DEB7A59757
:101400000FB6F894DEBF0FBECDBF789484B582606E
:1014100084BD84B5816084BD85B5826085BD85B598
:10142000816085BD80916E00816080936E00109216
:101430008100809181008260809381008091810091
:101440008160809381008091800081608093800022
:101450008091B10084608093B1008091B000816080
:101460008093B00080919100826080939100809180
:1014700091008160809391008091900081608093C1
:1014800090008091A10082608093A1008091A100D2
:1014900081608093A1008091A00081608093A00072
:1014A00080912101826080932101809121018160DE
:1014B000809321018091200181608093200180919F
:1014C0007A00846080937A0080917A0082608093B1
:1014D0007A0080917A00816080937A0080917A000E
:1014E000806880937A001092C10060E085E20E94DB
:1014F000520260E084E20E94520261E086E10E94B2
:10150000520261E087E10E94520261E088E10E949C
:10151000520261E089E10E94520261E08AE10E9488
:10152000520261E08BE10E94520260E086E10E947B
:10153000240260E087E10E94240260E088E10E94CA
:10154000240260E089E10E94240260E08AE10E94B6
:10155000240260E08BE10E94240281E795E00E9472
:10156000410689EC94E00E944106E091FE03F0916F
:10157000FF0382E08083E091FA03F091FB03108285
:10158000E091FC03F091FD038FEC80831092060440
:10159000E0910204F091030486E08083E09100046E
:1015A000F0910104808180618083E0910004F091DA
:1015B0000104808188608083E0910004F09101043F
:1015C000808180688083E0910004F0910104808133
:1015D0008F7D80831092DB031092DA031092D9037F
:1015E0001092D8030E944E0481EF92E09093D703AB
:1015F0008093D60382EF92E09093D5038093D40337
:1016000010921E0680912306823018F098E0909385
:101610001E068093210662E370E080E090E00E9465
:10162000BF026091240689E196E00E94130568EEEE
:1016300073E080E090E00E94BF0260E389E196E001
:101640000E949D060BE416E4C8010197F1F760E3E0
:1016500089E196E00E949D06C8010197F1F760E3D9
:1016600089E196E00E949D0683E592E00197F1F7FB
:1016700060E289E196E00E949D0660911E0660622C
:1016800040E089E196E00E94B60684E080931F0660
:1016900040E06CE089E196E00E94B60640E061E03F
:1016A00089E196E00E94B6060BE31FE1C8010197AD
:1016B000F1F782E08093200640E066E089E196E061
:1016C0000E94B60640E062E089E196E00E94B6061C
:1016D000C8010197F1F788E08093240660E089E172
:1016E00096E00E9413051092E4031092E303FF2496
:1016F000F39423E0222E312C32E0C32ED12C86E34A
:101700000E94830287E30E94830288E30E9483028F
:1017100088E30E94830285E20E94FB018C01BB24C6
:10172000B394892B09F4B12CB092DD0384E20E94BA
:10173000FB01012B49F08091DC03811105C08091F0
:10174000DE038F258093DE03B092DC0300EB14E010
:1017500098EBA92E94E0B92ED8018C910E5F1F4F03
:101760000E94FB0121E0892B09F420E0F50121937F
:101770005F0126EB34E02017310771F707E914E029
:101780008FE9A82E84E0B82ED8018C910E5F1F4FF0
:101790000E94FB0121E0892B09F420E0F50121934F
:1017A0005F01F4E00D391F0779F78FB7F894809047
:1017B000E6039090E703A090E803B090E9038FBFA1
:1017C0006090E3037090E4032BE06216710408F06C
:1017D00061C0F3018827E051F44F8F4F0C943B1008
:1017E000FB0B660EAA0E190F7F0F210EB40CF60C20
:1017F000660DCC0DD00FE12C00E021E048E150E077
:1018000067E170E086E190E00E94FE0521E04BE197
:1018100050E06AE170E089E190E00E94FE056FEF20
:101820007FEF81E795E00E945E066FEF7FEF89EC26
:1018300094E00E945E068091DF039091E003A09106
:10184000E103B091E203A5019401281B390B4A0B77
:101850005B0BDA01C901883E9340A105B10590F008
:101860008092DF039092E003A092E103B092E20342
:101870008091DE03811175C086E090E09093E403CF
:101880008093E30380EB94E00E94130687E994E0E1
:101890000E94130640E061E089E196E00E94B606EE
:1018A0008BE39FE10197F1F780E00E94CD068AEF7C
:1018B00092E00E9490068091E3039091E4038230CD
:1018C000910509F4B3C30CF0A3C3892B09F4A9C390
:1018D00081E00E94CD0689E193E00E94900620916C
:1018E000DF033091E0034091E1035091E20328517E
:1018F0003C4F4F4F5F4F6FB7F8948091E603909144
:10190000E703A091E803B091E9036FBF281B390BEF
:101910004A0B5B0B19A28E010F5D1F4FCA01B90163
:101920002AE030E040E050E00E941910605DD801EC
:101930006E938D01211531054105510579F71097F9
:1019400069F0FD0101900020E9F73197AF014A1BD2
:101950005B0BBD0189E196E00E94F3020E94F60351
:10196000CECE8AE090E08ACFE12C01E021E048E190
:1019700050E067E170E086E190E00E94FE0500E043
:1019800021E04BE150E06AE170E089E190E00E94E3
:10199000FE056FEF7FEF81E795E00E945E066FEF37
:1019A0007FEF89EC94E00E945E068091DF039091C6
:1019B000E003A091E103B091E203A5019401281B8B
:1019C000390B4A0B5B0BDA01C901803D9740A10539
:1019D000B10508F457CF8092DF039092E003A09204
:1019E000E103B092E20387E090E048CFEE24E39475
:1019F00000E020E048E150E067E170E086E190E03F
:101A00000E94FE05E12C21E04BE150E06AE170E02C
:101A100089E190E00E94FE054090DF035090E003D2
:101A20006090E1037090E2036091B6047091B70496
:101A3000072E000C880B990B93018201085A144E53
:101A40002F4F3F4F600F711F821F931F6819790935
:101A50008A099B0928EE33E040E050E00E9419100B
:101A6000B90181E795E00E945E066FEF7FEF89EC98
:101A700094E00E945E06B501A40144195509660967
:101A800077098091B6049091B704092E000CAA0B37
:101A9000BB0B8854944FAF4FBF4F481759076A0785
:101AA0007B0708F4F3CE8092DF039092E003A092CC
:101AB000E103B092E20388E090E09093E403809326
:101AC000E3031092B7041092B604E0CE4090DF0317
:101AD0005090E0036090E1037090E203D501C401EF
:101AE00084199509A609B7098AA39BA3ACA3BDA332
:101AF000BC01CD012AEF30E040E050E00E94191017
:101B00002170E22E00E020E048E150E067E170E063
:101B100086E190E00E94FE05E12C21E04BE150E0DF
:101B20006AE170E089E190E00E94FE0590EA490ECA
:101B30009FE0591E611C711CC301B201681979092B
:101B40008A099B0928EE33E040E050E00E9419101A
:101B5000B90181E795E00E945E066FEF7FEF89ECA7
:101B600094E00E945E062AA13BA14CA15DA1203D0C
:101B700037404105510508F489CE8092DF039092E9
:101B8000E003A092E103B092E20389E090E0909339
:101B9000E4038093E3037ACEE12C01E020E048E106
:101BA00050E067E170E086E190E00E94FE0500E011
:101BB00021E04BE150E06AE170E089E190E00E94B1
:101BC000FE054090DF035090E0036090E1037090C9
:101BD000E203C301B2016053784F8F4F9F4F6819E2
:101BE00079098A099B0928EE33E040E050E00E9421
:101BF0001910B90181E795E00E945E066FEF7FEF53
:101C000089EC94E00E945E06D501C401841995090F
:101C1000A609B709883E9340A105B10508F432CE64
:101C20006FEF7FEF81E795E00E945E068092DF0311
:101C30009092E003A092E103B092E20385E090E08D
:101C40001DCEE12C00E021E048E150E067E170E0CA
:101C500086E190E00E94FE0521E04BE150E06AE160
:101C600070E089E190E00E94FE056FEF7FEF81E771
:101C700095E00E945E066FEF7FEF89EC94E00E9492
:101C80005E068091DF039091E003A091E103B091A3
:101C9000E203A5019401281B390B4A0B5B0BDA0107
:101CA000C901883E9340A105B10508F4EBCD8092AF
:101CB000DF039092E003A092E103B092E2038091EF
:101CC000DE0381114ECE81E090E0D8CDE12C00E022
:101CD00021E048E150E067E170E086E190E00E9499
:101CE000FE0501E021E04BE150E06AE170E089E1AE
:101CF00090E00E94FE056FEF7FEF81E795E00E9484
:101D00005E066FEF7FEF89EC94E00E945E068091A3
:101D1000DF039091E003A091E103B091E203A501FC
:101D20009401281B390B4A0B5B0BDA01C901803D7A
:101D30009740A105B10508F4A5CD8092DF039092EC
:101D4000E003A092E103B092E203D092E403C092D8
:101D5000E30398CDE12C00E021E048E150E067E1A9
:101D600070E086E190E00E94FE05EE24E39420E01E
:101D70004BE150E06AE170E089E190E00E94FE05ED
:101D80006FEF7FEF81E795E00E945E064090DF03F2
:101D90005090E0036090E1037090E20360919D0435
:101DA00070919E04072E000C880B990B9301820101
:101DB000085A144E2F4F3F4F600F711F821F931F01
:101DC000681979098A099B0928EE33E040E050E060
:101DD0000E941910B90189EC94E00E945E06B501D9
:101DE000A401441955096609770980919D049091D1
:101DF0009E04092E000CAA0BBB0B8854944FAF4FC6
:101E0000BF4F481759076A077B0780F08092DF03AE
:101E10009092E003A092E103B092E2033092E403D7
:101E20002092E30310929E0410929D0480EB94E0B4
:101E30002FCDE12C00E021E048E150E067E170E0C7
:101E400086E190E00E94FE054090DF035090E003A1
:101E50006090E1037090E203D501C40184199509F3
:101E6000A609B7098AA39BA3ACA3BDA3BC01CD015E
:101E70002AEF30E040E050E00E9419102170E22E7D
:101E800020E04BE150E06AE170E089E190E00E94DF
:101E9000FE056FEF7FEF81E795E00E945E0690EA16
:101EA000490E9FE0591E611C711CC301B2016819E3
:101EB00079098A099B0928EE33E040E050E00E944E
:101EC0001910B90189EC94E00E945E062AA13BA199
:101ED0004CA15DA1203D37404105510508F4A6CF36
:101EE0008092DF039092E003A092E103B092E203BC
:101EF000A4E0B0E0B093E403A093E30397CFE12C18
:101F000000E021E048E150E067E170E086E190E028
:101F10000E94FE0501E020E04BE150E06AE170E044
:101F200089E190E00E94FE056FEF7FEF81E795E089
:101F30000E945E064090DF035090E0036090E10352
:101F40007090E203C301B2016053784F8F4F9F4FEF
:101F5000681979098A099B0928EE33E040E050E0CE
:101F60000E941910B90189EC94E00E945E06D50127
:101F7000C40184199509A609B709883E9340A105B3
:101F8000B10508F47FCC8092DF039092E003A09229
:101F9000E103B092E2031092E4031092E30372CCE7
:101FA0008091DF039091E003A091E103B091E203FF
:101FB000A5019401281B390B4A0B5B0BCA01B9011F
:101FC00024EF31E040E050E00E941910122F117010
:101FD000E12C012F20E048E150E067E170E086E16C
:101FE00090E00E94FE0500E0212F4BE150E06AE105
:101FF00070E089E190E00E94FE058091DE0381118E
:1020000002C0712C612C7092E4036092E30342CC15
:102010008430910519F0099709F05ACC88E093E0D3
:1020200002C082E093E00E94900652CC82E193E0ED
:10203000FACFA1E21A2EAA1BBB1BFD010DC0AA1FDD
:10204000BB1FEE1FFF1FA217B307E407F50720F021
:10205000A21BB30BE40BF50B661F771F881F991F9C
:102060001A9469F760957095809590959B01AC01E5
:10207000BD01CF010895EE0FFF1F881F8BBF079092
:0A208000F691E02D1994F894FFCFBB
:10208A000000000000000000000000000100010044
:10209A000000000001000100010001000000000032
:1020AA000100000000000100000000000000000024
:1020BA000000010001000000010000000000010012
:1020CA000100000000000000010000000000010003
:1020DA0000000000000001000000000000000000F5
:1020EA0000000000000000000100010001000100E2
:1020FA0000000000000000000000000000000000D6
:10210A0000000000000001000000000001000100C2
:10211A00010001000100010000000000400014005D
:10212A0054002D002C002B002A002900280027002B
:10213A00350034003300320031002F003000210016
:10214A00220023001E001F00200000000000890357
:10215A00F3022003D60351032F03430300000000B8
:10216A00E404B704FB058D04B0049D048E0400004A
:10217A000000FC06F302FB05FA0545737461646FFF
:10218A003A0020524F4A4F0020414D4152494C4C8F
:10219A004F00205645524445005469656D706F3AA8
:0221AA00000033
:00000001FF
