:100000000C943C010C946D010C946D010C946D01E9
:100010000C946D010C946D010C946D010C946D01A8
:100020000C946D010C946D010C946D010C946D0198
:100030000C946D010C946D010C946D010C946D0188
:100040000C946D010C946D010C946D010C946D0178
:100050000C946D010C946D010C946D010C94680569
:100060000C946D010C94DC050C94B2050C946D019C
:100070000C946D010C946D010C946D010C946D0148
:100080000C946D010C946D010C946D010C946D0138
:100090000C946D010C946D010C946D010C946D0128
:1000A0000C946D010C946D010C946D010C946D0118
:1000B0000C946D010C946D010C946D010C946D0108
:1000C0000C946D010C946D010C946D010C946D01F8
:1000D0000C946D010C946D010C946D010C946D01E8
:1000E0000C946D010C94EE010C94F4010C948A04B0
:1000F0000C947C040C9427030C940F030C94E101E2
:100100000C94C2040C9420030C94BE010C940F05B3
:100110000C94DD010C9412060C94D9010C94060287
:100120000C94DF020C94B8020C94F8010C94EA01D0
:100130000C9414020C94E4010C94AC020C94FA029A
:100140000C94C9020C94C3010C9410020C9402028A
:100150000C9403030C9468040C94FC020C94D501D9
:100160000C942C040C940A020C94FC010C94590479
:1001700000000A0B02090C0D0E0807030401000021
:10018000000000000000000000000000000000006F
:10019000000000000000000000000000121110002C
:1001A000000000000000000000000000000000004F
:1001B00000000000000000002200250028002B00A5
:1001C0002E003100340002010000050108010B017E
:1001D00000002100240027002A002D0030003300F9
:1001E00001010000040107010A01050505050705D5
:1001F00008080808020202020A0A080804040404A3
:1002000001010101010101010303030303030303CE
:10021000040707070C0C0C0C0C0C0C0C020202025D
:1002200006060606060606060B0B0B0B0B0B0B0B46
:1002300001021020200808102040102040800201F8
:1002400002010804020101020408102040808040DD
:1002500020100804020180040201804020100804DC
:10026000020108040201010204081020408001027A
:10027000040810204080120611241FBECFEFD1E2E7
:10028000DEBFCDBF00E00CBF12E0A0E0B2E0E8E9C5
:10029000FFE000E00BBF02C007900D92A632B1074D
:1002A000D9F722E0A6E2B2E001C01D92A63EB20755
:1002B000E1F711E0CCE3D1E000E006C021970109AD
:1002C000802FFE010E948C07CB33D10780E0080706
:1002D000A9F70E9473060C94CA070C94000090E0E2
:1002E000FC01E05DFD4F249186519E4FFC018491FD
:1002F000882399F090E0880F991FFC01E053FE4F8E
:10030000A591B491FC01EA54FE4F859194918FB769
:10031000F894EC91E22BEC938FBF0895282F30E0F6
:10032000F901E059FE4F9491F901E05DFD4F4491D0
:1003300026513E4FF9012491222309F435C0992317
:1003400011F191509231F8F4E92FF0E08827E4554B
:10035000FE4F8F4F0C948C07DD01E101BE01D501EA
:10036000D901C301E401EA01EE01F401F801FC0145
:1003700002020602C3010A021002140280918000E8
:100380008F7780938000E22FF0E0EE0FFF1FEA549A
:10039000FE4FA591B4918FB7F894EC91611148C0CC
:1003A00040954E234C938FBF0895809180008F7DA0
:1003B000E8CF80918000877FE4CF84B58F7784BDBC
:1003C000E2CF84B58F7DFBCF8091B0008F77809393
:1003D000B000D9CF8091B0008F7DF9CF809190008F
:1003E0008F7780939000CFCF809190008F7DF9CF51
:1003F00080919000877FF5CF8091A0008F778093C8
:10040000A000C1CF8091A0008F7DF9CF8091A00086
:10041000877FF5CF809120018F7780932001B3CF24
:10042000809120018F7DF9CF80912001877FF5CFCA
:100430004E2BB8CFCF93DF93EC018091D4029091F3
:10044000D502029749F4C130D10509F43DC07CF5CD
:1004500060E0209709F439C08091D4029091D502D0
:10046000049749F4C130D10509F45EC00CF039C0DD
:10047000209709F444C08091D4029091D502059749
:1004800009F0E7C0CA30D10508F0E3C0FE018827B3
:10049000E35BFD4F8F4F0C948C07AC02B802C9028E
:1004A000DF02FA02FC0203030F0320032703C2301A
:1004B000D105A9F060E0C330D10571F68091D80272
:1004C0000E948E0160E006C061E08091D8020E9427
:1004D0008E0161E08091DA020E948E01BDCF61E061
:1004E000EDCFC230D10539F1C330D10509F0C3CF0A
:1004F00061E08091D8020E948E0160E022C061E03C
:100500008091D8020E948E0160E08091DA020E9400
:100510008E0161E08091DC020E948E0160E080919A
:10052000DE020E948E01A7CF60E08091D8020E9477
:100530008E0161E0EACF60E08091D8020E948E01D6
:1005400061E08091DA020E948E0160E08091DC021D
:100550000E948E0161E0E3CF60E08091D8020E94AA
:100560008E0161E08091DA020E948E0161E00BC091
:1005700060E08091D8020E948E0161E08091DA02F1
:100580000E948E0160E08091DC020E948E0160E09A
:1005900010C060E08091D8020E948E0161E08091DD
:1005A000DA020E948E0160E08091DC020E948E01DE
:1005B00061E08091DE020E948E0161E015C060E082
:1005C0008091D8020E948E0161E08091DA020E943F
:1005D0008E0160E08091DC020E948E0161E08091DA
:1005E000DE020E948E0160E08091E002DF91CF91F7
:1005F0000C948E0161E0E4CF61E08091D8020E940A
:100600008E0160E0E2CF61E08091D8020E948E010D
:1006100060E08091DA020E948E0161E0DBCF61E050
:100620008091D8020E948E0160E08091DA020E94DF
:100630008E0161E08091DC020E948E0160E0CFCFEC
:1006400061E08091D8020E948E0160E08BCF60E073
:10065000F8CFDF91CF9108953FB7F89480912B02A6
:1006600090912C02A0912D02B0912E0226B5A89B4C
:1006700005C02F3F19F00196A11DB11D3FBFBA2F34
:10068000A92F982F8827BC01CD01620F711D811DF4
:10069000911D42E0660F771F881F991F4A95D1F779
:1006A00008958F929F92AF92BF92CF92DF92EF9276
:1006B000FF920E942C034B015C0184EFC82EDD24C5
:1006C000D394E12CF12C0E942C03681979098A0932
:1006D0009B09683E734081059105A8F321E0C21A89
:1006E000D108E108F10888EE880E83E0981EA11C6D
:1006F000B11CC114D104E104F10429F7FF90EF907B
:10070000DF90CF90BF90AF909F908F9008954F92C1
:100710005F926F927F928F929F92AF92BF92EF9271
:10072000FF920F931F93CF93DF93EC0197FF04C0C9
:10073000CC27DD27C81BD90B181619060CF061C091
:1007400081E090E09093CD028093CC0204E010E031
:100750008AE0E82EF12C209709F46FC00E942C0348
:100760008090E2029090E302A090E402B090E50253
:100770002B013C01481859086A087B088090CE027A
:100780009090CF02A090D002B090D10248145904AA
:100790006A047B0400F36093E2027093E3028093A7
:1007A000E4029093E5028091D6029091D7022091C5
:1007B000CC023091CD022130310559F5019690934C
:1007C000D7028093D6022091D2023091D3028217B1
:1007D000930721F41092D7021092D60221978091AC
:1007E000D6029091D7022091D4023091D502B70160
:1007F0002530310509F0B8010E9459070E941A02FC
:10080000AACF892B09F4A2CF1092CD021092CC026C
:100810009DCF892B41F48091D2029091D302909385
:10082000D7028093D6028091D6029091D702019789
:100830009093D7028093D602D1CFDF91CF911F91B1
:100840000F91FF90EF90BF90AF909F908F907F900F
:100850006F905F904F900895AF92BF92CF92DF92CA
:10086000EF92FF920F931F93CF93DF936C017B0165
:100870008B01040F151FEB015E01AE18BF08C017F6
:10088000D10759F06991D601ED91FC910190F08169
:10089000E02DC6011995892B79F7C501DF91CF911C
:1008A0001F910F91FF90EF90DF90CF90BF90AF908E
:1008B0000895FC01538D448D252F30E0842F90E066
:1008C000821B930B541710F0CF960895019708954B
:1008D000FC01918D828D981761F0A28DAE0FBF2F14
:1008E000B11D5D968C91928D9F5F9F73928F90E06A
:1008F00008958FEF9FEF0895FC01918D828D9817D9
:1009000031F0828DE80FF11D858D90E008958FEF15
:100910009FEF0895FC01918D228D892F90E0805CDE
:100920009F4F821B91098F73992708958FE292E060
:100930000E948A0421E0892B09F420E0822F089587
:10094000FC01A48DA80FB92FB11DA35ABF4F2C9144
:10095000848D90E001968F739927848FA689B7893B
:100960002C93A089B1898C91837080648C93938D32
:10097000848D981306C00288F389E02D80818F7DD5
:1009800080830895EF92FF920F931F93CF93DF938D
:10099000EC0181E0888F9B8D8C8D98131AC0E889BB
:1009A000F989808185FF15C09FB7F894EE89FF898A
:1009B0006083E889F98980818370806480839FBF28
:1009C00081E090E0DF91CF911F910F91FF90EF9028
:1009D0000895F62E0B8D10E00F5F1F4F0F73112738
:1009E000E02E8C8D8E110CC00FB607FCFACFE88973
:1009F000F989808185FFF5CFCE010E94A004F1CF57
:100A0000EB8DEC0FFD2FF11DE35AFF4FF0829FB7E6
:100A1000F8940B8FEA89FB8980818062CFCFCF93D6
:100A2000DF93EC01888D8823B9F0AA89BB89E88916
:100A3000F9898C9185FD03C0808186FD0DC00FB6BC
:100A400007FCF7CF8C9185FFF2CF808185FFEDCF3A
:100A5000CE010E94A004E9CFDF91CF91089580E0FC
:100A600090E0892B29F00E94960481110E940000D9
:100A700080E090E0892B49F080E090E0892B29F01C
:100A80000E94000081110E94000080E090E0892B0C
:100A900049F080E090E0892B29F00E94000081114C
:100AA0000E94000080E090E0892B49F080E090E017
:100AB000892B29F00E94000081110C9400000895F8
:100AC00042E050E062E172E08FE292E00C942C048C
:100AD0001F920F920FB60F9211242F933F938F9373
:100AE0009F93AF93BF938091270290912802A0918A
:100AF0002902B0912A023091260223E0230F2D37DC
:100B000058F50196A11DB11D20932602809327025E
:100B100090932802A0932902B0932A0280912B027D
:100B200090912C02A0912D02B0912E020196A11D50
:100B3000B11D80932B0290932C02A0932D02B093B1
:100B40002E02BF91AF919F918F913F912F910F9066
:100B50000FBE0F901F90189526E8230F0296A11D37
:100B6000B11DD2CF1F920F920FB60F9211240BB668
:100B70000F922F933F934F935F936F937F938F9336
:100B80009F93AF93BF93EF93FF938FE292E00E9406
:100B9000A004FF91EF91BF91AF919F918F917F91B1
:100BA0006F915F914F913F912F910F900BBE0F90DE
:100BB0000FBE0F901F9018951F920F920FB60F92B5
:100BC00011240BB60F922F938F939F93EF93FF9364
:100BD000E0913F02F09140028081E0914502F09166
:100BE000460282FD1DC09081809148028F5F8F7305
:100BF00020914902821741F0E0914802F0E0E15D66
:100C0000FD4F958F80934802FF91EF919F918F91B7
:100C10002F910F900BBE0F900FBE0F901F90189545
:100C20008081F2CFCF93DF93EFE2F2E01382128262
:100C300088EE93E0A0E0B0E084839583A683B78339
:100C400084E092E09183808385EC90E095878487AF
:100C500084EC90E09787868780EC90E0918B808B86
:100C600081EC90E0938B828B82EC90E0958B848B6F
:100C700086EC90E0978B868B118E128E138E148EDD
:100C8000CCECD2E01B861A86198218821E8A1F8A33
:100C9000188E198E88EC90E09F838E8388E090E018
:100CA0009D878C8789E090E09F878E878AE090E01F
:100CB000998B888B8BE090E09B8B8A8B88E00E94DD
:100CC0006F018E850E946F0188890E946F018A8959
:100CD0000E946F011D8A1C8A84E090E099878887B2
:100CE000DF91CF910895789484B5826084BD84B5F6
:100CF000816084BD85B5826085BD85B5816085BD17
:100D000080916E00816080936E00109281008091CE
:100D10008100826080938100809181008160809356
:100D20008100809180008160809380008091B1007B
:100D300084608093B1008091B00081608093B000A6
:100D400080919100826080939100809191008160F8
:100D500080939100809190008160809390008091B9
:100D6000A10082608093A1008091A10081608093A6
:100D7000A1008091A00081608093A000809121015A
:100D80008260809321018091210181608093210103
:100D90008091200181608093200180917A0084609D
:100DA00080937A0080917A00826080937A008091AB
:100DB0007A00816080937A0080917A0080688093C5
:100DC0007A001092C1002091D2023091D302032EFA
:100DD000000C440B550B60E077E883E993E00E9438
:100DE0006D07CA01B9012CE330E040E050E00E94F9
:100DF0006D072093CE023093CF024093D0025093E0
:100E0000D102E0913F02F091400282E08083E091C4
:100E10003B02F0913C021082E0913D02F0913E02D3
:100E20008FEC808310924702E0914302F0914402DC
:100E300086E08083E0914102F091420280818061EE
:100E40008083E0914102F09142028081886080833A
:100E5000E0914102F0914202808180688083E091BC
:100E60004102F091420280818F7D808349E050E011
:100E70006CE172E08FE292E00E942C040E94600517
:100E800088EC90E00E9487030E94510340E150E00B
:100E900065E172E08FE292E00E942C040E946005FE
:100EA00088E39FEF0E9487030E9451030E942F0551
:100EB000DDCF97FB072E16F4009407D077FD09D0FD
:100EC0000E94940707FC05D03EF4909581959F4FB2
:100ED0000895709561957F4F0895052E97FB1EF438
:100EE00000940E94840757FD07D00E94A80707FCC2
:100EF00003D04EF40C94840750954095309521957D
:100F00003F4F4F4F5F4F0895909580957095619535
:100F10007F4F8F4F9F4F0895EE0FFF1F881F8BBF8E
:100F20000790F691E02D1994AA1BBB1B51E107C055
:100F3000AA1FBB1FA617B70710F0A61BB70B881F69
:100F4000991F5A95A9F780959095BC01CD010895F8
:100F5000A1E21A2EAA1BBB1BFD010DC0AA1FBB1FBD
:100F6000EE1FFF1FA217B307E407F50720F0A21B2F
:100F7000B30BE40BF50B661F771F881F991F1A949C
:100F800069F760957095809590959B01AC01BD01C6
:080F9000CF010895F894FFCF92
:100F980000000000C2042C0459040F058A046804E8
:100FA8007C040D0A00636F756E746572636C6F6301
:060FB8006B776973650010
:00000001FF
